{
	"data": {
		"bytecode": {
			"linkReferences": {},
			"object": "608060405260c860065561012c60075560646b033b2e3c9fd0803ce80000006100289190611015565b600b5560646b033b2e3c9fd0803ce80000006100449190611015565b600c556001600d5f6101000a81548160ff0219169083151502179055506001600f5f6101000a81548160ff021916908315150217905550348015610086575f5ffd5b50604051615ac8380380615ac883398181016040528101906100a891906110a3565b806040518060400160405280600581526020017f53746f726d0000000000000000000000000000000000000000000000000000008152506040518060400160405280600581526020017f53544f524d00000000000000000000000000000000000000000000000000000081525081600390816101249190611326565b5080600490816101349190611326565b5050505f73ffffffffffffffffffffffffffffffffffffffff168173ffffffffffffffffffffffffffffffffffffffff16036101a7575f6040517f1e4fbdf700000000000000000000000000000000000000000000000000000000815260040161019e9190611404565b60405180910390fd5b6101b68161059160201b60201c565b505f73ffffffffffffffffffffffffffffffffffffffff168273ffffffffffffffffffffffffffffffffffffffff1603610225576040517f08c379a000000000000000000000000000000000000000000000000000000000815260040161021c90611477565b60405180910390fd5b8160085f6101000a81548173ffffffffffffffffffffffffffffffffffffffff021916908373ffffffffffffffffffffffffffffffffffffffff16021790555061028d8160026b033b2e3c9fd0803ce80000006102829190611015565b61065460201b60201c565b6001600a5f8373ffffffffffffffffffffffffffffffffffffffff1673ffffffffffffffffffffffffffffffffffffffff1681526020019081526020015f205f6101000a81548160ff0219169083151502179055506001600a5f8473ffffffffffffffffffffffffffffffffffffffff1673ffffffffffffffffffffffffffffffffffffffff1681526020019081526020015f205f6101000a81548160ff0219169083151502179055506001600a5f3073ffffffffffffffffffffffffffffffffffffffff1673ffffffffffffffffffffffffffffffffffffffff1681526020019081526020015f205f6101000a81548160ff0219169083151502179055506001600e5f8373ffffffffffffffffffffffffffffffffffffffff1673ffffffffffffffffffffffffffffffffffffffff1681526020019081526020015f205f6101000a81548160ff0219169083151502179055506001600e5f8473ffffffffffffffffffffffffffffffffffffffff1673ffffffffffffffffffffffffffffffffffffffff1681526020019081526020015f205f6101000a81548160ff0219169083151502179055506001600e5f3073ffffffffffffffffffffffffffffffffffffffff1673ffffffffffffffffffffffffffffffffffffffff1681526020019081526020015f205f6101000a81548160ff021916908315150217905550600160115f8373ffffffffffffffffffffffffffffffffffffffff1673ffffffffffffffffffffffffffffffffffffffff1681526020019081526020015f205f6101000a81548160ff021916908315150217905550600160115f8473ffffffffffffffffffffffffffffffffffffffff1673ffffffffffffffffffffffffffffffffffffffff1681526020019081526020015f205f6101000a81548160ff021916908315150217905550600160115f3073ffffffffffffffffffffffffffffffffffffffff1673ffffffffffffffffffffffffffffffffffffffff1681526020019081526020015f205f6101000a81548160ff02191690831515021790555050506116d1565b5f60055f9054906101000a900473ffffffffffffffffffffffffffffffffffffffff1690508160055f6101000a81548173ffffffffffffffffffffffffffffffffffffffff021916908373ffffffffffffffffffffffffffffffffffffffff1602179055508173ffffffffffffffffffffffffffffffffffffffff168173ffffffffffffffffffffffffffffffffffffffff167f8be0079c531659141344cd1fd0a4f28419497f9722a3daafe3b4186f6b6457e060405160405180910390a35050565b5f73ffffffffffffffffffffffffffffffffffffffff168273ffffffffffffffffffffffffffffffffffffffff16036106c4575f6040517fec442f050000000000000000000000000000000000000000000000000000000081526004016106bb9190611404565b60405180910390fd5b6106d55f83836106d960201b60201c565b5050565b5f5f73ffffffffffffffffffffffffffffffffffffffff168473ffffffffffffffffffffffffffffffffffffffff16148061073f57505f73ffffffffffffffffffffffffffffffffffffffff168373ffffffffffffffffffffffffffffffffffffffff16145b9050600d5f9054906101000a900460ff16801561075a575080155b156108f657600e5f8573ffffffffffffffffffffffffffffffffffffffff1673ffffffffffffffffffffffffffffffffffffffff1681526020019081526020015f205f9054906101000a900460ff161580156107fd5750600e5f8473ffffffffffffffffffffffffffffffffffffffff1673ffffffffffffffffffffffffffffffffffffffff1681526020019081526020015f205f9054906101000a900460ff16155b1561084857600b54821115610847576040517f08c379a000000000000000000000000000000000000000000000000000000000815260040161083e906114df565b60405180910390fd5b5b600e5f8473ffffffffffffffffffffffffffffffffffffffff1673ffffffffffffffffffffffffffffffffffffffff1681526020019081526020015f205f9054906101000a900460ff166108f557600c54826108a985610d5460201b60201c565b6108b391906114fd565b11156108f4576040517f08c379a00000000000000000000000000000000000000000000000000000000081526004016108eb9061157a565b60405180910390fd5b5b5b5f8115801561099c575060095f8673ffffffffffffffffffffffffffffffffffffffff1673ffffffffffffffffffffffffffffffffffffffff1681526020019081526020015f205f9054906101000a900460ff168061099b575060095f8573ffffffffffffffffffffffffffffffffffffffff1673ffffffffffffffffffffffffffffffffffffffff1681526020019081526020015f205f9054906101000a900460ff165b5b80156109ef5750600a5f8673ffffffffffffffffffffffffffffffffffffffff1673ffffffffffffffffffffffffffffffffffffffff1681526020019081526020015f205f9054906101000a900460ff16155b8015610a425750600a5f8573ffffffffffffffffffffffffffffffffffffffff1673ffffffffffffffffffffffffffffffffffffffff1681526020019081526020015f205f9054906101000a900460ff16155b9050600f5f9054906101000a900460ff168015610a5d575081155b8015610b00575060095f8673ffffffffffffffffffffffffffffffffffffffff1673ffffffffffffffffffffffffffffffffffffffff1681526020019081526020015f205f9054906101000a900460ff1680610aff575060095f8573ffffffffffffffffffffffffffffffffffffffff1673ffffffffffffffffffffffffffffffffffffffff1681526020019081526020015f205f9054906101000a900460ff165b5b15610c70575f60095f8773ffffffffffffffffffffffffffffffffffffffff1673ffffffffffffffffffffffffffffffffffffffff1681526020019081526020015f205f9054906101000a900460ff16610b5a5785610b5c565b845b905060115f8273ffffffffffffffffffffffffffffffffffffffff1673ffffffffffffffffffffffffffffffffffffffff1681526020019081526020015f205f9054906101000a900460ff16610c6e574360105f8373ffffffffffffffffffffffffffffffffffffffff1673ffffffffffffffffffffffffffffffffffffffff1681526020019081526020015f205403610c2b576040517f08c379a0000000000000000000000000000000000000000000000000000000008152600401610c22906115e2565b60405180910390fd5b4360105f8373ffffffffffffffffffffffffffffffffffffffff1673ffffffffffffffffffffffffffffffffffffffff1681526020019081526020015f20819055505b505b80610c8d57610c86858585610d9960201b60201c565b5050610d4f565b5f61271060065485610c9f9190611600565b610ca99190611015565b90505f61271060075486610cbd9190611600565b610cc79190611015565b90505f818387610cd79190611641565b610ce19190611641565b90505f831115610cfd57610cfc885f85610d9960201b60201c565b5b5f821115610d3857610d378860085f9054906101000a900473ffffffffffffffffffffffffffffffffffffffff1684610d9960201b60201c565b5b610d49888883610d9960201b60201c565b50505050505b505050565b5f5f5f8373ffffffffffffffffffffffffffffffffffffffff1673ffffffffffffffffffffffffffffffffffffffff1681526020019081526020015f20549050919050565b5f73ffffffffffffffffffffffffffffffffffffffff168373ffffffffffffffffffffffffffffffffffffffff1603610de9578060025f828254610ddd91906114fd565b92505081905550610eb7565b5f5f5f8573ffffffffffffffffffffffffffffffffffffffff1673ffffffffffffffffffffffffffffffffffffffff1681526020019081526020015f2054905081811015610e72578381836040517fe450d38c000000000000000000000000000000000000000000000000000000008152600401610e6993929190611683565b60405180910390fd5b8181035f5f8673ffffffffffffffffffffffffffffffffffffffff1673ffffffffffffffffffffffffffffffffffffffff1681526020019081526020015f2081905550505b5f73ffffffffffffffffffffffffffffffffffffffff168273ffffffffffffffffffffffffffffffffffffffff1603610efe578060025f8282540392505081905550610f48565b805f5f8473ffffffffffffffffffffffffffffffffffffffff1673ffffffffffffffffffffffffffffffffffffffff1681526020019081526020015f205f82825401925050819055505b8173ffffffffffffffffffffffffffffffffffffffff168373ffffffffffffffffffffffffffffffffffffffff167fddf252ad1be2c89b69c2b068fc378daa952ba7f163c4a11628f55a4df523b3ef83604051610fa591906116b8565b60405180910390a3505050565b5f819050919050565b7f4e487b71000000000000000000000000000000000000000000000000000000005f52601260045260245ffd5b7f4e487b71000000000000000000000000000000000000000000000000000000005f52601160045260245ffd5b5f61101f82610fb2565b915061102a83610fb2565b92508261103a57611039610fbb565b5b828204905092915050565b5f5ffd5b5f73ffffffffffffffffffffffffffffffffffffffff82169050919050565b5f61107282611049565b9050919050565b61108281611068565b811461108c575f5ffd5b50565b5f8151905061109d81611079565b92915050565b5f5f604083850312156110b9576110b8611045565b5b5f6110c68582860161108f565b92505060206110d78582860161108f565b9150509250929050565b5f81519050919050565b7f4e487b71000000000000000000000000000000000000000000000000000000005f52604160045260245ffd5b7f4e487b71000000000000000000000000000000000000000000000000000000005f52602260045260245ffd5b5f600282049050600182168061115c57607f821691505b60208210810361116f5761116e611118565b5b50919050565b5f819050815f5260205f209050919050565b5f6020601f8301049050919050565b5f82821b905092915050565b5f600883026111d17fffffffffffffffffffffffffffffffffffffffffffffffffffffffffffffffff82611196565b6111db8683611196565b95508019841693508086168417925050509392505050565b5f819050919050565b5f61121661121161120c84610fb2565b6111f3565b610fb2565b9050919050565b5f819050919050565b61122f836111fc565b61124361123b8261121d565b8484546111a2565b825550505050565b5f5f905090565b61125a61124b565b611265818484611226565b505050565b5f5b8281101561128b576112805f828401611252565b60018101905061126c565b505050565b601f8211156112de57828211156112dd576112aa81611175565b6112b383611187565b6112bc85611187565b60208610156112c9575f90505b8083016112d88284038261126a565b505050505b5b505050565b5f82821c905092915050565b5f6112fe5f19846008026112e3565b1980831691505092915050565b5f61131683836112ef565b9150826002028217905092915050565b61132f826110e1565b67ffffffffffffffff811115611348576113476110eb565b5b6113528254611145565b61135d828285611290565b5f60209050601f83116001811461138e575f841561137c578287015190505b611386858261130b565b8655506113ed565b601f19841661139c86611175565b5f5b828110156113c35784890151825560018201915060208501945060208101905061139e565b868310156113e057848901516113dc601f8916826112ef565b8355505b6001600288020188555050505b505050505050565b6113fe81611068565b82525050565b5f6020820190506114175f8301846113f5565b92915050565b5f82825260208201905092915050565b7f74726561737572792063616e6e6f74206265207a65726f2061646472657373005f82015250565b5f611461601f8361141d565b915061146c8261142d565b602082019050919050565b5f6020820190508181035f83015261148e81611455565b9050919050565b7f7472616e736665722065786365656473206d61785478416d6f756e74000000005f82015250565b5f6114c9601c8361141d565b91506114d482611495565b602082019050919050565b5f6020820190508181035f8301526114f6816114bd565b9050919050565b5f61150782610fb2565b915061151283610fb2565b925082820190508082111561152a57611529610fe8565b5b92915050565b7f7472616e736665722065786365656473206d617857616c6c6574416d6f756e745f82015250565b5f61156460208361141d565b915061156f82611530565b602082019050919050565b5f6020820190508181035f83015261159181611558565b9050919050565b7f6f6e652074726164652070657220626c6f636b000000000000000000000000005f82015250565b5f6115cc60138361141d565b91506115d782611598565b602082019050919050565b5f6020820190508181035f8301526115f9816115c0565b9050919050565b5f61160a82610fb2565b915061161583610fb2565b925082820261162381610fb2565b9150828204841483151761163a57611639610fe8565b5b5092915050565b5f61164b82610fb2565b915061165683610fb2565b925082820390508181111561166e5761166d610fe8565b5b92915050565b61167d81610fb2565b82525050565b5f6060820190506116965f8301866113f5565b6116a36020830185611674565b6116b06040830184611674565b949350505050565b5f6020820190506116cb5f830184611674565b92915050565b6143ea806116de5f395ff3fe608060405234801561000f575f5ffd5b506004361061035b575f3560e01c806370a08231116101d1578063a9059cbb11610102578063ca7df92c116100a0578063e80cfa5e1161007a578063e80cfa5e14610ab7578063ec63210414610ad5578063f2fde38b14610af3578063f9c703f414610b0f5761035b565b8063ca7df92c14610a39578063cd2b920214610a57578063dd62ed3e14610a875761035b565b8063b912de5d116100dc578063b912de5d1461098d578063b9890adc146109bd578063bf57331f146109ed578063c4590d3f14610a1d5761035b565b8063a9059cbb1461090f578063aa4bde281461093f578063b0d993ac1461095d5761035b565b80638da5cb5b1161016f5780639c9bcea2116101495780639c9bcea214610889578063a5189810146108a5578063a65796dc146108c3578063a8602fea146108f35761035b565b80638da5cb5b1461081d5780639191a9c71461083b57806395d89b411461086b5761035b565b8063781cc3d3116101ab578063781cc3d3146107a957806379cc6790146107c557806389567779146107e15780638c0b5e22146107ff5761035b565b806370a082311461073f578063715018a61461076f57806374db9d11146107795761035b565b806341aea9de116102ab5780635ba1c1a91161024957806361464a2f1161022357806361464a2f146106a7578063622f0447146106c35780636612e66f146106f357806367e7f1c31461070f5761035b565b80635ba1c1a9146106295780635cce86cd146106475780635d5b29c1146106775761035b565b8063431a9caa11610285578063431a9caa1461058d5780634626402b146105ab5780635342acb4146105c957806355ab3406146105f95761035b565b806341aea9de1461052557806342966c6814610541578063430e24771461055d5761035b565b806323b872dd1161031857806332cb6b0c116102f257806332cb6b0c146104b15780633582ad23146104cf57806336fddb04146104ed57806340c10f19146105095761035b565b806323b872dd146104335780632e8328e614610463578063313ce567146104935761035b565b806306fdde031461035f578063095ea7b31461037d5780630a656923146103ad5780630b78f9c0146103c957806316e09769146103e557806318160ddd14610415575b5f5ffd5b610367610b2b565b604051610374919061332d565b60405180910390f35b610397600480360381019061039291906133de565b610bbb565b6040516103a49190613436565b60405180910390f35b6103c760048036038101906103c29190613479565b610bdd565b005b6103e360048036038101906103de91906134b7565b610e42565b005b6103ff60048036038101906103fa91906134b7565b610fda565b60405161040c919061350d565b60405180910390f35b61041d61100c565b60405161042a9190613535565b60405180910390f35b61044d6004803603810190610448919061354e565b611015565b60405161045a9190613436565b60405180910390f35b61047d60048036038101906104789190613479565b611043565b60405161048a919061350d565b60405180910390f35b61049b611075565b6040516104a891906135b9565b60405180910390f35b6104b961107d565b6040516104c69190613535565b60405180910390f35b6104d761108d565b6040516104e49190613436565b60405180910390f35b61050760048036038101906105029190613479565b61109f565b005b610523600480360381019061051e91906133de565b611242565b005b61053f600480360381019061053a91906135d2565b6113ae565b005b61055b600480360381019061055691906135fd565b6114fd565b005b61057760048036038101906105729190613479565b611511565b604051610584919061350d565b60405180910390f35b610595611543565b6040516105a29190613535565b60405180910390f35b6105b3611549565b6040516105c09190613637565b60405180910390f35b6105e360048036038101906105de9190613650565b61156e565b6040516105f09190613436565b60405180910390f35b610613600480360381019061060e91906135d2565b61158b565b604051610620919061350d565b60405180910390f35b6106316115ba565b60405161063e9190613535565b60405180910390f35b610661600480360381019061065c9190613650565b6115c1565b60405161066e9190613436565b60405180910390f35b610691600480360381019061068c9190613650565b6115de565b60405161069e9190613436565b60405180910390f35b6106c160048036038101906106bc91906135d2565b6115fb565b005b6106dd60048036038101906106d89190613479565b61174a565b6040516106ea919061350d565b60405180910390f35b61070d60048036038101906107089190613479565b61177c565b005b61072960048036038101906107249190613650565b61191f565b604051610736919061350d565b60405180910390f35b61075960048036038101906107549190613650565b61194e565b6040516107669190613535565b60405180910390f35b610777611993565b005b610793600480360381019061078e9190613650565b6119a6565b6040516107a09190613535565b60405180910390f35b6107c360048036038101906107be91906136a5565b6119bb565b005b6107df60048036038101906107da91906133de565b611a5a565b005b6107e9611a7a565b6040516107f69190613436565b60405180910390f35b610807611a8c565b6040516108149190613535565b60405180910390f35b610825611a92565b6040516108329190613637565b60405180910390f35b61085560048036038101906108509190613650565b611aba565b6040516108629190613436565b60405180910390f35b610873611ad7565b604051610880919061332d565b60405180910390f35b6108a3600480360381019061089e9190613479565b611b67565b005b6108ad611d0a565b6040516108ba9190613535565b60405180910390f35b6108dd60048036038101906108d891906134b7565b611d10565b6040516108ea919061350d565b60405180910390f35b61090d60048036038101906109089190613650565b611d42565b005b610929600480360381019061092491906133de565b611f32565b6040516109369190613436565b60405180910390f35b610947611f54565b6040516109549190613535565b60405180910390f35b610977600480360381019061097291906133de565b611f5a565b604051610984919061350d565b60405180910390f35b6109a760048036038101906109a291906136a5565b611f8c565b6040516109b49190613535565b60405180910390f35b6109d760048036038101906109d29190613479565b611fa1565b6040516109e4919061350d565b60405180910390f35b610a076004803603810190610a029190613650565b611fd3565b604051610a14919061350d565b60405180910390f35b610a376004803603810190610a3291906134b7565b612002565b005b610a416121fa565b604051610a4e9190613535565b60405180910390f35b610a716004803603810190610a6c91906135d2565b612216565b604051610a7e919061350d565b60405180910390f35b610aa16004803603810190610a9c91906136d0565b612245565b604051610aae9190613535565b60405180910390f35b610abf6122c7565b604051610acc9190613535565b60405180910390f35b610add6122cd565b604051610aea9190613535565b60405180910390f35b610b0d6004803603810190610b089190613650565b6122d2565b005b610b296004803603810190610b2491906136a5565b6123da565b005b606060038054610b3a9061373b565b80601f0160208091040260200160405190810160405280929190818152602001828054610b669061373b565b8015610bb15780601f10610b8857610100808354040283529160200191610bb1565b820191905f5260205f20905b815481529060010190602001808311610b9457829003601f168201915b5050505050905090565b5f5f610bc5612494565b9050610bd281858561249b565b600191505092915050565b610be56124ad565b610bef8282611511565b5f60125f8381526020019081526020015f205490505f8103610c46576040517f08c379a0000000000000000000000000000000000000000000000000000000008152600401610c3d906137b5565b60405180910390fd5b6202a30081610c559190613800565b421015610c97576040517f08c379a0000000000000000000000000000000000000000000000000000000008152600401610c8e9061387d565b60405180910390fd5b60125f8381526020019081526020015f205f90555f73ffffffffffffffffffffffffffffffffffffffff168473ffffffffffffffffffffffffffffffffffffffff1603610d19576040517f08c379a0000000000000000000000000000000000000000000000000000000008152600401610d10906138e5565b60405180910390fd5b8260095f8673ffffffffffffffffffffffffffffffffffffffff1673ffffffffffffffffffffffffffffffffffffffff1681526020019081526020015f205f6101000a81548160ff02191690831515021790555082600e5f8673ffffffffffffffffffffffffffffffffffffffff1673ffffffffffffffffffffffffffffffffffffffff1681526020019081526020015f205f6101000a81548160ff0219169083151502179055508373ffffffffffffffffffffffffffffffffffffffff167f6a99fe055b37fbb43da2bf48bc37ffb6d8f1fb0cd09c1b41e9ccc5ce70397dba84604051610e079190613436565b60405180910390a2817f9b5a634ce9dbcc1cc28dbce24cd5b30136689ff28f9ae433837bd68895d7d5e060405160405180910390a250505050565b610e4a6124ad565b610e548282610fda565b5f60125f8381526020019081526020015f205490505f8103610eab576040517f08c379a0000000000000000000000000000000000000000000000000000000008152600401610ea2906137b5565b60405180910390fd5b6202a30081610eba9190613800565b421015610efc576040517f08c379a0000000000000000000000000000000000000000000000000000000008152600401610ef39061387d565b60405180910390fd5b60125f8381526020019081526020015f205f90556103e88385610f1f9190613800565b1115610f60576040517f08c379a0000000000000000000000000000000000000000000000000000000008152600401610f579061394d565b60405180910390fd5b83600681905550826007819055507f5c6323bf1c2d7aaea2c091a4751c1c87af7f2864650c336507a77d0557af37a18484604051610f9f92919061396b565b60405180910390a1817f9b5a634ce9dbcc1cc28dbce24cd5b30136689ff28f9ae433837bd68895d7d5e060405160405180910390a250505050565b5f8282604051602001610fee9291906139dc565b60405160208183030381529060405280519060200120905092915050565b5f600254905090565b5f5f61101f612494565b905061102c858285612534565b6110378585856125c7565b60019150509392505050565b5f8282604051602001611057929190613a60565b60405160208183030381529060405280519060200120905092915050565b5f6012905090565b6b033b2e3c9fd0803ce800000081565b600d5f9054906101000a900460ff1681565b6110a76124ad565b6110b1828261174a565b5f60125f8381526020019081526020015f205490505f8103611108576040517f08c379a00000000000000000000000000000000000000000000000000000000081526004016110ff906137b5565b60405180910390fd5b6202a300816111179190613800565b421015611159576040517f08c379a00000000000000000000000000000000000000000000000000000000081526004016111509061387d565b60405180910390fd5b60125f8381526020019081526020015f205f905582600e5f8673ffffffffffffffffffffffffffffffffffffffff1673ffffffffffffffffffffffffffffffffffffffff1681526020019081526020015f205f6101000a81548160ff0219169083151502179055508373ffffffffffffffffffffffffffffffffffffffff167f74392251b09500cc108c71712e5e7e0392be9075a74a24f1494551cfa8e06870846040516112079190613436565b60405180910390a2817f9b5a634ce9dbcc1cc28dbce24cd5b30136689ff28f9ae433837bd68895d7d5e060405160405180910390a250505050565b61124a6124ad565b6112548282611f5a565b5f60125f8381526020019081526020015f205490505f81036112ab576040517f08c379a00000000000000000000000000000000000000000000000000000000081526004016112a2906137b5565b60405180910390fd5b6202a300816112ba9190613800565b4210156112fc576040517f08c379a00000000000000000000000000000000000000000000000000000000081526004016112f39061387d565b60405180910390fd5b60125f8381526020019081526020015f205f90556b033b2e3c9fd0803ce80000008361132661100c565b6113309190613800565b1115611371576040517f08c379a000000000000000000000000000000000000000000000000000000000815260040161136890613ae4565b60405180910390fd5b61137b84846126b7565b817f9b5a634ce9dbcc1cc28dbce24cd5b30136689ff28f9ae433837bd68895d7d5e060405160405180910390a250505050565b6113b66124ad565b6113bf8161158b565b5f60125f8381526020019081526020015f205490505f8103611416576040517f08c379a000000000000000000000000000000000000000000000000000000000815260040161140d906137b5565b60405180910390fd5b6202a300816114259190613800565b421015611467576040517f08c379a000000000000000000000000000000000000000000000000000000000815260040161145e9061387d565b60405180910390fd5b60125f8381526020019081526020015f205f905582600d5f6101000a81548160ff0219169083151502179055507f30b4d3dc1bff9f2a7bf6eb4d8eff6add7b7b1116f695ef27bbd80ceab8d187e1836040516114c39190613436565b60405180910390a1817f9b5a634ce9dbcc1cc28dbce24cd5b30136689ff28f9ae433837bd68895d7d5e060405160405180910390a2505050565b61150e611508612494565b82612736565b50565b5f8282604051602001611525929190613b4c565b60405160208183030381529060405280519060200120905092915050565b6103e881565b60085f9054906101000a900473ffffffffffffffffffffffffffffffffffffffff1681565b600a602052805f5260405f205f915054906101000a900460ff1681565b5f8160405160200161159d9190613bd0565b604051602081830303815290604052805190602001209050919050565b6202a30081565b600e602052805f5260405f205f915054906101000a900460ff1681565b6011602052805f5260405f205f915054906101000a900460ff1681565b6116036124ad565b61160c81612216565b5f60125f8381526020019081526020015f205490505f8103611663576040517f08c379a000000000000000000000000000000000000000000000000000000000815260040161165a906137b5565b60405180910390fd5b6202a300816116729190613800565b4210156116b4576040517f08c379a00000000000000000000000000000000000000000000000000000000081526004016116ab9061387d565b60405180910390fd5b60125f8381526020019081526020015f205f905582600f5f6101000a81548160ff0219169083151502179055507f4bfdfe3b0df4fd4b6c2561042c364d2523d6aa3617f605f19e3fa28247d9220c836040516117109190613436565b60405180910390a1817f9b5a634ce9dbcc1cc28dbce24cd5b30136689ff28f9ae433837bd68895d7d5e060405160405180910390a2505050565b5f828260405160200161175e929190613c46565b60405160208183030381529060405280519060200120905092915050565b6117846124ad565b61178e8282611fa1565b5f60125f8381526020019081526020015f205490505f81036117e5576040517f08c379a00000000000000000000000000000000000000000000000000000000081526004016117dc906137b5565b60405180910390fd5b6202a300816117f49190613800565b421015611836576040517f08c379a000000000000000000000000000000000000000000000000000000000815260040161182d9061387d565b60405180910390fd5b60125f8381526020019081526020015f205f905582600a5f8673ffffffffffffffffffffffffffffffffffffffff1673ffffffffffffffffffffffffffffffffffffffff1681526020019081526020015f205f6101000a81548160ff0219169083151502179055508373ffffffffffffffffffffffffffffffffffffffff167f2d43abd87b27cee7b0aa8c6f7e0b4a3247b683262a83cbc2318b0df398a49aa9846040516118e49190613436565b60405180910390a2817f9b5a634ce9dbcc1cc28dbce24cd5b30136689ff28f9ae433837bd68895d7d5e060405160405180910390a250505050565b5f816040516020016119319190613cca565b604051602081830303815290604052805190602001209050919050565b5f5f5f8373ffffffffffffffffffffffffffffffffffffffff1673ffffffffffffffffffffffffffffffffffffffff1681526020019081526020015f20549050919050565b61199b6124ad565b6119a45f6127b5565b565b6010602052805f5260405f205f915090505481565b6119c36124ad565b5f60125f8381526020019081526020015f205403611a16576040517f08c379a0000000000000000000000000000000000000000000000000000000008152600401611a0d90613d40565b60405180910390fd5b60125f8281526020019081526020015f205f9055807f123ababb6f85aa48b13de8f5bd2acb5393e4980d969791661dc987331007039560405160405180910390a250565b611a6c82611a66612494565b83612534565b611a768282612736565b5050565b600f5f9054906101000a900460ff1681565b600b5481565b5f60055f9054906101000a900473ffffffffffffffffffffffffffffffffffffffff16905090565b6009602052805f5260405f205f915054906101000a900460ff1681565b606060048054611ae69061373b565b80601f0160208091040260200160405190810160405280929190818152602001828054611b129061373b565b8015611b5d5780601f10611b3457610100808354040283529160200191611b5d565b820191905f5260205f20905b815481529060010190602001808311611b4057829003601f168201915b5050505050905090565b611b6f6124ad565b611b798282611043565b5f60125f8381526020019081526020015f205490505f8103611bd0576040517f08c379a0000000000000000000000000000000000000000000000000000000008152600401611bc7906137b5565b60405180910390fd5b6202a30081611bdf9190613800565b421015611c21576040517f08c379a0000000000000000000000000000000000000000000000000000000008152600401611c189061387d565b60405180910390fd5b60125f8381526020019081526020015f205f90558260115f8673ffffffffffffffffffffffffffffffffffffffff1673ffffffffffffffffffffffffffffffffffffffff1681526020019081526020015f205f6101000a81548160ff0219169083151502179055508373ffffffffffffffffffffffffffffffffffffffff167fe7439fb2fea1c5b46ea1e6f50748b4ce40e40d7bb8e75bb0756f382c47cfc43484604051611ccf9190613436565b60405180910390a2817f9b5a634ce9dbcc1cc28dbce24cd5b30136689ff28f9ae433837bd68895d7d5e060405160405180910390a250505050565b60065481565b5f8282604051602001611d24929190613da8565b60405160208183030381529060405280519060200120905092915050565b611d4a6124ad565b611d538161191f565b5f60125f8381526020019081526020015f205490505f8103611daa576040517f08c379a0000000000000000000000000000000000000000000000000000000008152600401611da1906137b5565b60405180910390fd5b6202a30081611db99190613800565b421015611dfb576040517f08c379a0000000000000000000000000000000000000000000000000000000008152600401611df29061387d565b60405180910390fd5b60125f8381526020019081526020015f205f90555f73ffffffffffffffffffffffffffffffffffffffff168373ffffffffffffffffffffffffffffffffffffffff1603611e7d576040517f08c379a0000000000000000000000000000000000000000000000000000000008152600401611e7490613e2c565b60405180910390fd5b8260085f6101000a81548173ffffffffffffffffffffffffffffffffffffffff021916908373ffffffffffffffffffffffffffffffffffffffff1602179055508273ffffffffffffffffffffffffffffffffffffffff167f97c79b3848e51f57983ac89e4403452655c8d83ceba8199011de63a74f60d1a760405160405180910390a2817f9b5a634ce9dbcc1cc28dbce24cd5b30136689ff28f9ae433837bd68895d7d5e060405160405180910390a2505050565b5f5f611f3c612494565b9050611f498185856125c7565b600191505092915050565b600c5481565b5f8282604051602001611f6e929190613e94565b60405160208183030381529060405280519060200120905092915050565b6012602052805f5260405f205f915090505481565b5f8282604051602001611fb5929190613f18565b60405160208183030381529060405280519060200120905092915050565b5f81604051602001611fe59190613f9c565b604051602081830303815290604052805190602001209050919050565b61200a6124ad565b6120148282611d10565b5f60125f8381526020019081526020015f205490505f810361206b576040517f08c379a0000000000000000000000000000000000000000000000000000000008152600401612062906137b5565b60405180910390fd5b6202a3008161207a9190613800565b4210156120bc576040517f08c379a00000000000000000000000000000000000000000000000000000000081526004016120b39061387d565b60405180910390fd5b60125f8381526020019081526020015f205f90555f61271060326b033b2e3c9fd0803ce80000006120ed9190613fc8565b6120f79190614036565b90508085101561213c576040517f08c379a0000000000000000000000000000000000000000000000000000000008152600401612133906140b0565b60405180910390fd5b8084101561217f576040517f08c379a000000000000000000000000000000000000000000000000000000000815260040161217690614118565b60405180910390fd5b84600b8190555083600c819055507f4d4981437d0211f9e6843eb024d9ada1fa3a99514d4343d4aece106dd11524bb85856040516121be92919061396b565b60405180910390a150817f9b5a634ce9dbcc1cc28dbce24cd5b30136689ff28f9ae433837bd68895d7d5e060405160405180910390a250505050565b60026b033b2e3c9fd0803ce80000006122139190614036565b81565b5f816040516020016122289190614180565b604051602081830303815290604052805190602001209050919050565b5f60015f8473ffffffffffffffffffffffffffffffffffffffff1673ffffffffffffffffffffffffffffffffffffffff1681526020019081526020015f205f8373ffffffffffffffffffffffffffffffffffffffff1673ffffffffffffffffffffffffffffffffffffffff1681526020019081526020015f2054905092915050565b60075481565b603281565b6122da6124ad565b6122e381611fd3565b5f60125f8381526020019081526020015f205490505f810361233a576040517f08c379a0000000000000000000000000000000000000000000000000000000008152600401612331906137b5565b60405180910390fd5b6202a300816123499190613800565b42101561238b576040517f08c379a00000000000000000000000000000000000000000000000000000000081526004016123829061387d565b60405180910390fd5b60125f8381526020019081526020015f205f90556123a8836127b5565b817f9b5a634ce9dbcc1cc28dbce24cd5b30136689ff28f9ae433837bd68895d7d5e060405160405180910390a2505050565b6123e26124ad565b5f60125f8381526020019081526020015f205414612435576040517f08c379a000000000000000000000000000000000000000000000000000000000815260040161242c906141f6565b60405180910390fd5b4260125f8381526020019081526020015f2081905550807fced743ed91999d6937d1e4f38f3f95262c40a9e042556e690da08a91f7ec8e176202a3004261247c9190613800565b6040516124899190613535565b60405180910390a250565b5f33905090565b6124a88383836001612878565b505050565b6124b5612494565b73ffffffffffffffffffffffffffffffffffffffff166124d3611a92565b73ffffffffffffffffffffffffffffffffffffffff1614612532576124f6612494565b6040517f118cdaa70000000000000000000000000000000000000000000000000000000081526004016125299190613637565b60405180910390fd5b565b5f61253f8484612245565b90507fffffffffffffffffffffffffffffffffffffffffffffffffffffffffffffffff8110156125c157818110156125b2578281836040517ffb8f41b20000000000000000000000000000000000000000000000000000000081526004016125a993929190614214565b60405180910390fd5b6125c084848484035f612878565b5b50505050565b5f73ffffffffffffffffffffffffffffffffffffffff168373ffffffffffffffffffffffffffffffffffffffff1603612637575f6040517f96c6fd1e00000000000000000000000000000000000000000000000000000000815260040161262e9190613637565b60405180910390fd5b5f73ffffffffffffffffffffffffffffffffffffffff168273ffffffffffffffffffffffffffffffffffffffff16036126a7575f6040517fec442f0500000000000000000000000000000000000000000000000000000000815260040161269e9190613637565b60405180910390fd5b6126b2838383612a47565b505050565b5f73ffffffffffffffffffffffffffffffffffffffff168273ffffffffffffffffffffffffffffffffffffffff1603612727575f6040517fec442f0500000000000000000000000000000000000000000000000000000000815260040161271e9190613637565b60405180910390fd5b6127325f8383612a47565b5050565b5f73ffffffffffffffffffffffffffffffffffffffff168273ffffffffffffffffffffffffffffffffffffffff16036127a6575f6040517f96c6fd1e00000000000000000000000000000000000000000000000000000000815260040161279d9190613637565b60405180910390fd5b6127b1825f83612a47565b5050565b5f60055f9054906101000a900473ffffffffffffffffffffffffffffffffffffffff1690508160055f6101000a81548173ffffffffffffffffffffffffffffffffffffffff021916908373ffffffffffffffffffffffffffffffffffffffff1602179055508173ffffffffffffffffffffffffffffffffffffffff168173ffffffffffffffffffffffffffffffffffffffff167f8be0079c531659141344cd1fd0a4f28419497f9722a3daafe3b4186f6b6457e060405160405180910390a35050565b5f73ffffffffffffffffffffffffffffffffffffffff168473ffffffffffffffffffffffffffffffffffffffff16036128e8575f6040517fe602df050000000000000000000000000000000000000000000000000000000081526004016128df9190613637565b60405180910390fd5b5f73ffffffffffffffffffffffffffffffffffffffff168373ffffffffffffffffffffffffffffffffffffffff1603612958575f6040517f94280d6200000000000000000000000000000000000000000000000000000000815260040161294f9190613637565b60405180910390fd5b8160015f8673ffffffffffffffffffffffffffffffffffffffff1673ffffffffffffffffffffffffffffffffffffffff1681526020019081526020015f205f8573ffffffffffffffffffffffffffffffffffffffff1673ffffffffffffffffffffffffffffffffffffffff1681526020019081526020015f20819055508015612a41578273ffffffffffffffffffffffffffffffffffffffff168473ffffffffffffffffffffffffffffffffffffffff167f8c5be1e5ebec7d5bd14f71427d1e84f3dd0314c0f7b2291e5b200ac8c7c3b92584604051612a389190613535565b60405180910390a35b50505050565b5f5f73ffffffffffffffffffffffffffffffffffffffff168473ffffffffffffffffffffffffffffffffffffffff161480612aad57505f73ffffffffffffffffffffffffffffffffffffffff168373ffffffffffffffffffffffffffffffffffffffff16145b9050600d5f9054906101000a900460ff168015612ac8575080155b15612c5e57600e5f8573ffffffffffffffffffffffffffffffffffffffff1673ffffffffffffffffffffffffffffffffffffffff1681526020019081526020015f205f9054906101000a900460ff16158015612b6b5750600e5f8473ffffffffffffffffffffffffffffffffffffffff1673ffffffffffffffffffffffffffffffffffffffff1681526020019081526020015f205f9054906101000a900460ff16155b15612bb657600b54821115612bb5576040517f08c379a0000000000000000000000000000000000000000000000000000000008152600401612bac90614293565b60405180910390fd5b5b600e5f8473ffffffffffffffffffffffffffffffffffffffff1673ffffffffffffffffffffffffffffffffffffffff1681526020019081526020015f205f9054906101000a900460ff16612c5d57600c5482612c118561194e565b612c1b9190613800565b1115612c5c576040517f08c379a0000000000000000000000000000000000000000000000000000000008152600401612c53906142fb565b60405180910390fd5b5b5b5f81158015612d04575060095f8673ffffffffffffffffffffffffffffffffffffffff1673ffffffffffffffffffffffffffffffffffffffff1681526020019081526020015f205f9054906101000a900460ff1680612d03575060095f8573ffffffffffffffffffffffffffffffffffffffff1673ffffffffffffffffffffffffffffffffffffffff1681526020019081526020015f205f9054906101000a900460ff165b5b8015612d575750600a5f8673ffffffffffffffffffffffffffffffffffffffff1673ffffffffffffffffffffffffffffffffffffffff1681526020019081526020015f205f9054906101000a900460ff16155b8015612daa5750600a5f8573ffffffffffffffffffffffffffffffffffffffff1673ffffffffffffffffffffffffffffffffffffffff1681526020019081526020015f205f9054906101000a900460ff16155b9050600f5f9054906101000a900460ff168015612dc5575081155b8015612e68575060095f8673ffffffffffffffffffffffffffffffffffffffff1673ffffffffffffffffffffffffffffffffffffffff1681526020019081526020015f205f9054906101000a900460ff1680612e67575060095f8573ffffffffffffffffffffffffffffffffffffffff1673ffffffffffffffffffffffffffffffffffffffff1681526020019081526020015f205f9054906101000a900460ff165b5b15612fd8575f60095f8773ffffffffffffffffffffffffffffffffffffffff1673ffffffffffffffffffffffffffffffffffffffff1681526020019081526020015f205f9054906101000a900460ff16612ec25785612ec4565b845b905060115f8273ffffffffffffffffffffffffffffffffffffffff1673ffffffffffffffffffffffffffffffffffffffff1681526020019081526020015f205f9054906101000a900460ff16612fd6574360105f8373ffffffffffffffffffffffffffffffffffffffff1673ffffffffffffffffffffffffffffffffffffffff1681526020019081526020015f205403612f93576040517f08c379a0000000000000000000000000000000000000000000000000000000008152600401612f8a90614363565b60405180910390fd5b4360105f8373ffffffffffffffffffffffffffffffffffffffff1673ffffffffffffffffffffffffffffffffffffffff1681526020019081526020015f20819055505b505b80612fef57612fe88585856130a4565b505061309f565b5f612710600654856130019190613fc8565b61300b9190614036565b90505f6127106007548661301f9190613fc8565b6130299190614036565b90505f8183876130399190614381565b6130439190614381565b90505f83111561305957613058885f856130a4565b5b5f82111561308e5761308d8860085f9054906101000a900473ffffffffffffffffffffffffffffffffffffffff16846130a4565b5b6130998888836130a4565b50505050505b505050565b5f73ffffffffffffffffffffffffffffffffffffffff168373ffffffffffffffffffffffffffffffffffffffff16036130f4578060025f8282546130e89190613800565b925050819055506131c2565b5f5f5f8573ffffffffffffffffffffffffffffffffffffffff1673ffffffffffffffffffffffffffffffffffffffff1681526020019081526020015f205490508181101561317d578381836040517fe450d38c00000000000000000000000000000000000000000000000000000000815260040161317493929190614214565b60405180910390fd5b8181035f5f8673ffffffffffffffffffffffffffffffffffffffff1673ffffffffffffffffffffffffffffffffffffffff1681526020019081526020015f2081905550505b5f73ffffffffffffffffffffffffffffffffffffffff168273ffffffffffffffffffffffffffffffffffffffff1603613209578060025f8282540392505081905550613253565b805f5f8473ffffffffffffffffffffffffffffffffffffffff1673ffffffffffffffffffffffffffffffffffffffff1681526020019081526020015f205f82825401925050819055505b8173ffffffffffffffffffffffffffffffffffffffff168373ffffffffffffffffffffffffffffffffffffffff167fddf252ad1be2c89b69c2b068fc378daa952ba7f163c4a11628f55a4df523b3ef836040516132b09190613535565b60405180910390a3505050565b5f81519050919050565b5f82825260208201905092915050565b8281835e5f83830152505050565b5f601f19601f8301169050919050565b5f6132ff826132bd565b61330981856132c7565b93506133198185602086016132d7565b613322816132e5565b840191505092915050565b5f6020820190508181035f83015261334581846132f5565b905092915050565b5f5ffd5b5f73ffffffffffffffffffffffffffffffffffffffff82169050919050565b5f61337a82613351565b9050919050565b61338a81613370565b8114613394575f5ffd5b50565b5f813590506133a581613381565b92915050565b5f819050919050565b6133bd816133ab565b81146133c7575f5ffd5b50565b5f813590506133d8816133b4565b92915050565b5f5f604083850312156133f4576133f361334d565b5b5f61340185828601613397565b9250506020613412858286016133ca565b9150509250929050565b5f8115159050919050565b6134308161341c565b82525050565b5f6020820190506134495f830184613427565b92915050565b6134588161341c565b8114613462575f5ffd5b50565b5f813590506134738161344f565b92915050565b5f5f6040838503121561348f5761348e61334d565b5b5f61349c85828601613397565b92505060206134ad85828601613465565b9150509250929050565b5f5f604083850312156134cd576134cc61334d565b5b5f6134da858286016133ca565b92505060206134eb858286016133ca565b9150509250929050565b5f819050919050565b613507816134f5565b82525050565b5f6020820190506135205f8301846134fe565b92915050565b61352f816133ab565b82525050565b5f6020820190506135485f830184613526565b92915050565b5f5f5f606084860312156135655761356461334d565b5b5f61357286828701613397565b935050602061358386828701613397565b9250506040613594868287016133ca565b9150509250925092565b5f60ff82169050919050565b6135b38161359e565b82525050565b5f6020820190506135cc5f8301846135aa565b92915050565b5f602082840312156135e7576135e661334d565b5b5f6135f484828501613465565b91505092915050565b5f602082840312156136125761361161334d565b5b5f61361f848285016133ca565b91505092915050565b61363181613370565b82525050565b5f60208201905061364a5f830184613628565b92915050565b5f602082840312156136655761366461334d565b5b5f61367284828501613397565b91505092915050565b613684816134f5565b811461368e575f5ffd5b50565b5f8135905061369f8161367b565b92915050565b5f602082840312156136ba576136b961334d565b5b5f6136c784828501613691565b91505092915050565b5f5f604083850312156136e6576136e561334d565b5b5f6136f385828601613397565b925050602061370485828601613397565b9150509250929050565b7f4e487b71000000000000000000000000000000000000000000000000000000005f52602260045260245ffd5b5f600282049050600182168061375257607f821691505b6020821081036137655761376461370e565b5b50919050565b7f616374696f6e206e6f74207175657565640000000000000000000000000000005f82015250565b5f61379f6011836132c7565b91506137aa8261376b565b602082019050919050565b5f6020820190508181035f8301526137cc81613793565b9050919050565b7f4e487b71000000000000000000000000000000000000000000000000000000005f52601160045260245ffd5b5f61380a826133ab565b9150613815836133ab565b925082820190508082111561382d5761382c6137d3565b5b92915050565b7f74696d656c6f636b206e6f7420657870697265640000000000000000000000005f82015250565b5f6138676014836132c7565b915061387282613833565b602082019050919050565b5f6020820190508181035f8301526138948161385b565b9050919050565b7f706169722063616e6e6f74206265207a65726f206164647265737300000000005f82015250565b5f6138cf601b836132c7565b91506138da8261389b565b602082019050919050565b5f6020820190508181035f8301526138fc816138c3565b9050919050565b7f746f74616c2066656520746f6f206869676800000000000000000000000000005f82015250565b5f6139376012836132c7565b915061394282613903565b602082019050919050565b5f6020820190508181035f8301526139648161392b565b9050919050565b5f60408201905061397e5f830185613526565b61398b6020830184613526565b9392505050565b7f73657446656573000000000000000000000000000000000000000000000000005f82015250565b5f6139c66007836132c7565b91506139d182613992565b602082019050919050565b5f6060820190508181035f8301526139f3816139ba565b9050613a026020830185613526565b613a0f6040830184613526565b9392505050565b7f7365744578636c7564656446726f6d416e7469426f74000000000000000000005f82015250565b5f613a4a6016836132c7565b9150613a5582613a16565b602082019050919050565b5f6060820190508181035f830152613a7781613a3e565b9050613a866020830185613628565b613a936040830184613427565b9392505050565b7f65786365656473204d41585f535550504c5900000000000000000000000000005f82015250565b5f613ace6012836132c7565b9150613ad982613a9a565b602082019050919050565b5f6020820190508181035f830152613afb81613ac2565b9050919050565b7f736574416d6d50616972000000000000000000000000000000000000000000005f82015250565b5f613b36600a836132c7565b9150613b4182613b02565b602082019050919050565b5f6060820190508181035f830152613b6381613b2a565b9050613b726020830185613628565b613b7f6040830184613427565b9392505050565b7f7365744c696d697473456e61626c6564000000000000000000000000000000005f82015250565b5f613bba6010836132c7565b9150613bc582613b86565b602082019050919050565b5f6040820190508181035f830152613be781613bae565b9050613bf66020830184613427565b92915050565b7f7365744578636c7564656446726f6d4c696d69747300000000000000000000005f82015250565b5f613c306015836132c7565b9150613c3b82613bfc565b602082019050919050565b5f6060820190508181035f830152613c5d81613c24565b9050613c6c6020830185613628565b613c796040830184613427565b9392505050565b7f736574547265617375727957616c6c65740000000000000000000000000000005f82015250565b5f613cb46011836132c7565b9150613cbf82613c80565b602082019050919050565b5f6040820190508181035f830152613ce181613ca8565b9050613cf06020830184613628565b92915050565b7f6e6f7420717565756564000000000000000000000000000000000000000000005f82015250565b5f613d2a600a836132c7565b9150613d3582613cf6565b602082019050919050565b5f6020820190508181035f830152613d5781613d1e565b9050919050565b7f7365744c696d69747300000000000000000000000000000000000000000000005f82015250565b5f613d926009836132c7565b9150613d9d82613d5e565b602082019050919050565b5f6060820190508181035f830152613dbf81613d86565b9050613dce6020830185613526565b613ddb6040830184613526565b9392505050565b7f74726561737572792063616e6e6f74206265207a65726f2061646472657373005f82015250565b5f613e16601f836132c7565b9150613e2182613de2565b602082019050919050565b5f6020820190508181035f830152613e4381613e0a565b9050919050565b7f6d696e74000000000000000000000000000000000000000000000000000000005f82015250565b5f613e7e6004836132c7565b9150613e8982613e4a565b602082019050919050565b5f6060820190508181035f830152613eab81613e72565b9050613eba6020830185613628565b613ec76040830184613526565b9392505050565b7f7365744578636c7564656446726f6d46656500000000000000000000000000005f82015250565b5f613f026012836132c7565b9150613f0d82613ece565b602082019050919050565b5f6060820190508181035f830152613f2f81613ef6565b9050613f3e6020830185613628565b613f4b6040830184613427565b9392505050565b7f7472616e736665724f776e6572736869700000000000000000000000000000005f82015250565b5f613f866011836132c7565b9150613f9182613f52565b602082019050919050565b5f6040820190508181035f830152613fb381613f7a565b9050613fc26020830184613628565b92915050565b5f613fd2826133ab565b9150613fdd836133ab565b9250828202613feb816133ab565b91508282048414831517614002576140016137d3565b5b5092915050565b7f4e487b71000000000000000000000000000000000000000000000000000000005f52601260045260245ffd5b5f614040826133ab565b915061404b836133ab565b92508261405b5761405a614009565b5b828204905092915050565b7f6d617854782062656c6f7720666c6f6f720000000000000000000000000000005f82015250565b5f61409a6011836132c7565b91506140a582614066565b602082019050919050565b5f6020820190508181035f8301526140c78161408e565b9050919050565b7f6d617857616c6c65742062656c6f7720666c6f6f7200000000000000000000005f82015250565b5f6141026015836132c7565b915061410d826140ce565b602082019050919050565b5f6020820190508181035f83015261412f816140f6565b9050919050565b7f73657453616d65426c6f636b4775617264456e61626c656400000000000000005f82015250565b5f61416a6018836132c7565b915061417582614136565b602082019050919050565b5f6040820190508181035f8301526141978161415e565b90506141a66020830184613427565b92915050565b7f616c7265616479207175657565640000000000000000000000000000000000005f82015250565b5f6141e0600e836132c7565b91506141eb826141ac565b602082019050919050565b5f6020820190508181035f83015261420d816141d4565b9050919050565b5f6060820190506142275f830186613628565b6142346020830185613526565b6142416040830184613526565b949350505050565b7f7472616e736665722065786365656473206d61785478416d6f756e74000000005f82015250565b5f61427d601c836132c7565b915061428882614249565b602082019050919050565b5f6020820190508181035f8301526142aa81614271565b9050919050565b7f7472616e736665722065786365656473206d617857616c6c6574416d6f756e745f82015250565b5f6142e56020836132c7565b91506142f0826142b1565b602082019050919050565b5f6020820190508181035f830152614312816142d9565b9050919050565b7f6f6e652074726164652070657220626c6f636b000000000000000000000000005f82015250565b5f61434d6013836132c7565b915061435882614319565b602082019050919050565b5f6020820190508181035f83015261437a81614341565b9050919050565b5f61438b826133ab565b9150614396836133ab565b92508282039050818111156143ae576143ad6137d3565b5b9291505056fea2646970667358221220d21438f6fe76aed23dda78b32420febf69cdb98b2aa1d073df26b57736a10b0364736f6c63430008220033",
			"opcodes": "PUSH1 0x80 PUSH1 0x40 MSTORE PUSH1 0xC8 PUSH1 0x6 SSTORE PUSH2 0x12C PUSH1 0x7 SSTORE PUSH1 0x64 PUSH12 0x33B2E3C9FD0803CE8000000 PUSH2 0x28 SWAP2 SWAP1 PUSH2 0x1015 JUMP JUMPDEST PUSH1 0xB SSTORE PUSH1 0x64 PUSH12 0x33B2E3C9FD0803CE8000000 PUSH2 0x44 SWAP2 SWAP1 PUSH2 0x1015 JUMP JUMPDEST PUSH1 0xC SSTORE PUSH1 0x1 PUSH1 0xD PUSH0 PUSH2 0x100 EXP DUP2 SLOAD DUP2 PUSH1 0xFF MUL NOT AND SWAP1 DUP4 ISZERO ISZERO MUL OR SWAP1 SSTORE POP PUSH1 0x1 PUSH1 0xF PUSH0 PUSH2 0x100 EXP DUP2 SLOAD DUP2 PUSH1 0xFF MUL NOT AND SWAP1 DUP4 ISZERO ISZERO MUL OR SWAP1 SSTORE POP CALLVALUE DUP1 ISZERO PUSH2 0x86 JUMPI PUSH0 PUSH0 REVERT JUMPDEST POP PUSH1 0x40 MLOAD PUSH2 0x5AC8 CODESIZE SUB DUP1 PUSH2 0x5AC8 DUP4 CODECOPY DUP2 DUP2 ADD PUSH1 0x40 MSTORE DUP2 ADD SWAP1 PUSH2 0xA8 SWAP2 SWAP1 PUSH2 0x10A3 JUMP JUMPDEST DUP1 PUSH1 0x40 MLOAD DUP1 PUSH1 0x40 ADD PUSH1 0x40 MSTORE DUP1 PUSH1 0x5 DUP2 MSTORE PUSH1 0x20 ADD PUSH32 0x53746F726D000000000000000000000000000000000000000000000000000000 DUP2 MSTORE POP PUSH1 0x40 MLOAD DUP1 PUSH1 0x40 ADD PUSH1 0x40 MSTORE DUP1 PUSH1 0x5 DUP2 MSTORE PUSH1 0x20 ADD PUSH32 0x53544F524D000000000000000000000000000000000000000000000000000000 DUP2 MSTORE POP DUP2 PUSH1 0x3 SWAP1 DUP2 PUSH2 0x124 SWAP2 SWAP1 PUSH2 0x1326 JUMP JUMPDEST POP DUP1 PUSH1 0x4 SWAP1 DUP2 PUSH2 0x134 SWAP2 SWAP1 PUSH2 0x1326 JUMP JUMPDEST POP POP POP PUSH0 PUSH20 0xFFFFFFFFFFFFFFFFFFFFFFFFFFFFFFFFFFFFFFFF AND DUP2 PUSH20 0xFFFFFFFFFFFFFFFFFFFFFFFFFFFFFFFFFFFFFFFF AND SUB PUSH2 0x1A7 JUMPI PUSH0 PUSH1 0x40 MLOAD PUSH32 0x1E4FBDF700000000000000000000000000000000000000000000000000000000 DUP2 MSTORE PUSH1 0x4 ADD PUSH2 0x19E SWAP2 SWAP1 PUSH2 0x1404 JUMP JUMPDEST PUSH1 0x40 MLOAD DUP1 SWAP2 SUB SWAP1 REVERT JUMPDEST PUSH2 0x1B6 DUP2 PUSH2 0x591 PUSH1 0x20 SHL PUSH1 0x20 SHR JUMP JUMPDEST POP PUSH0 PUSH20 0xFFFFFFFFFFFFFFFFFFFFFFFFFFFFFFFFFFFFFFFF AND DUP3 PUSH20 0xFFFFFFFFFFFFFFFFFFFFFFFFFFFFFFFFFFFFFFFF AND SUB PUSH2 0x225 JUMPI PUSH1 0x40 MLOAD PUSH32 0x8C379A000000000000000000000000000000000000000000000000000000000 DUP2 MSTORE PUSH1 0x4 ADD PUSH2 0x21C SWAP1 PUSH2 0x1477 JUMP JUMPDEST PUSH1 0x40 MLOAD DUP1 SWAP2 SUB SWAP1 REVERT JUMPDEST DUP2 PUSH1 0x8 PUSH0 PUSH2 0x100 EXP DUP2 SLOAD DUP2 PUSH20 0xFFFFFFFFFFFFFFFFFFFFFFFFFFFFFFFFFFFFFFFF MUL NOT AND SWAP1 DUP4 PUSH20 0xFFFFFFFFFFFFFFFFFFFFFFFFFFFFFFFFFFFFFFFF AND MUL OR SWAP1 SSTORE POP PUSH2 0x28D DUP2 PUSH1 0x2 PUSH12 0x33B2E3C9FD0803CE8000000 PUSH2 0x282 SWAP2 SWAP1 PUSH2 0x1015 JUMP JUMPDEST PUSH2 0x654 PUSH1 0x20 SHL PUSH1 0x20 SHR JUMP JUMPDEST PUSH1 0x1 PUSH1 0xA PUSH0 DUP4 PUSH20 0xFFFFFFFFFFFFFFFFFFFFFFFFFFFFFFFFFFFFFFFF AND PUSH20 0xFFFFFFFFFFFFFFFFFFFFFFFFFFFFFFFFFFFFFFFF AND DUP2 MSTORE PUSH1 0x20 ADD SWAP1 DUP2 MSTORE PUSH1 0x20 ADD PUSH0 KECCAK256 PUSH0 PUSH2 0x100 EXP DUP2 SLOAD DUP2 PUSH1 0xFF MUL NOT AND SWAP1 DUP4 ISZERO ISZERO MUL OR SWAP1 SSTORE POP PUSH1 0x1 PUSH1 0xA PUSH0 DUP5 PUSH20 0xFFFFFFFFFFFFFFFFFFFFFFFFFFFFFFFFFFFFFFFF AND PUSH20 0xFFFFFFFFFFFFFFFFFFFFFFFFFFFFFFFFFFFFFFFF AND DUP2 MSTORE PUSH1 0x20 ADD SWAP1 DUP2 MSTORE PUSH1 0x20 ADD PUSH0 KECCAK256 PUSH0 PUSH2 0x100 EXP DUP2 SLOAD DUP2 PUSH1 0xFF MUL NOT AND SWAP1 DUP4 ISZERO ISZERO MUL OR SWAP1 SSTORE POP PUSH1 0x1 PUSH1 0xA PUSH0 ADDRESS PUSH20 0xFFFFFFFFFFFFFFFFFFFFFFFFFFFFFFFFFFFFFFFF AND PUSH20 0xFFFFFFFFFFFFFFFFFFFFFFFFFFFFFFFFFFFFFFFF AND DUP2 MSTORE PUSH1 0x20 ADD SWAP1 DUP2 MSTORE PUSH1 0x20 ADD PUSH0 KECCAK256 PUSH0 PUSH2 0x100 EXP DUP2 SLOAD DUP2 PUSH1 0xFF MUL NOT AND SWAP1 DUP4 ISZERO ISZERO MUL OR SWAP1 SSTORE POP PUSH1 0x1 PUSH1 0xE PUSH0 DUP4 PUSH20 0xFFFFFFFFFFFFFFFFFFFFFFFFFFFFFFFFFFFFFFFF AND PUSH20 0xFFFFFFFFFFFFFFFFFFFFFFFFFFFFFFFFFFFFFFFF AND DUP2 MSTORE PUSH1 0x20 ADD SWAP1 DUP2 MSTORE PUSH1 0x20 ADD PUSH0 KECCAK256 PUSH0 PUSH2 0x100 EXP DUP2 SLOAD DUP2 PUSH1 0xFF MUL NOT AND SWAP1 DUP4 ISZERO ISZERO MUL OR SWAP1 SSTORE POP PUSH1 0x1 PUSH1 0xE PUSH0 DUP5 PUSH20 0xFFFFFFFFFFFFFFFFFFFFFFFFFFFFFFFFFFFFFFFF AND PUSH20 0xFFFFFFFFFFFFFFFFFFFFFFFFFFFFFFFFFFFFFFFF AND DUP2 MSTORE PUSH1 0x20 ADD SWAP1 DUP2 MSTORE PUSH1 0x20 ADD PUSH0 KECCAK256 PUSH0 PUSH2 0x100 EXP DUP2 SLOAD DUP2 PUSH1 0xFF MUL NOT AND SWAP1 DUP4 ISZERO ISZERO MUL OR SWAP1 SSTORE POP PUSH1 0x1 PUSH1 0xE PUSH0 ADDRESS PUSH20 0xFFFFFFFFFFFFFFFFFFFFFFFFFFFFFFFFFFFFFFFF AND PUSH20 0xFFFFFFFFFFFFFFFFFFFFFFFFFFFFFFFFFFFFFFFF AND DUP2 MSTORE PUSH1 0x20 ADD SWAP1 DUP2 MSTORE PUSH1 0x20 ADD PUSH0 KECCAK256 PUSH0 PUSH2 0x100 EXP DUP2 SLOAD DUP2 PUSH1 0xFF MUL NOT AND SWAP1 DUP4 ISZERO ISZERO MUL OR SWAP1 SSTORE POP PUSH1 0x1 PUSH1 0x11 PUSH0 DUP4 PUSH20 0xFFFFFFFFFFFFFFFFFFFFFFFFFFFFFFFFFFFFFFFF AND PUSH20 0xFFFFFFFFFFFFFFFFFFFFFFFFFFFFFFFFFFFFFFFF AND DUP2 MSTORE PUSH1 0x20 ADD SWAP1 DUP2 MSTORE PUSH1 0x20 ADD PUSH0 KECCAK256 PUSH0 PUSH2 0x100 EXP DUP2 SLOAD DUP2 PUSH1 0xFF MUL NOT AND SWAP1 DUP4 ISZERO ISZERO MUL OR SWAP1 SSTORE POP PUSH1 0x1 PUSH1 0x11 PUSH0 DUP5 PUSH20 0xFFFFFFFFFFFFFFFFFFFFFFFFFFFFFFFFFFFFFFFF AND PUSH20 0xFFFFFFFFFFFFFFFFFFFFFFFFFFFFFFFFFFFFFFFF AND DUP2 MSTORE PUSH1 0x20 ADD SWAP1 DUP2 MSTORE PUSH1 0x20 ADD PUSH0 KECCAK256 PUSH0 PUSH2 0x100 EXP DUP2 SLOAD DUP2 PUSH1 0xFF MUL NOT AND SWAP1 DUP4 ISZERO ISZERO MUL OR SWAP1 SSTORE POP PUSH1 0x1 PUSH1 0x11 PUSH0 ADDRESS PUSH20 0xFFFFFFFFFFFFFFFFFFFFFFFFFFFFFFFFFFFFFFFF AND PUSH20 0xFFFFFFFFFFFFFFFFFFFFFFFFFFFFFFFFFFFFFFFF AND DUP2 MSTORE PUSH1 0x20 ADD SWAP1 DUP2 MSTORE PUSH1 0x20 ADD PUSH0 KECCAK256 PUSH0 PUSH2 0x100 EXP DUP2 SLOAD DUP2 PUSH1 0xFF MUL NOT AND SWAP1 DUP4 ISZERO ISZERO MUL OR SWAP1 SSTORE POP POP POP PUSH2 0x16D1 JUMP JUMPDEST PUSH0 PUSH1 0x5 PUSH0 SWAP1 SLOAD SWAP1 PUSH2 0x100 EXP SWAP1 DIV PUSH20 0xFFFFFFFFFFFFFFFFFFFFFFFFFFFFFFFFFFFFFFFF AND SWAP1 POP DUP2 PUSH1 0x5 PUSH0 PUSH2 0x100 EXP DUP2 SLOAD DUP2 PUSH20 0xFFFFFFFFFFFFFFFFFFFFFFFFFFFFFFFFFFFFFFFF MUL NOT AND SWAP1 DUP4 PUSH20 0xFFFFFFFFFFFFFFFFFFFFFFFFFFFFFFFFFFFFFFFF AND MUL OR SWAP1 SSTORE POP DUP2 PUSH20 0xFFFFFFFFFFFFFFFFFFFFFFFFFFFFFFFFFFFFFFFF AND DUP2 PUSH20 0xFFFFFFFFFFFFFFFFFFFFFFFFFFFFFFFFFFFFFFFF AND PUSH32 0x8BE0079C531659141344CD1FD0A4F28419497F9722A3DAAFE3B4186F6B6457E0 PUSH1 0x40 MLOAD PUSH1 0x40 MLOAD DUP1 SWAP2 SUB SWAP1 LOG3 POP POP JUMP JUMPDEST PUSH0 PUSH20 0xFFFFFFFFFFFFFFFFFFFFFFFFFFFFFFFFFFFFFFFF AND DUP3 PUSH20 0xFFFFFFFFFFFFFFFFFFFFFFFFFFFFFFFFFFFFFFFF AND SUB PUSH2 0x6C4 JUMPI PUSH0 PUSH1 0x40 MLOAD PUSH32 0xEC442F0500000000000000000000000000000000000000000000000000000000 DUP2 MSTORE PUSH1 0x4 ADD PUSH2 0x6BB SWAP2 SWAP1 PUSH2 0x1404 JUMP JUMPDEST PUSH1 0x40 MLOAD DUP1 SWAP2 SUB SWAP1 REVERT JUMPDEST PUSH2 0x6D5 PUSH0 DUP4 DUP4 PUSH2 0x6D9 PUSH1 0x20 SHL PUSH1 0x20 SHR JUMP JUMPDEST POP POP JUMP JUMPDEST PUSH0 PUSH0 PUSH20 0xFFFFFFFFFFFFFFFFFFFFFFFFFFFFFFFFFFFFFFFF AND DUP5 PUSH20 0xFFFFFFFFFFFFFFFFFFFFFFFFFFFFFFFFFFFFFFFF AND EQ DUP1 PUSH2 0x73F JUMPI POP PUSH0 PUSH20 0xFFFFFFFFFFFFFFFFFFFFFFFFFFFFFFFFFFFFFFFF AND DUP4 PUSH20 0xFFFFFFFFFFFFFFFFFFFFFFFFFFFFFFFFFFFFFFFF AND EQ JUMPDEST SWAP1 POP PUSH1 0xD PUSH0 SWAP1 SLOAD SWAP1 PUSH2 0x100 EXP SWAP1 DIV PUSH1 0xFF AND DUP1 ISZERO PUSH2 0x75A JUMPI POP DUP1 ISZERO JUMPDEST ISZERO PUSH2 0x8F6 JUMPI PUSH1 0xE PUSH0 DUP6 PUSH20 0xFFFFFFFFFFFFFFFFFFFFFFFFFFFFFFFFFFFFFFFF AND PUSH20 0xFFFFFFFFFFFFFFFFFFFFFFFFFFFFFFFFFFFFFFFF AND DUP2 MSTORE PUSH1 0x20 ADD SWAP1 DUP2 MSTORE PUSH1 0x20 ADD PUSH0 KECCAK256 PUSH0 SWAP1 SLOAD SWAP1 PUSH2 0x100 EXP SWAP1 DIV PUSH1 0xFF AND ISZERO DUP1 ISZERO PUSH2 0x7FD JUMPI POP PUSH1 0xE PUSH0 DUP5 PUSH20 0xFFFFFFFFFFFFFFFFFFFFFFFFFFFFFFFFFFFFFFFF AND PUSH20 0xFFFFFFFFFFFFFFFFFFFFFFFFFFFFFFFFFFFFFFFF AND DUP2 MSTORE PUSH1 0x20 ADD SWAP1 DUP2 MSTORE PUSH1 0x20 ADD PUSH0 KECCAK256 PUSH0 SWAP1 SLOAD SWAP1 PUSH2 0x100 EXP SWAP1 DIV PUSH1 0xFF AND ISZERO JUMPDEST ISZERO PUSH2 0x848 JUMPI PUSH1 0xB SLOAD DUP3 GT ISZERO PUSH2 0x847 JUMPI PUSH1 0x40 MLOAD PUSH32 0x8C379A000000000000000000000000000000000000000000000000000000000 DUP2 MSTORE PUSH1 0x4 ADD PUSH2 0x83E SWAP1 PUSH2 0x14DF JUMP JUMPDEST PUSH1 0x40 MLOAD DUP1 SWAP2 SUB SWAP1 REVERT JUMPDEST JUMPDEST PUSH1 0xE PUSH0 DUP5 PUSH20 0xFFFFFFFFFFFFFFFFFFFFFFFFFFFFFFFFFFFFFFFF AND PUSH20 0xFFFFFFFFFFFFFFFFFFFFFFFFFFFFFFFFFFFFFFFF AND DUP2 MSTORE PUSH1 0x20 ADD SWAP1 DUP2 MSTORE PUSH1 0x20 ADD PUSH0 KECCAK256 PUSH0 SWAP1 SLOAD SWAP1 PUSH2 0x100 EXP SWAP1 DIV PUSH1 0xFF AND PUSH2 0x8F5 JUMPI PUSH1 0xC SLOAD DUP3 PUSH2 0x8A9 DUP6 PUSH2 0xD54 PUSH1 0x20 SHL PUSH1 0x20 SHR JUMP JUMPDEST PUSH2 0x8B3 SWAP2 SWAP1 PUSH2 0x14FD JUMP JUMPDEST GT ISZERO PUSH2 0x8F4 JUMPI PUSH1 0x40 MLOAD PUSH32 0x8C379A000000000000000000000000000000000000000000000000000000000 DUP2 MSTORE PUSH1 0x4 ADD PUSH2 0x8EB SWAP1 PUSH2 0x157A JUMP JUMPDEST PUSH1 0x40 MLOAD DUP1 SWAP2 SUB SWAP1 REVERT JUMPDEST JUMPDEST JUMPDEST PUSH0 DUP2 ISZERO DUP1 ISZERO PUSH2 0x99C JUMPI POP PUSH1 0x9 PUSH0 DUP7 PUSH20 0xFFFFFFFFFFFFFFFFFFFFFFFFFFFFFFFFFFFFFFFF AND PUSH20 0xFFFFFFFFFFFFFFFFFFFFFFFFFFFFFFFFFFFFFFFF AND DUP2 MSTORE PUSH1 0x20 ADD SWAP1 DUP2 MSTORE PUSH1 0x20 ADD PUSH0 KECCAK256 PUSH0 SWAP1 SLOAD SWAP1 PUSH2 0x100 EXP SWAP1 DIV PUSH1 0xFF AND DUP1 PUSH2 0x99B JUMPI POP PUSH1 0x9 PUSH0 DUP6 PUSH20 0xFFFFFFFFFFFFFFFFFFFFFFFFFFFFFFFFFFFFFFFF AND PUSH20 0xFFFFFFFFFFFFFFFFFFFFFFFFFFFFFFFFFFFFFFFF AND DUP2 MSTORE PUSH1 0x20 ADD SWAP1 DUP2 MSTORE PUSH1 0x20 ADD PUSH0 KECCAK256 PUSH0 SWAP1 SLOAD SWAP1 PUSH2 0x100 EXP SWAP1 DIV PUSH1 0xFF AND JUMPDEST JUMPDEST DUP1 ISZERO PUSH2 0x9EF JUMPI POP PUSH1 0xA PUSH0 DUP7 PUSH20 0xFFFFFFFFFFFFFFFFFFFFFFFFFFFFFFFFFFFFFFFF AND PUSH20 0xFFFFFFFFFFFFFFFFFFFFFFFFFFFFFFFFFFFFFFFF AND DUP2 MSTORE PUSH1 0x20 ADD SWAP1 DUP2 MSTORE PUSH1 0x20 ADD PUSH0 KECCAK256 PUSH0 SWAP1 SLOAD SWAP1 PUSH2 0x100 EXP SWAP1 DIV PUSH1 0xFF AND ISZERO JUMPDEST DUP1 ISZERO PUSH2 0xA42 JUMPI POP PUSH1 0xA PUSH0 DUP6 PUSH20 0xFFFFFFFFFFFFFFFFFFFFFFFFFFFFFFFFFFFFFFFF AND PUSH20 0xFFFFFFFFFFFFFFFFFFFFFFFFFFFFFFFFFFFFFFFF AND DUP2 MSTORE PUSH1 0x20 ADD SWAP1 DUP2 MSTORE PUSH1 0x20 ADD PUSH0 KECCAK256 PUSH0 SWAP1 SLOAD SWAP1 PUSH2 0x100 EXP SWAP1 DIV PUSH1 0xFF AND ISZERO JUMPDEST SWAP1 POP PUSH1 0xF PUSH0 SWAP1 SLOAD SWAP1 PUSH2 0x100 EXP SWAP1 DIV PUSH1 0xFF AND DUP1 ISZERO PUSH2 0xA5D JUMPI POP DUP2 ISZERO JUMPDEST DUP1 ISZERO PUSH2 0xB00 JUMPI POP PUSH1 0x9 PUSH0 DUP7 PUSH20 0xFFFFFFFFFFFFFFFFFFFFFFFFFFFFFFFFFFFFFFFF AND PUSH20 0xFFFFFFFFFFFFFFFFFFFFFFFFFFFFFFFFFFFFFFFF AND DUP2 MSTORE PUSH1 0x20 ADD SWAP1 DUP2 MSTORE PUSH1 0x20 ADD PUSH0 KECCAK256 PUSH0 SWAP1 SLOAD SWAP1 PUSH2 0x100 EXP SWAP1 DIV PUSH1 0xFF AND DUP1 PUSH2 0xAFF JUMPI POP PUSH1 0x9 PUSH0 DUP6 PUSH20 0xFFFFFFFFFFFFFFFFFFFFFFFFFFFFFFFFFFFFFFFF AND PUSH20 0xFFFFFFFFFFFFFFFFFFFFFFFFFFFFFFFFFFFFFFFF AND DUP2 MSTORE PUSH1 0x20 ADD SWAP1 DUP2 MSTORE PUSH1 0x20 ADD PUSH0 KECCAK256 PUSH0 SWAP1 SLOAD SWAP1 PUSH2 0x100 EXP SWAP1 DIV PUSH1 0xFF AND JUMPDEST JUMPDEST ISZERO PUSH2 0xC70 JUMPI PUSH0 PUSH1 0x9 PUSH0 DUP8 PUSH20 0xFFFFFFFFFFFFFFFFFFFFFFFFFFFFFFFFFFFFFFFF AND PUSH20 0xFFFFFFFFFFFFFFFFFFFFFFFFFFFFFFFFFFFFFFFF AND DUP2 MSTORE PUSH1 0x20 ADD SWAP1 DUP2 MSTORE PUSH1 0x20 ADD PUSH0 KECCAK256 PUSH0 SWAP1 SLOAD SWAP1 PUSH2 0x100 EXP SWAP1 DIV PUSH1 0xFF AND PUSH2 0xB5A JUMPI DUP6 PUSH2 0xB5C JUMP JUMPDEST DUP5 JUMPDEST SWAP1 POP PUSH1 0x11 PUSH0 DUP3 PUSH20 0xFFFFFFFFFFFFFFFFFFFFFFFFFFFFFFFFFFFFFFFF AND PUSH20 0xFFFFFFFFFFFFFFFFFFFFFFFFFFFFFFFFFFFFFFFF AND DUP2 MSTORE PUSH1 0x20 ADD SWAP1 DUP2 MSTORE PUSH1 0x20 ADD PUSH0 KECCAK256 PUSH0 SWAP1 SLOAD SWAP1 PUSH2 0x100 EXP SWAP1 DIV PUSH1 0xFF AND PUSH2 0xC6E JUMPI NUMBER PUSH1 0x10 PUSH0 DUP4 PUSH20 0xFFFFFFFFFFFFFFFFFFFFFFFFFFFFFFFFFFFFFFFF AND PUSH20 0xFFFFFFFFFFFFFFFFFFFFFFFFFFFFFFFFFFFFFFFF AND DUP2 MSTORE PUSH1 0x20 ADD SWAP1 DUP2 MSTORE PUSH1 0x20 ADD PUSH0 KECCAK256 SLOAD SUB PUSH2 0xC2B JUMPI PUSH1 0x40 MLOAD PUSH32 0x8C379A000000000000000000000000000000000000000000000000000000000 DUP2 MSTORE PUSH1 0x4 ADD PUSH2 0xC22 SWAP1 PUSH2 0x15E2 JUMP JUMPDEST PUSH1 0x40 MLOAD DUP1 SWAP2 SUB SWAP1 REVERT JUMPDEST NUMBER PUSH1 0x10 PUSH0 DUP4 PUSH20 0xFFFFFFFFFFFFFFFFFFFFFFFFFFFFFFFFFFFFFFFF AND PUSH20 0xFFFFFFFFFFFFFFFFFFFFFFFFFFFFFFFFFFFFFFFF AND DUP2 MSTORE PUSH1 0x20 ADD SWAP1 DUP2 MSTORE PUSH1 0x20 ADD PUSH0 KECCAK256 DUP2 SWAP1 SSTORE POP JUMPDEST POP JUMPDEST DUP1 PUSH2 0xC8D JUMPI PUSH2 0xC86 DUP6 DUP6 DUP6 PUSH2 0xD99 PUSH1 0x20 SHL PUSH1 0x20 SHR JUMP JUMPDEST POP POP PUSH2 0xD4F JUMP JUMPDEST PUSH0 PUSH2 0x2710 PUSH1 0x6 SLOAD DUP6 PUSH2 0xC9F SWAP2 SWAP1 PUSH2 0x1600 JUMP JUMPDEST PUSH2 0xCA9 SWAP2 SWAP1 PUSH2 0x1015 JUMP JUMPDEST SWAP1 POP PUSH0 PUSH2 0x2710 PUSH1 0x7 SLOAD DUP7 PUSH2 0xCBD SWAP2 SWAP1 PUSH2 0x1600 JUMP JUMPDEST PUSH2 0xCC7 SWAP2 SWAP1 PUSH2 0x1015 JUMP JUMPDEST SWAP1 POP PUSH0 DUP2 DUP4 DUP8 PUSH2 0xCD7 SWAP2 SWAP1 PUSH2 0x1641 JUMP JUMPDEST PUSH2 0xCE1 SWAP2 SWAP1 PUSH2 0x1641 JUMP JUMPDEST SWAP1 POP PUSH0 DUP4 GT ISZERO PUSH2 0xCFD JUMPI PUSH2 0xCFC DUP9 PUSH0 DUP6 PUSH2 0xD99 PUSH1 0x20 SHL PUSH1 0x20 SHR JUMP JUMPDEST JUMPDEST PUSH0 DUP3 GT ISZERO PUSH2 0xD38 JUMPI PUSH2 0xD37 DUP9 PUSH1 0x8 PUSH0 SWAP1 SLOAD SWAP1 PUSH2 0x100 EXP SWAP1 DIV PUSH20 0xFFFFFFFFFFFFFFFFFFFFFFFFFFFFFFFFFFFFFFFF AND DUP5 PUSH2 0xD99 PUSH1 0x20 SHL PUSH1 0x20 SHR JUMP JUMPDEST JUMPDEST PUSH2 0xD49 DUP9 DUP9 DUP4 PUSH2 0xD99 PUSH1 0x20 SHL PUSH1 0x20 SHR JUMP JUMPDEST POP POP POP POP POP JUMPDEST POP POP POP JUMP JUMPDEST PUSH0 PUSH0 PUSH0 DUP4 PUSH20 0xFFFFFFFFFFFFFFFFFFFFFFFFFFFFFFFFFFFFFFFF AND PUSH20 0xFFFFFFFFFFFFFFFFFFFFFFFFFFFFFFFFFFFFFFFF AND DUP2 MSTORE PUSH1 0x20 ADD SWAP1 DUP2 MSTORE PUSH1 0x20 ADD PUSH0 KECCAK256 SLOAD SWAP1 POP SWAP2 SWAP1 POP JUMP JUMPDEST PUSH0 PUSH20 0xFFFFFFFFFFFFFFFFFFFFFFFFFFFFFFFFFFFFFFFF AND DUP4 PUSH20 0xFFFFFFFFFFFFFFFFFFFFFFFFFFFFFFFFFFFFFFFF AND SUB PUSH2 0xDE9 JUMPI DUP1 PUSH1 0x2 PUSH0 DUP3 DUP3 SLOAD PUSH2 0xDDD SWAP2 SWAP1 PUSH2 0x14FD JUMP JUMPDEST SWAP3 POP POP DUP2 SWAP1 SSTORE POP PUSH2 0xEB7 JUMP JUMPDEST PUSH0 PUSH0 PUSH0 DUP6 PUSH20 0xFFFFFFFFFFFFFFFFFFFFFFFFFFFFFFFFFFFFFFFF AND PUSH20 0xFFFFFFFFFFFFFFFFFFFFFFFFFFFFFFFFFFFFFFFF AND DUP2 MSTORE PUSH1 0x20 ADD SWAP1 DUP2 MSTORE PUSH1 0x20 ADD PUSH0 KECCAK256 SLOAD SWAP1 POP DUP2 DUP2 LT ISZERO PUSH2 0xE72 JUMPI DUP4 DUP2 DUP4 PUSH1 0x40 MLOAD PUSH32 0xE450D38C00000000000000000000000000000000000000000000000000000000 DUP2 MSTORE PUSH1 0x4 ADD PUSH2 0xE69 SWAP4 SWAP3 SWAP2 SWAP1 PUSH2 0x1683 JUMP JUMPDEST PUSH1 0x40 MLOAD DUP1 SWAP2 SUB SWAP1 REVERT JUMPDEST DUP2 DUP2 SUB PUSH0 PUSH0 DUP7 PUSH20 0xFFFFFFFFFFFFFFFFFFFFFFFFFFFFFFFFFFFFFFFF AND PUSH20 0xFFFFFFFFFFFFFFFFFFFFFFFFFFFFFFFFFFFFFFFF AND DUP2 MSTORE PUSH1 0x20 ADD SWAP1 DUP2 MSTORE PUSH1 0x20 ADD PUSH0 KECCAK256 DUP2 SWAP1 SSTORE POP POP JUMPDEST PUSH0 PUSH20 0xFFFFFFFFFFFFFFFFFFFFFFFFFFFFFFFFFFFFFFFF AND DUP3 PUSH20 0xFFFFFFFFFFFFFFFFFFFFFFFFFFFFFFFFFFFFFFFF AND SUB PUSH2 0xEFE JUMPI DUP1 PUSH1 0x2 PUSH0 DUP3 DUP3 SLOAD SUB SWAP3 POP POP DUP2 SWAP1 SSTORE POP PUSH2 0xF48 JUMP JUMPDEST DUP1 PUSH0 PUSH0 DUP5 PUSH20 0xFFFFFFFFFFFFFFFFFFFFFFFFFFFFFFFFFFFFFFFF AND PUSH20 0xFFFFFFFFFFFFFFFFFFFFFFFFFFFFFFFFFFFFFFFF AND DUP2 MSTORE PUSH1 0x20 ADD SWAP1 DUP2 MSTORE PUSH1 0x20 ADD PUSH0 KECCAK256 PUSH0 DUP3 DUP3 SLOAD ADD SWAP3 POP POP DUP2 SWAP1 SSTORE POP JUMPDEST DUP2 PUSH20 0xFFFFFFFFFFFFFFFFFFFFFFFFFFFFFFFFFFFFFFFF AND DUP4 PUSH20 0xFFFFFFFFFFFFFFFFFFFFFFFFFFFFFFFFFFFFFFFF AND PUSH32 0xDDF252AD1BE2C89B69C2B068FC378DAA952BA7F163C4A11628F55A4DF523B3EF DUP4 PUSH1 0x40 MLOAD PUSH2 0xFA5 SWAP2 SWAP1 PUSH2 0x16B8 JUMP JUMPDEST PUSH1 0x40 MLOAD DUP1 SWAP2 SUB SWAP1 LOG3 POP POP POP JUMP JUMPDEST PUSH0 DUP2 SWAP1 POP SWAP2 SWAP1 POP JUMP JUMPDEST PUSH32 0x4E487B7100000000000000000000000000000000000000000000000000000000 PUSH0 MSTORE PUSH1 0x12 PUSH1 0x4 MSTORE PUSH1 0x24 PUSH0 REVERT JUMPDEST PUSH32 0x4E487B7100000000000000000000000000000000000000000000000000000000 PUSH0 MSTORE PUSH1 0x11 PUSH1 0x4 MSTORE PUSH1 0x24 PUSH0 REVERT JUMPDEST PUSH0 PUSH2 0x101F DUP3 PUSH2 0xFB2 JUMP JUMPDEST SWAP2 POP PUSH2 0x102A DUP4 PUSH2 0xFB2 JUMP JUMPDEST SWAP3 POP DUP3 PUSH2 0x103A JUMPI PUSH2 0x1039 PUSH2 0xFBB JUMP JUMPDEST JUMPDEST DUP3 DUP3 DIV SWAP1 POP SWAP3 SWAP2 POP POP JUMP JUMPDEST PUSH0 PUSH0 REVERT JUMPDEST PUSH0 PUSH20 0xFFFFFFFFFFFFFFFFFFFFFFFFFFFFFFFFFFFFFFFF DUP3 AND SWAP1 POP SWAP2 SWAP1 POP JUMP JUMPDEST PUSH0 PUSH2 0x1072 DUP3 PUSH2 0x1049 JUMP JUMPDEST SWAP1 POP SWAP2 SWAP1 POP JUMP JUMPDEST PUSH2 0x1082 DUP2 PUSH2 0x1068 JUMP JUMPDEST DUP2 EQ PUSH2 0x108C JUMPI PUSH0 PUSH0 REVERT JUMPDEST POP JUMP JUMPDEST PUSH0 DUP2 MLOAD SWAP1 POP PUSH2 0x109D DUP2 PUSH2 0x1079 JUMP JUMPDEST SWAP3 SWAP2 POP POP JUMP JUMPDEST PUSH0 PUSH0 PUSH1 0x40 DUP4 DUP6 SUB SLT ISZERO PUSH2 0x10B9 JUMPI PUSH2 0x10B8 PUSH2 0x1045 JUMP JUMPDEST JUMPDEST PUSH0 PUSH2 0x10C6 DUP6 DUP3 DUP7 ADD PUSH2 0x108F JUMP JUMPDEST SWAP3 POP POP PUSH1 0x20 PUSH2 0x10D7 DUP6 DUP3 DUP7 ADD PUSH2 0x108F JUMP JUMPDEST SWAP2 POP POP SWAP3 POP SWAP3 SWAP1 POP JUMP JUMPDEST PUSH0 DUP2 MLOAD SWAP1 POP SWAP2 SWAP1 POP JUMP JUMPDEST PUSH32 0x4E487B7100000000000000000000000000000000000000000000000000000000 PUSH0 MSTORE PUSH1 0x41 PUSH1 0x4 MSTORE PUSH1 0x24 PUSH0 REVERT JUMPDEST PUSH32 0x4E487B7100000000000000000000000000000000000000000000000000000000 PUSH0 MSTORE PUSH1 0x22 PUSH1 0x4 MSTORE PUSH1 0x24 PUSH0 REVERT JUMPDEST PUSH0 PUSH1 0x2 DUP3 DIV SWAP1 POP PUSH1 0x1 DUP3 AND DUP1 PUSH2 0x115C JUMPI PUSH1 0x7F DUP3 AND SWAP2 POP JUMPDEST PUSH1 0x20 DUP3 LT DUP2 SUB PUSH2 0x116F JUMPI PUSH2 0x116E PUSH2 0x1118 JUMP JUMPDEST JUMPDEST POP SWAP2 SWAP1 POP JUMP JUMPDEST PUSH0 DUP2 SWAP1 POP DUP2 PUSH0 MSTORE PUSH1 0x20 PUSH0 KECCAK256 SWAP1 POP SWAP2 SWAP1 POP JUMP JUMPDEST PUSH0 PUSH1 0x20 PUSH1 0x1F DUP4 ADD DIV SWAP1 POP SWAP2 SWAP1 POP JUMP JUMPDEST PUSH0 DUP3 DUP3 SHL SWAP1 POP SWAP3 SWAP2 POP POP JUMP JUMPDEST PUSH0 PUSH1 0x8 DUP4 MUL PUSH2 0x11D1 PUSH32 0xFFFFFFFFFFFFFFFFFFFFFFFFFFFFFFFFFFFFFFFFFFFFFFFFFFFFFFFFFFFFFFFF DUP3 PUSH2 0x1196 JUMP JUMPDEST PUSH2 0x11DB DUP7 DUP4 PUSH2 0x1196 JUMP JUMPDEST SWAP6 POP DUP1 NOT DUP5 AND SWAP4 POP DUP1 DUP7 AND DUP5 OR SWAP3 POP POP POP SWAP4 SWAP3 POP POP POP JUMP JUMPDEST PUSH0 DUP2 SWAP1 POP SWAP2 SWAP1 POP JUMP JUMPDEST PUSH0 PUSH2 0x1216 PUSH2 0x1211 PUSH2 0x120C DUP5 PUSH2 0xFB2 JUMP JUMPDEST PUSH2 0x11F3 JUMP JUMPDEST PUSH2 0xFB2 JUMP JUMPDEST SWAP1 POP SWAP2 SWAP1 POP JUMP JUMPDEST PUSH0 DUP2 SWAP1 POP SWAP2 SWAP1 POP JUMP JUMPDEST PUSH2 0x122F DUP4 PUSH2 0x11FC JUMP JUMPDEST PUSH2 0x1243 PUSH2 0x123B DUP3 PUSH2 0x121D JUMP JUMPDEST DUP5 DUP5 SLOAD PUSH2 0x11A2 JUMP JUMPDEST DUP3 SSTORE POP POP POP POP JUMP JUMPDEST PUSH0 PUSH0 SWAP1 POP SWAP1 JUMP JUMPDEST PUSH2 0x125A PUSH2 0x124B JUMP JUMPDEST PUSH2 0x1265 DUP2 DUP5 DUP5 PUSH2 0x1226 JUMP JUMPDEST POP POP POP JUMP JUMPDEST PUSH0 JUMPDEST DUP3 DUP2 LT ISZERO PUSH2 0x128B JUMPI PUSH2 0x1280 PUSH0 DUP3 DUP5 ADD PUSH2 0x1252 JUMP JUMPDEST PUSH1 0x1 DUP2 ADD SWAP1 POP PUSH2 0x126C JUMP JUMPDEST POP POP POP JUMP JUMPDEST PUSH1 0x1F DUP3 GT ISZERO PUSH2 0x12DE JUMPI DUP3 DUP3 GT ISZERO PUSH2 0x12DD JUMPI PUSH2 0x12AA DUP2 PUSH2 0x1175 JUMP JUMPDEST PUSH2 0x12B3 DUP4 PUSH2 0x1187 JUMP JUMPDEST PUSH2 0x12BC DUP6 PUSH2 0x1187 JUMP JUMPDEST PUSH1 0x20 DUP7 LT ISZERO PUSH2 0x12C9 JUMPI PUSH0 SWAP1 POP JUMPDEST DUP1 DUP4 ADD PUSH2 0x12D8 DUP3 DUP5 SUB DUP3 PUSH2 0x126A JUMP JUMPDEST POP POP POP POP JUMPDEST JUMPDEST POP POP POP JUMP JUMPDEST PUSH0 DUP3 DUP3 SHR SWAP1 POP SWAP3 SWAP2 POP POP JUMP JUMPDEST PUSH0 PUSH2 0x12FE PUSH0 NOT DUP5 PUSH1 0x8 MUL PUSH2 0x12E3 JUMP JUMPDEST NOT DUP1 DUP4 AND SWAP2 POP POP SWAP3 SWAP2 POP POP JUMP JUMPDEST PUSH0 PUSH2 0x1316 DUP4 DUP4 PUSH2 0x12EF JUMP JUMPDEST SWAP2 POP DUP3 PUSH1 0x2 MUL DUP3 OR SWAP1 POP SWAP3 SWAP2 POP POP JUMP JUMPDEST PUSH2 0x132F DUP3 PUSH2 0x10E1 JUMP JUMPDEST PUSH8 0xFFFFFFFFFFFFFFFF DUP2 GT ISZERO PUSH2 0x1348 JUMPI PUSH2 0x1347 PUSH2 0x10EB JUMP JUMPDEST JUMPDEST PUSH2 0x1352 DUP3 SLOAD PUSH2 0x1145 JUMP JUMPDEST PUSH2 0x135D DUP3 DUP3 DUP6 PUSH2 0x1290 JUMP JUMPDEST PUSH0 PUSH1 0x20 SWAP1 POP PUSH1 0x1F DUP4 GT PUSH1 0x1 DUP2 EQ PUSH2 0x138E JUMPI PUSH0 DUP5 ISZERO PUSH2 0x137C JUMPI DUP3 DUP8 ADD MLOAD SWAP1 POP JUMPDEST PUSH2 0x1386 DUP6 DUP3 PUSH2 0x130B JUMP JUMPDEST DUP7 SSTORE POP PUSH2 0x13ED JUMP JUMPDEST PUSH1 0x1F NOT DUP5 AND PUSH2 0x139C DUP7 PUSH2 0x1175 JUMP JUMPDEST PUSH0 JUMPDEST DUP3 DUP2 LT ISZERO PUSH2 0x13C3 JUMPI DUP5 DUP10 ADD MLOAD DUP3 SSTORE PUSH1 0x1 DUP3 ADD SWAP2 POP PUSH1 0x20 DUP6 ADD SWAP5 POP PUSH1 0x20 DUP2 ADD SWAP1 POP PUSH2 0x139E JUMP JUMPDEST DUP7 DUP4 LT ISZERO PUSH2 0x13E0 JUMPI DUP5 DUP10 ADD MLOAD PUSH2 0x13DC PUSH1 0x1F DUP10 AND DUP3 PUSH2 0x12EF JUMP JUMPDEST DUP4 SSTORE POP JUMPDEST PUSH1 0x1 PUSH1 0x2 DUP9 MUL ADD DUP9 SSTORE POP POP POP JUMPDEST POP POP POP POP POP POP JUMP JUMPDEST PUSH2 0x13FE DUP2 PUSH2 0x1068 JUMP JUMPDEST DUP3 MSTORE POP POP JUMP JUMPDEST PUSH0 PUSH1 0x20 DUP3 ADD SWAP1 POP PUSH2 0x1417 PUSH0 DUP4 ADD DUP5 PUSH2 0x13F5 JUMP JUMPDEST SWAP3 SWAP2 POP POP JUMP JUMPDEST PUSH0 DUP3 DUP3 MSTORE PUSH1 0x20 DUP3 ADD SWAP1 POP SWAP3 SWAP2 POP POP JUMP JUMPDEST PUSH32 0x74726561737572792063616E6E6F74206265207A65726F206164647265737300 PUSH0 DUP3 ADD MSTORE POP JUMP JUMPDEST PUSH0 PUSH2 0x1461 PUSH1 0x1F DUP4 PUSH2 0x141D JUMP JUMPDEST SWAP2 POP PUSH2 0x146C DUP3 PUSH2 0x142D JUMP JUMPDEST PUSH1 0x20 DUP3 ADD SWAP1 POP SWAP2 SWAP1 POP JUMP JUMPDEST PUSH0 PUSH1 0x20 DUP3 ADD SWAP1 POP DUP2 DUP2 SUB PUSH0 DUP4 ADD MSTORE PUSH2 0x148E DUP2 PUSH2 0x1455 JUMP JUMPDEST SWAP1 POP SWAP2 SWAP1 POP JUMP JUMPDEST PUSH32 0x7472616E736665722065786365656473206D61785478416D6F756E7400000000 PUSH0 DUP3 ADD MSTORE POP JUMP JUMPDEST PUSH0 PUSH2 0x14C9 PUSH1 0x1C DUP4 PUSH2 0x141D JUMP JUMPDEST SWAP2 POP PUSH2 0x14D4 DUP3 PUSH2 0x1495 JUMP JUMPDEST PUSH1 0x20 DUP3 ADD SWAP1 POP SWAP2 SWAP1 POP JUMP JUMPDEST PUSH0 PUSH1 0x20 DUP3 ADD SWAP1 POP DUP2 DUP2 SUB PUSH0 DUP4 ADD MSTORE PUSH2 0x14F6 DUP2 PUSH2 0x14BD JUMP JUMPDEST SWAP1 POP SWAP2 SWAP1 POP JUMP JUMPDEST PUSH0 PUSH2 0x1507 DUP3 PUSH2 0xFB2 JUMP JUMPDEST SWAP2 POP PUSH2 0x1512 DUP4 PUSH2 0xFB2 JUMP JUMPDEST SWAP3 POP DUP3 DUP3 ADD SWAP1 POP DUP1 DUP3 GT ISZERO PUSH2 0x152A JUMPI PUSH2 0x1529 PUSH2 0xFE8 JUMP JUMPDEST JUMPDEST SWAP3 SWAP2 POP POP JUMP JUMPDEST PUSH32 0x7472616E736665722065786365656473206D617857616C6C6574416D6F756E74 PUSH0 DUP3 ADD MSTORE POP JUMP JUMPDEST PUSH0 PUSH2 0x1564 PUSH1 0x20 DUP4 PUSH2 0x141D JUMP JUMPDEST SWAP2 POP PUSH2 0x156F DUP3 PUSH2 0x1530 JUMP JUMPDEST PUSH1 0x20 DUP3 ADD SWAP1 POP SWAP2 SWAP1 POP JUMP JUMPDEST PUSH0 PUSH1 0x20 DUP3 ADD SWAP1 POP DUP2 DUP2 SUB PUSH0 DUP4 ADD MSTORE PUSH2 0x1591 DUP2 PUSH2 0x1558 JUMP JUMPDEST SWAP1 POP SWAP2 SWAP1 POP JUMP JUMPDEST PUSH32 0x6F6E652074726164652070657220626C6F636B00000000000000000000000000 PUSH0 DUP3 ADD MSTORE POP JUMP JUMPDEST PUSH0 PUSH2 0x15CC PUSH1 0x13 DUP4 PUSH2 0x141D JUMP JUMPDEST SWAP2 POP PUSH2 0x15D7 DUP3 PUSH2 0x1598 JUMP JUMPDEST PUSH1 0x20 DUP3 ADD SWAP1 POP SWAP2 SWAP1 POP JUMP JUMPDEST PUSH0 PUSH1 0x20 DUP3 ADD SWAP1 POP DUP2 DUP2 SUB PUSH0 DUP4 ADD MSTORE PUSH2 0x15F9 DUP2 PUSH2 0x15C0 JUMP JUMPDEST SWAP1 POP SWAP2 SWAP1 POP JUMP JUMPDEST PUSH0 PUSH2 0x160A DUP3 PUSH2 0xFB2 JUMP JUMPDEST SWAP2 POP PUSH2 0x1615 DUP4 PUSH2 0xFB2 JUMP JUMPDEST SWAP3 POP DUP3 DUP3 MUL PUSH2 0x1623 DUP2 PUSH2 0xFB2 JUMP JUMPDEST SWAP2 POP DUP3 DUP3 DIV DUP5 EQ DUP4 ISZERO OR PUSH2 0x163A JUMPI PUSH2 0x1639 PUSH2 0xFE8 JUMP JUMPDEST JUMPDEST POP SWAP3 SWAP2 POP POP JUMP JUMPDEST PUSH0 PUSH2 0x164B DUP3 PUSH2 0xFB2 JUMP JUMPDEST SWAP2 POP PUSH2 0x1656 DUP4 PUSH2 0xFB2 JUMP JUMPDEST SWAP3 POP DUP3 DUP3 SUB SWAP1 POP DUP2 DUP2 GT ISZERO PUSH2 0x166E JUMPI PUSH2 0x166D PUSH2 0xFE8 JUMP JUMPDEST JUMPDEST SWAP3 SWAP2 POP POP JUMP JUMPDEST PUSH2 0x167D DUP2 PUSH2 0xFB2 JUMP JUMPDEST DUP3 MSTORE POP POP JUMP JUMPDEST PUSH0 PUSH1 0x60 DUP3 ADD SWAP1 POP PUSH2 0x1696 PUSH0 DUP4 ADD DUP7 PUSH2 0x13F5 JUMP JUMPDEST PUSH2 0x16A3 PUSH1 0x20 DUP4 ADD DUP6 PUSH2 0x1674 JUMP JUMPDEST PUSH2 0x16B0 PUSH1 0x40 DUP4 ADD DUP5 PUSH2 0x1674 JUMP JUMPDEST SWAP5 SWAP4 POP POP POP POP JUMP JUMPDEST PUSH0 PUSH1 0x20 DUP3 ADD SWAP1 POP PUSH2 0x16CB PUSH0 DUP4 ADD DUP5 PUSH2 0x1674 JUMP JUMPDEST SWAP3 SWAP2 POP POP JUMP JUMPDEST PUSH2 0x43EA DUP1 PUSH2 0x16DE PUSH0 CODECOPY PUSH0 RETURN INVALID PUSH1 0x80 PUSH1 0x40 MSTORE CALLVALUE DUP1 ISZERO PUSH2 0xF JUMPI PUSH0 PUSH0 REVERT JUMPDEST POP PUSH1 0x4 CALLDATASIZE LT PUSH2 0x35B JUMPI PUSH0 CALLDATALOAD PUSH1 0xE0 SHR DUP1 PUSH4 0x70A08231 GT PUSH2 0x1D1 JUMPI DUP1 PUSH4 0xA9059CBB GT PUSH2 0x102 JUMPI DUP1 PUSH4 0xCA7DF92C GT PUSH2 0xA0 JUMPI DUP1 PUSH4 0xE80CFA5E GT PUSH2 0x7A JUMPI DUP1 PUSH4 0xE80CFA5E EQ PUSH2 0xAB7 JUMPI DUP1 PUSH4 0xEC632104 EQ PUSH2 0xAD5 JUMPI DUP1 PUSH4 0xF2FDE38B EQ PUSH2 0xAF3 JUMPI DUP1 PUSH4 0xF9C703F4 EQ PUSH2 0xB0F JUMPI PUSH2 0x35B JUMP JUMPDEST DUP1 PUSH4 0xCA7DF92C EQ PUSH2 0xA39 JUMPI DUP1 PUSH4 0xCD2B9202 EQ PUSH2 0xA57 JUMPI DUP1 PUSH4 0xDD62ED3E EQ PUSH2 0xA87 JUMPI PUSH2 0x35B JUMP JUMPDEST DUP1 PUSH4 0xB912DE5D GT PUSH2 0xDC JUMPI DUP1 PUSH4 0xB912DE5D EQ PUSH2 0x98D JUMPI DUP1 PUSH4 0xB9890ADC EQ PUSH2 0x9BD JUMPI DUP1 PUSH4 0xBF57331F EQ PUSH2 0x9ED JUMPI DUP1 PUSH4 0xC4590D3F EQ PUSH2 0xA1D JUMPI PUSH2 0x35B JUMP JUMPDEST DUP1 PUSH4 0xA9059CBB EQ PUSH2 0x90F JUMPI DUP1 PUSH4 0xAA4BDE28 EQ PUSH2 0x93F JUMPI DUP1 PUSH4 0xB0D993AC EQ PUSH2 0x95D JUMPI PUSH2 0x35B JUMP JUMPDEST DUP1 PUSH4 0x8DA5CB5B GT PUSH2 0x16F JUMPI DUP1 PUSH4 0x9C9BCEA2 GT PUSH2 0x149 JUMPI DUP1 PUSH4 0x9C9BCEA2 EQ PUSH2 0x889 JUMPI DUP1 PUSH4 0xA5189810 EQ PUSH2 0x8A5 JUMPI DUP1 PUSH4 0xA65796DC EQ PUSH2 0x8C3 JUMPI DUP1 PUSH4 0xA8602FEA EQ PUSH2 0x8F3 JUMPI PUSH2 0x35B JUMP JUMPDEST DUP1 PUSH4 0x8DA5CB5B EQ PUSH2 0x81D JUMPI DUP1 PUSH4 0x9191A9C7 EQ PUSH2 0x83B JUMPI DUP1 PUSH4 0x95D89B41 EQ PUSH2 0x86B JUMPI PUSH2 0x35B JUMP JUMPDEST DUP1 PUSH4 0x781CC3D3 GT PUSH2 0x1AB JUMPI DUP1 PUSH4 0x781CC3D3 EQ PUSH2 0x7A9 JUMPI DUP1 PUSH4 0x79CC6790 EQ PUSH2 0x7C5 JUMPI DUP1 PUSH4 0x89567779 EQ PUSH2 0x7E1 JUMPI DUP1 PUSH4 0x8C0B5E22 EQ PUSH2 0x7FF JUMPI PUSH2 0x35B JUMP JUMPDEST DUP1 PUSH4 0x70A08231 EQ PUSH2 0x73F JUMPI DUP1 PUSH4 0x715018A6 EQ PUSH2 0x76F JUMPI DUP1 PUSH4 0x74DB9D11 EQ PUSH2 0x779 JUMPI PUSH2 0x35B JUMP JUMPDEST DUP1 PUSH4 0x41AEA9DE GT PUSH2 0x2AB JUMPI DUP1 PUSH4 0x5BA1C1A9 GT PUSH2 0x249 JUMPI DUP1 PUSH4 0x61464A2F GT PUSH2 0x223 JUMPI DUP1 PUSH4 0x61464A2F EQ PUSH2 0x6A7 JUMPI DUP1 PUSH4 0x622F0447 EQ PUSH2 0x6C3 JUMPI DUP1 PUSH4 0x6612E66F EQ PUSH2 0x6F3 JUMPI DUP1 PUSH4 0x67E7F1C3 EQ PUSH2 0x70F JUMPI PUSH2 0x35B JUMP JUMPDEST DUP1 PUSH4 0x5BA1C1A9 EQ PUSH2 0x629 JUMPI DUP1 PUSH4 0x5CCE86CD EQ PUSH2 0x647 JUMPI DUP1 PUSH4 0x5D5B29C1 EQ PUSH2 0x677 JUMPI PUSH2 0x35B JUMP JUMPDEST DUP1 PUSH4 0x431A9CAA GT PUSH2 0x285 JUMPI DUP1 PUSH4 0x431A9CAA EQ PUSH2 0x58D JUMPI DUP1 PUSH4 0x4626402B EQ PUSH2 0x5AB JUMPI DUP1 PUSH4 0x5342ACB4 EQ PUSH2 0x5C9 JUMPI DUP1 PUSH4 0x55AB3406 EQ PUSH2 0x5F9 JUMPI PUSH2 0x35B JUMP JUMPDEST DUP1 PUSH4 0x41AEA9DE EQ PUSH2 0x525 JUMPI DUP1 PUSH4 0x42966C68 EQ PUSH2 0x541 JUMPI DUP1 PUSH4 0x430E2477 EQ PUSH2 0x55D JUMPI PUSH2 0x35B JUMP JUMPDEST DUP1 PUSH4 0x23B872DD GT PUSH2 0x318 JUMPI DUP1 PUSH4 0x32CB6B0C GT PUSH2 0x2F2 JUMPI DUP1 PUSH4 0x32CB6B0C EQ PUSH2 0x4B1 JUMPI DUP1 PUSH4 0x3582AD23 EQ PUSH2 0x4CF JUMPI DUP1 PUSH4 0x36FDDB04 EQ PUSH2 0x4ED JUMPI DUP1 PUSH4 0x40C10F19 EQ PUSH2 0x509 JUMPI PUSH2 0x35B JUMP JUMPDEST DUP1 PUSH4 0x23B872DD EQ PUSH2 0x433 JUMPI DUP1 PUSH4 0x2E8328E6 EQ PUSH2 0x463 JUMPI DUP1 PUSH4 0x313CE567 EQ PUSH2 0x493 JUMPI PUSH2 0x35B JUMP JUMPDEST DUP1 PUSH4 0x6FDDE03 EQ PUSH2 0x35F JUMPI DUP1 PUSH4 0x95EA7B3 EQ PUSH2 0x37D JUMPI DUP1 PUSH4 0xA656923 EQ PUSH2 0x3AD JUMPI DUP1 PUSH4 0xB78F9C0 EQ PUSH2 0x3C9 JUMPI DUP1 PUSH4 0x16E09769 EQ PUSH2 0x3E5 JUMPI DUP1 PUSH4 0x18160DDD EQ PUSH2 0x415 JUMPI JUMPDEST PUSH0 PUSH0 REVERT JUMPDEST PUSH2 0x367 PUSH2 0xB2B JUMP JUMPDEST PUSH1 0x40 MLOAD PUSH2 0x374 SWAP2 SWAP1 PUSH2 0x332D JUMP JUMPDEST PUSH1 0x40 MLOAD DUP1 SWAP2 SUB SWAP1 RETURN JUMPDEST PUSH2 0x397 PUSH1 0x4 DUP1 CALLDATASIZE SUB DUP2 ADD SWAP1 PUSH2 0x392 SWAP2 SWAP1 PUSH2 0x33DE JUMP JUMPDEST PUSH2 0xBBB JUMP JUMPDEST PUSH1 0x40 MLOAD PUSH2 0x3A4 SWAP2 SWAP1 PUSH2 0x3436 JUMP JUMPDEST PUSH1 0x40 MLOAD DUP1 SWAP2 SUB SWAP1 RETURN JUMPDEST PUSH2 0x3C7 PUSH1 0x4 DUP1 CALLDATASIZE SUB DUP2 ADD SWAP1 PUSH2 0x3C2 SWAP2 SWAP1 PUSH2 0x3479 JUMP JUMPDEST PUSH2 0xBDD JUMP JUMPDEST STOP JUMPDEST PUSH2 0x3E3 PUSH1 0x4 DUP1 CALLDATASIZE SUB DUP2 ADD SWAP1 PUSH2 0x3DE SWAP2 SWAP1 PUSH2 0x34B7 JUMP JUMPDEST PUSH2 0xE42 JUMP JUMPDEST STOP JUMPDEST PUSH2 0x3FF PUSH1 0x4 DUP1 CALLDATASIZE SUB DUP2 ADD SWAP1 PUSH2 0x3FA SWAP2 SWAP1 PUSH2 0x34B7 JUMP JUMPDEST PUSH2 0xFDA JUMP JUMPDEST PUSH1 0x40 MLOAD PUSH2 0x40C SWAP2 SWAP1 PUSH2 0x350D JUMP JUMPDEST PUSH1 0x40 MLOAD DUP1 SWAP2 SUB SWAP1 RETURN JUMPDEST PUSH2 0x41D PUSH2 0x100C JUMP JUMPDEST PUSH1 0x40 MLOAD PUSH2 0x42A SWAP2 SWAP1 PUSH2 0x3535 JUMP JUMPDEST PUSH1 0x40 MLOAD DUP1 SWAP2 SUB SWAP1 RETURN JUMPDEST PUSH2 0x44D PUSH1 0x4 DUP1 CALLDATASIZE SUB DUP2 ADD SWAP1 PUSH2 0x448 SWAP2 SWAP1 PUSH2 0x354E JUMP JUMPDEST PUSH2 0x1015 JUMP JUMPDEST PUSH1 0x40 MLOAD PUSH2 0x45A SWAP2 SWAP1 PUSH2 0x3436 JUMP JUMPDEST PUSH1 0x40 MLOAD DUP1 SWAP2 SUB SWAP1 RETURN JUMPDEST PUSH2 0x47D PUSH1 0x4 DUP1 CALLDATASIZE SUB DUP2 ADD SWAP1 PUSH2 0x478 SWAP2 SWAP1 PUSH2 0x3479 JUMP JUMPDEST PUSH2 0x1043 JUMP JUMPDEST PUSH1 0x40 MLOAD PUSH2 0x48A SWAP2 SWAP1 PUSH2 0x350D JUMP JUMPDEST PUSH1 0x40 MLOAD DUP1 SWAP2 SUB SWAP1 RETURN JUMPDEST PUSH2 0x49B PUSH2 0x1075 JUMP JUMPDEST PUSH1 0x40 MLOAD PUSH2 0x4A8 SWAP2 SWAP1 PUSH2 0x35B9 JUMP JUMPDEST PUSH1 0x40 MLOAD DUP1 SWAP2 SUB SWAP1 RETURN JUMPDEST PUSH2 0x4B9 PUSH2 0x107D JUMP JUMPDEST PUSH1 0x40 MLOAD PUSH2 0x4C6 SWAP2 SWAP1 PUSH2 0x3535 JUMP JUMPDEST PUSH1 0x40 MLOAD DUP1 SWAP2 SUB SWAP1 RETURN JUMPDEST PUSH2 0x4D7 PUSH2 0x108D JUMP JUMPDEST PUSH1 0x40 MLOAD PUSH2 0x4E4 SWAP2 SWAP1 PUSH2 0x3436 JUMP JUMPDEST PUSH1 0x40 MLOAD DUP1 SWAP2 SUB SWAP1 RETURN JUMPDEST PUSH2 0x507 PUSH1 0x4 DUP1 CALLDATASIZE SUB DUP2 ADD SWAP1 PUSH2 0x502 SWAP2 SWAP1 PUSH2 0x3479 JUMP JUMPDEST PUSH2 0x109F JUMP JUMPDEST STOP JUMPDEST PUSH2 0x523 PUSH1 0x4 DUP1 CALLDATASIZE SUB DUP2 ADD SWAP1 PUSH2 0x51E SWAP2 SWAP1 PUSH2 0x33DE JUMP JUMPDEST PUSH2 0x1242 JUMP JUMPDEST STOP JUMPDEST PUSH2 0x53F PUSH1 0x4 DUP1 CALLDATASIZE SUB DUP2 ADD SWAP1 PUSH2 0x53A SWAP2 SWAP1 PUSH2 0x35D2 JUMP JUMPDEST PUSH2 0x13AE JUMP JUMPDEST STOP JUMPDEST PUSH2 0x55B PUSH1 0x4 DUP1 CALLDATASIZE SUB DUP2 ADD SWAP1 PUSH2 0x556 SWAP2 SWAP1 PUSH2 0x35FD JUMP JUMPDEST PUSH2 0x14FD JUMP JUMPDEST STOP JUMPDEST PUSH2 0x577 PUSH1 0x4 DUP1 CALLDATASIZE SUB DUP2 ADD SWAP1 PUSH2 0x572 SWAP2 SWAP1 PUSH2 0x3479 JUMP JUMPDEST PUSH2 0x1511 JUMP JUMPDEST PUSH1 0x40 MLOAD PUSH2 0x584 SWAP2 SWAP1 PUSH2 0x350D JUMP JUMPDEST PUSH1 0x40 MLOAD DUP1 SWAP2 SUB SWAP1 RETURN JUMPDEST PUSH2 0x595 PUSH2 0x1543 JUMP JUMPDEST PUSH1 0x40 MLOAD PUSH2 0x5A2 SWAP2 SWAP1 PUSH2 0x3535 JUMP JUMPDEST PUSH1 0x40 MLOAD DUP1 SWAP2 SUB SWAP1 RETURN JUMPDEST PUSH2 0x5B3 PUSH2 0x1549 JUMP JUMPDEST PUSH1 0x40 MLOAD PUSH2 0x5C0 SWAP2 SWAP1 PUSH2 0x3637 JUMP JUMPDEST PUSH1 0x40 MLOAD DUP1 SWAP2 SUB SWAP1 RETURN JUMPDEST PUSH2 0x5E3 PUSH1 0x4 DUP1 CALLDATASIZE SUB DUP2 ADD SWAP1 PUSH2 0x5DE SWAP2 SWAP1 PUSH2 0x3650 JUMP JUMPDEST PUSH2 0x156E JUMP JUMPDEST PUSH1 0x40 MLOAD PUSH2 0x5F0 SWAP2 SWAP1 PUSH2 0x3436 JUMP JUMPDEST PUSH1 0x40 MLOAD DUP1 SWAP2 SUB SWAP1 RETURN JUMPDEST PUSH2 0x613 PUSH1 0x4 DUP1 CALLDATASIZE SUB DUP2 ADD SWAP1 PUSH2 0x60E SWAP2 SWAP1 PUSH2 0x35D2 JUMP JUMPDEST PUSH2 0x158B JUMP JUMPDEST PUSH1 0x40 MLOAD PUSH2 0x620 SWAP2 SWAP1 PUSH2 0x350D JUMP JUMPDEST PUSH1 0x40 MLOAD DUP1 SWAP2 SUB SWAP1 RETURN JUMPDEST PUSH2 0x631 PUSH2 0x15BA JUMP JUMPDEST PUSH1 0x40 MLOAD PUSH2 0x63E SWAP2 SWAP1 PUSH2 0x3535 JUMP JUMPDEST PUSH1 0x40 MLOAD DUP1 SWAP2 SUB SWAP1 RETURN JUMPDEST PUSH2 0x661 PUSH1 0x4 DUP1 CALLDATASIZE SUB DUP2 ADD SWAP1 PUSH2 0x65C SWAP2 SWAP1 PUSH2 0x3650 JUMP JUMPDEST PUSH2 0x15C1 JUMP JUMPDEST PUSH1 0x40 MLOAD PUSH2 0x66E SWAP2 SWAP1 PUSH2 0x3436 JUMP JUMPDEST PUSH1 0x40 MLOAD DUP1 SWAP2 SUB SWAP1 RETURN JUMPDEST PUSH2 0x691 PUSH1 0x4 DUP1 CALLDATASIZE SUB DUP2 ADD SWAP1 PUSH2 0x68C SWAP2 SWAP1 PUSH2 0x3650 JUMP JUMPDEST PUSH2 0x15DE JUMP JUMPDEST PUSH1 0x40 MLOAD PUSH2 0x69E SWAP2 SWAP1 PUSH2 0x3436 JUMP JUMPDEST PUSH1 0x40 MLOAD DUP1 SWAP2 SUB SWAP1 RETURN JUMPDEST PUSH2 0x6C1 PUSH1 0x4 DUP1 CALLDATASIZE SUB DUP2 ADD SWAP1 PUSH2 0x6BC SWAP2 SWAP1 PUSH2 0x35D2 JUMP JUMPDEST PUSH2 0x15FB JUMP JUMPDEST STOP JUMPDEST PUSH2 0x6DD PUSH1 0x4 DUP1 CALLDATASIZE SUB DUP2 ADD SWAP1 PUSH2 0x6D8 SWAP2 SWAP1 PUSH2 0x3479 JUMP JUMPDEST PUSH2 0x174A JUMP JUMPDEST PUSH1 0x40 MLOAD PUSH2 0x6EA SWAP2 SWAP1 PUSH2 0x350D JUMP JUMPDEST PUSH1 0x40 MLOAD DUP1 SWAP2 SUB SWAP1 RETURN JUMPDEST PUSH2 0x70D PUSH1 0x4 DUP1 CALLDATASIZE SUB DUP2 ADD SWAP1 PUSH2 0x708 SWAP2 SWAP1 PUSH2 0x3479 JUMP JUMPDEST PUSH2 0x177C JUMP JUMPDEST STOP JUMPDEST PUSH2 0x729 PUSH1 0x4 DUP1 CALLDATASIZE SUB DUP2 ADD SWAP1 PUSH2 0x724 SWAP2 SWAP1 PUSH2 0x3650 JUMP JUMPDEST PUSH2 0x191F JUMP JUMPDEST PUSH1 0x40 MLOAD PUSH2 0x736 SWAP2 SWAP1 PUSH2 0x350D JUMP JUMPDEST PUSH1 0x40 MLOAD DUP1 SWAP2 SUB SWAP1 RETURN JUMPDEST PUSH2 0x759 PUSH1 0x4 DUP1 CALLDATASIZE SUB DUP2 ADD SWAP1 PUSH2 0x754 SWAP2 SWAP1 PUSH2 0x3650 JUMP JUMPDEST PUSH2 0x194E JUMP JUMPDEST PUSH1 0x40 MLOAD PUSH2 0x766 SWAP2 SWAP1 PUSH2 0x3535 JUMP JUMPDEST PUSH1 0x40 MLOAD DUP1 SWAP2 SUB SWAP1 RETURN JUMPDEST PUSH2 0x777 PUSH2 0x1993 JUMP JUMPDEST STOP JUMPDEST PUSH2 0x793 PUSH1 0x4 DUP1 CALLDATASIZE SUB DUP2 ADD SWAP1 PUSH2 0x78E SWAP2 SWAP1 PUSH2 0x3650 JUMP JUMPDEST PUSH2 0x19A6 JUMP JUMPDEST PUSH1 0x40 MLOAD PUSH2 0x7A0 SWAP2 SWAP1 PUSH2 0x3535 JUMP JUMPDEST PUSH1 0x40 MLOAD DUP1 SWAP2 SUB SWAP1 RETURN JUMPDEST PUSH2 0x7C3 PUSH1 0x4 DUP1 CALLDATASIZE SUB DUP2 ADD SWAP1 PUSH2 0x7BE SWAP2 SWAP1 PUSH2 0x36A5 JUMP JUMPDEST PUSH2 0x19BB JUMP JUMPDEST STOP JUMPDEST PUSH2 0x7DF PUSH1 0x4 DUP1 CALLDATASIZE SUB DUP2 ADD SWAP1 PUSH2 0x7DA SWAP2 SWAP1 PUSH2 0x33DE JUMP JUMPDEST PUSH2 0x1A5A JUMP JUMPDEST STOP JUMPDEST PUSH2 0x7E9 PUSH2 0x1A7A JUMP JUMPDEST PUSH1 0x40 MLOAD PUSH2 0x7F6 SWAP2 SWAP1 PUSH2 0x3436 JUMP JUMPDEST PUSH1 0x40 MLOAD DUP1 SWAP2 SUB SWAP1 RETURN JUMPDEST PUSH2 0x807 PUSH2 0x1A8C JUMP JUMPDEST PUSH1 0x40 MLOAD PUSH2 0x814 SWAP2 SWAP1 PUSH2 0x3535 JUMP JUMPDEST PUSH1 0x40 MLOAD DUP1 SWAP2 SUB SWAP1 RETURN JUMPDEST PUSH2 0x825 PUSH2 0x1A92 JUMP JUMPDEST PUSH1 0x40 MLOAD PUSH2 0x832 SWAP2 SWAP1 PUSH2 0x3637 JUMP JUMPDEST PUSH1 0x40 MLOAD DUP1 SWAP2 SUB SWAP1 RETURN JUMPDEST PUSH2 0x855 PUSH1 0x4 DUP1 CALLDATASIZE SUB DUP2 ADD SWAP1 PUSH2 0x850 SWAP2 SWAP1 PUSH2 0x3650 JUMP JUMPDEST PUSH2 0x1ABA JUMP JUMPDEST PUSH1 0x40 MLOAD PUSH2 0x862 SWAP2 SWAP1 PUSH2 0x3436 JUMP JUMPDEST PUSH1 0x40 MLOAD DUP1 SWAP2 SUB SWAP1 RETURN JUMPDEST PUSH2 0x873 PUSH2 0x1AD7 JUMP JUMPDEST PUSH1 0x40 MLOAD PUSH2 0x880 SWAP2 SWAP1 PUSH2 0x332D JUMP JUMPDEST PUSH1 0x40 MLOAD DUP1 SWAP2 SUB SWAP1 RETURN JUMPDEST PUSH2 0x8A3 PUSH1 0x4 DUP1 CALLDATASIZE SUB DUP2 ADD SWAP1 PUSH2 0x89E SWAP2 SWAP1 PUSH2 0x3479 JUMP JUMPDEST PUSH2 0x1B67 JUMP JUMPDEST STOP JUMPDEST PUSH2 0x8AD PUSH2 0x1D0A JUMP JUMPDEST PUSH1 0x40 MLOAD PUSH2 0x8BA SWAP2 SWAP1 PUSH2 0x3535 JUMP JUMPDEST PUSH1 0x40 MLOAD DUP1 SWAP2 SUB SWAP1 RETURN JUMPDEST PUSH2 0x8DD PUSH1 0x4 DUP1 CALLDATASIZE SUB DUP2 ADD SWAP1 PUSH2 0x8D8 SWAP2 SWAP1 PUSH2 0x34B7 JUMP JUMPDEST PUSH2 0x1D10 JUMP JUMPDEST PUSH1 0x40 MLOAD PUSH2 0x8EA SWAP2 SWAP1 PUSH2 0x350D JUMP JUMPDEST PUSH1 0x40 MLOAD DUP1 SWAP2 SUB SWAP1 RETURN JUMPDEST PUSH2 0x90D PUSH1 0x4 DUP1 CALLDATASIZE SUB DUP2 ADD SWAP1 PUSH2 0x908 SWAP2 SWAP1 PUSH2 0x3650 JUMP JUMPDEST PUSH2 0x1D42 JUMP JUMPDEST STOP JUMPDEST PUSH2 0x929 PUSH1 0x4 DUP1 CALLDATASIZE SUB DUP2 ADD SWAP1 PUSH2 0x924 SWAP2 SWAP1 PUSH2 0x33DE JUMP JUMPDEST PUSH2 0x1F32 JUMP JUMPDEST PUSH1 0x40 MLOAD PUSH2 0x936 SWAP2 SWAP1 PUSH2 0x3436 JUMP JUMPDEST PUSH1 0x40 MLOAD DUP1 SWAP2 SUB SWAP1 RETURN JUMPDEST PUSH2 0x947 PUSH2 0x1F54 JUMP JUMPDEST PUSH1 0x40 MLOAD PUSH2 0x954 SWAP2 SWAP1 PUSH2 0x3535 JUMP JUMPDEST PUSH1 0x40 MLOAD DUP1 SWAP2 SUB SWAP1 RETURN JUMPDEST PUSH2 0x977 PUSH1 0x4 DUP1 CALLDATASIZE SUB DUP2 ADD SWAP1 PUSH2 0x972 SWAP2 SWAP1 PUSH2 0x33DE JUMP JUMPDEST PUSH2 0x1F5A JUMP JUMPDEST PUSH1 0x40 MLOAD PUSH2 0x984 SWAP2 SWAP1 PUSH2 0x350D JUMP JUMPDEST PUSH1 0x40 MLOAD DUP1 SWAP2 SUB SWAP1 RETURN JUMPDEST PUSH2 0x9A7 PUSH1 0x4 DUP1 CALLDATASIZE SUB DUP2 ADD SWAP1 PUSH2 0x9A2 SWAP2 SWAP1 PUSH2 0x36A5 JUMP JUMPDEST PUSH2 0x1F8C JUMP JUMPDEST PUSH1 0x40 MLOAD PUSH2 0x9B4 SWAP2 SWAP1 PUSH2 0x3535 JUMP JUMPDEST PUSH1 0x40 MLOAD DUP1 SWAP2 SUB SWAP1 RETURN JUMPDEST PUSH2 0x9D7 PUSH1 0x4 DUP1 CALLDATASIZE SUB DUP2 ADD SWAP1 PUSH2 0x9D2 SWAP2 SWAP1 PUSH2 0x3479 JUMP JUMPDEST PUSH2 0x1FA1 JUMP JUMPDEST PUSH1 0x40 MLOAD PUSH2 0x9E4 SWAP2 SWAP1 PUSH2 0x350D JUMP JUMPDEST PUSH1 0x40 MLOAD DUP1 SWAP2 SUB SWAP1 RETURN JUMPDEST PUSH2 0xA07 PUSH1 0x4 DUP1 CALLDATASIZE SUB DUP2 ADD SWAP1 PUSH2 0xA02 SWAP2 SWAP1 PUSH2 0x3650 JUMP JUMPDEST PUSH2 0x1FD3 JUMP JUMPDEST PUSH1 0x40 MLOAD PUSH2 0xA14 SWAP2 SWAP1 PUSH2 0x350D JUMP JUMPDEST PUSH1 0x40 MLOAD DUP1 SWAP2 SUB SWAP1 RETURN JUMPDEST PUSH2 0xA37 PUSH1 0x4 DUP1 CALLDATASIZE SUB DUP2 ADD SWAP1 PUSH2 0xA32 SWAP2 SWAP1 PUSH2 0x34B7 JUMP JUMPDEST PUSH2 0x2002 JUMP JUMPDEST STOP JUMPDEST PUSH2 0xA41 PUSH2 0x21FA JUMP JUMPDEST PUSH1 0x40 MLOAD PUSH2 0xA4E SWAP2 SWAP1 PUSH2 0x3535 JUMP JUMPDEST PUSH1 0x40 MLOAD DUP1 SWAP2 SUB SWAP1 RETURN JUMPDEST PUSH2 0xA71 PUSH1 0x4 DUP1 CALLDATASIZE SUB DUP2 ADD SWAP1 PUSH2 0xA6C SWAP2 SWAP1 PUSH2 0x35D2 JUMP JUMPDEST PUSH2 0x2216 JUMP JUMPDEST PUSH1 0x40 MLOAD PUSH2 0xA7E SWAP2 SWAP1 PUSH2 0x350D JUMP JUMPDEST PUSH1 0x40 MLOAD DUP1 SWAP2 SUB SWAP1 RETURN JUMPDEST PUSH2 0xAA1 PUSH1 0x4 DUP1 CALLDATASIZE SUB DUP2 ADD SWAP1 PUSH2 0xA9C SWAP2 SWAP1 PUSH2 0x36D0 JUMP JUMPDEST PUSH2 0x2245 JUMP JUMPDEST PUSH1 0x40 MLOAD PUSH2 0xAAE SWAP2 SWAP1 PUSH2 0x3535 JUMP JUMPDEST PUSH1 0x40 MLOAD DUP1 SWAP2 SUB SWAP1 RETURN JUMPDEST PUSH2 0xABF PUSH2 0x22C7 JUMP JUMPDEST PUSH1 0x40 MLOAD PUSH2 0xACC SWAP2 SWAP1 PUSH2 0x3535 JUMP JUMPDEST PUSH1 0x40 MLOAD DUP1 SWAP2 SUB SWAP1 RETURN JUMPDEST PUSH2 0xADD PUSH2 0x22CD JUMP JUMPDEST PUSH1 0x40 MLOAD PUSH2 0xAEA SWAP2 SWAP1 PUSH2 0x3535 JUMP JUMPDEST PUSH1 0x40 MLOAD DUP1 SWAP2 SUB SWAP1 RETURN JUMPDEST PUSH2 0xB0D PUSH1 0x4 DUP1 CALLDATASIZE SUB DUP2 ADD SWAP1 PUSH2 0xB08 SWAP2 SWAP1 PUSH2 0x3650 JUMP JUMPDEST PUSH2 0x22D2 JUMP JUMPDEST STOP JUMPDEST PUSH2 0xB29 PUSH1 0x4 DUP1 CALLDATASIZE SUB DUP2 ADD SWAP1 PUSH2 0xB24 SWAP2 SWAP1 PUSH2 0x36A5 JUMP JUMPDEST PUSH2 0x23DA JUMP JUMPDEST STOP JUMPDEST PUSH1 0x60 PUSH1 0x3 DUP1 SLOAD PUSH2 0xB3A SWAP1 PUSH2 0x373B JUMP JUMPDEST DUP1 PUSH1 0x1F ADD PUSH1 0x20 DUP1 SWAP2 DIV MUL PUSH1 0x20 ADD PUSH1 0x40 MLOAD SWAP1 DUP2 ADD PUSH1 0x40 MSTORE DUP1 SWAP3 SWAP2 SWAP1 DUP2 DUP2 MSTORE PUSH1 0x20 ADD DUP3 DUP1 SLOAD PUSH2 0xB66 SWAP1 PUSH2 0x373B JUMP JUMPDEST DUP1 ISZERO PUSH2 0xBB1 JUMPI DUP1 PUSH1 0x1F LT PUSH2 0xB88 JUMPI PUSH2 0x100 DUP1 DUP4 SLOAD DIV MUL DUP4 MSTORE SWAP2 PUSH1 0x20 ADD SWAP2 PUSH2 0xBB1 JUMP JUMPDEST DUP3 ADD SWAP2 SWAP1 PUSH0 MSTORE PUSH1 0x20 PUSH0 KECCAK256 SWAP1 JUMPDEST DUP2 SLOAD DUP2 MSTORE SWAP1 PUSH1 0x1 ADD SWAP1 PUSH1 0x20 ADD DUP1 DUP4 GT PUSH2 0xB94 JUMPI DUP3 SWAP1 SUB PUSH1 0x1F AND DUP3 ADD SWAP2 JUMPDEST POP POP POP POP POP SWAP1 POP SWAP1 JUMP JUMPDEST PUSH0 PUSH0 PUSH2 0xBC5 PUSH2 0x2494 JUMP JUMPDEST SWAP1 POP PUSH2 0xBD2 DUP2 DUP6 DUP6 PUSH2 0x249B JUMP JUMPDEST PUSH1 0x1 SWAP2 POP POP SWAP3 SWAP2 POP POP JUMP JUMPDEST PUSH2 0xBE5 PUSH2 0x24AD JUMP JUMPDEST PUSH2 0xBEF DUP3 DUP3 PUSH2 0x1511 JUMP JUMPDEST PUSH0 PUSH1 0x12 PUSH0 DUP4 DUP2 MSTORE PUSH1 0x20 ADD SWAP1 DUP2 MSTORE PUSH1 0x20 ADD PUSH0 KECCAK256 SLOAD SWAP1 POP PUSH0 DUP2 SUB PUSH2 0xC46 JUMPI PUSH1 0x40 MLOAD PUSH32 0x8C379A000000000000000000000000000000000000000000000000000000000 DUP2 MSTORE PUSH1 0x4 ADD PUSH2 0xC3D SWAP1 PUSH2 0x37B5 JUMP JUMPDEST PUSH1 0x40 MLOAD DUP1 SWAP2 SUB SWAP1 REVERT JUMPDEST PUSH3 0x2A300 DUP2 PUSH2 0xC55 SWAP2 SWAP1 PUSH2 0x3800 JUMP JUMPDEST TIMESTAMP LT ISZERO PUSH2 0xC97 JUMPI PUSH1 0x40 MLOAD PUSH32 0x8C379A000000000000000000000000000000000000000000000000000000000 DUP2 MSTORE PUSH1 0x4 ADD PUSH2 0xC8E SWAP1 PUSH2 0x387D JUMP JUMPDEST PUSH1 0x40 MLOAD DUP1 SWAP2 SUB SWAP1 REVERT JUMPDEST PUSH1 0x12 PUSH0 DUP4 DUP2 MSTORE PUSH1 0x20 ADD SWAP1 DUP2 MSTORE PUSH1 0x20 ADD PUSH0 KECCAK256 PUSH0 SWAP1 SSTORE PUSH0 PUSH20 0xFFFFFFFFFFFFFFFFFFFFFFFFFFFFFFFFFFFFFFFF AND DUP5 PUSH20 0xFFFFFFFFFFFFFFFFFFFFFFFFFFFFFFFFFFFFFFFF AND SUB PUSH2 0xD19 JUMPI PUSH1 0x40 MLOAD PUSH32 0x8C379A000000000000000000000000000000000000000000000000000000000 DUP2 MSTORE PUSH1 0x4 ADD PUSH2 0xD10 SWAP1 PUSH2 0x38E5 JUMP JUMPDEST PUSH1 0x40 MLOAD DUP1 SWAP2 SUB SWAP1 REVERT JUMPDEST DUP3 PUSH1 0x9 PUSH0 DUP7 PUSH20 0xFFFFFFFFFFFFFFFFFFFFFFFFFFFFFFFFFFFFFFFF AND PUSH20 0xFFFFFFFFFFFFFFFFFFFFFFFFFFFFFFFFFFFFFFFF AND DUP2 MSTORE PUSH1 0x20 ADD SWAP1 DUP2 MSTORE PUSH1 0x20 ADD PUSH0 KECCAK256 PUSH0 PUSH2 0x100 EXP DUP2 SLOAD DUP2 PUSH1 0xFF MUL NOT AND SWAP1 DUP4 ISZERO ISZERO MUL OR SWAP1 SSTORE POP DUP3 PUSH1 0xE PUSH0 DUP7 PUSH20 0xFFFFFFFFFFFFFFFFFFFFFFFFFFFFFFFFFFFFFFFF AND PUSH20 0xFFFFFFFFFFFFFFFFFFFFFFFFFFFFFFFFFFFFFFFF AND DUP2 MSTORE PUSH1 0x20 ADD SWAP1 DUP2 MSTORE PUSH1 0x20 ADD PUSH0 KECCAK256 PUSH0 PUSH2 0x100 EXP DUP2 SLOAD DUP2 PUSH1 0xFF MUL NOT AND SWAP1 DUP4 ISZERO ISZERO MUL OR SWAP1 SSTORE POP DUP4 PUSH20 0xFFFFFFFFFFFFFFFFFFFFFFFFFFFFFFFFFFFFFFFF AND PUSH32 0x6A99FE055B37FBB43DA2BF48BC37FFB6D8F1FB0CD09C1B41E9CCC5CE70397DBA DUP5 PUSH1 0x40 MLOAD PUSH2 0xE07 SWAP2 SWAP1 PUSH2 0x3436 JUMP JUMPDEST PUSH1 0x40 MLOAD DUP1 SWAP2 SUB SWAP1 LOG2 DUP2 PUSH32 0x9B5A634CE9DBCC1CC28DBCE24CD5B30136689FF28F9AE433837BD68895D7D5E0 PUSH1 0x40 MLOAD PUSH1 0x40 MLOAD DUP1 SWAP2 SUB SWAP1 LOG2 POP POP POP POP JUMP JUMPDEST PUSH2 0xE4A PUSH2 0x24AD JUMP JUMPDEST PUSH2 0xE54 DUP3 DUP3 PUSH2 0xFDA JUMP JUMPDEST PUSH0 PUSH1 0x12 PUSH0 DUP4 DUP2 MSTORE PUSH1 0x20 ADD SWAP1 DUP2 MSTORE PUSH1 0x20 ADD PUSH0 KECCAK256 SLOAD SWAP1 POP PUSH0 DUP2 SUB PUSH2 0xEAB JUMPI PUSH1 0x40 MLOAD PUSH32 0x8C379A000000000000000000000000000000000000000000000000000000000 DUP2 MSTORE PUSH1 0x4 ADD PUSH2 0xEA2 SWAP1 PUSH2 0x37B5 JUMP JUMPDEST PUSH1 0x40 MLOAD DUP1 SWAP2 SUB SWAP1 REVERT JUMPDEST PUSH3 0x2A300 DUP2 PUSH2 0xEBA SWAP2 SWAP1 PUSH2 0x3800 JUMP JUMPDEST TIMESTAMP LT ISZERO PUSH2 0xEFC JUMPI PUSH1 0x40 MLOAD PUSH32 0x8C379A000000000000000000000000000000000000000000000000000000000 DUP2 MSTORE PUSH1 0x4 ADD PUSH2 0xEF3 SWAP1 PUSH2 0x387D JUMP JUMPDEST PUSH1 0x40 MLOAD DUP1 SWAP2 SUB SWAP1 REVERT JUMPDEST PUSH1 0x12 PUSH0 DUP4 DUP2 MSTORE PUSH1 0x20 ADD SWAP1 DUP2 MSTORE PUSH1 0x20 ADD PUSH0 KECCAK256 PUSH0 SWAP1 SSTORE PUSH2 0x3E8 DUP4 DUP6 PUSH2 0xF1F SWAP2 SWAP1 PUSH2 0x3800 JUMP JUMPDEST GT ISZERO PUSH2 0xF60 JUMPI PUSH1 0x40 MLOAD PUSH32 0x8C379A000000000000000000000000000000000000000000000000000000000 DUP2 MSTORE PUSH1 0x4 ADD PUSH2 0xF57 SWAP1 PUSH2 0x394D JUMP JUMPDEST PUSH1 0x40 MLOAD DUP1 SWAP2 SUB SWAP1 REVERT JUMPDEST DUP4 PUSH1 0x6 DUP2 SWAP1 SSTORE POP DUP3 PUSH1 0x7 DUP2 SWAP1 SSTORE POP PUSH32 0x5C6323BF1C2D7AAEA2C091A4751C1C87AF7F2864650C336507A77D0557AF37A1 DUP5 DUP5 PUSH1 0x40 MLOAD PUSH2 0xF9F SWAP3 SWAP2 SWAP1 PUSH2 0x396B JUMP JUMPDEST PUSH1 0x40 MLOAD DUP1 SWAP2 SUB SWAP1 LOG1 DUP2 PUSH32 0x9B5A634CE9DBCC1CC28DBCE24CD5B30136689FF28F9AE433837BD68895D7D5E0 PUSH1 0x40 MLOAD PUSH1 0x40 MLOAD DUP1 SWAP2 SUB SWAP1 LOG2 POP POP POP POP JUMP JUMPDEST PUSH0 DUP3 DUP3 PUSH1 0x40 MLOAD PUSH1 0x20 ADD PUSH2 0xFEE SWAP3 SWAP2 SWAP1 PUSH2 0x39DC JUMP JUMPDEST PUSH1 0x40 MLOAD PUSH1 0x20 DUP2 DUP4 SUB SUB DUP2 MSTORE SWAP1 PUSH1 0x40 MSTORE DUP1 MLOAD SWAP1 PUSH1 0x20 ADD KECCAK256 SWAP1 POP SWAP3 SWAP2 POP POP JUMP JUMPDEST PUSH0 PUSH1 0x2 SLOAD SWAP1 POP SWAP1 JUMP JUMPDEST PUSH0 PUSH0 PUSH2 0x101F PUSH2 0x2494 JUMP JUMPDEST SWAP1 POP PUSH2 0x102C DUP6 DUP3 DUP6 PUSH2 0x2534 JUMP JUMPDEST PUSH2 0x1037 DUP6 DUP6 DUP6 PUSH2 0x25C7 JUMP JUMPDEST PUSH1 0x1 SWAP2 POP POP SWAP4 SWAP3 POP POP POP JUMP JUMPDEST PUSH0 DUP3 DUP3 PUSH1 0x40 MLOAD PUSH1 0x20 ADD PUSH2 0x1057 SWAP3 SWAP2 SWAP1 PUSH2 0x3A60 JUMP JUMPDEST PUSH1 0x40 MLOAD PUSH1 0x20 DUP2 DUP4 SUB SUB DUP2 MSTORE SWAP1 PUSH1 0x40 MSTORE DUP1 MLOAD SWAP1 PUSH1 0x20 ADD KECCAK256 SWAP1 POP SWAP3 SWAP2 POP POP JUMP JUMPDEST PUSH0 PUSH1 0x12 SWAP1 POP SWAP1 JUMP JUMPDEST PUSH12 0x33B2E3C9FD0803CE8000000 DUP2 JUMP JUMPDEST PUSH1 0xD PUSH0 SWAP1 SLOAD SWAP1 PUSH2 0x100 EXP SWAP1 DIV PUSH1 0xFF AND DUP2 JUMP JUMPDEST PUSH2 0x10A7 PUSH2 0x24AD JUMP JUMPDEST PUSH2 0x10B1 DUP3 DUP3 PUSH2 0x174A JUMP JUMPDEST PUSH0 PUSH1 0x12 PUSH0 DUP4 DUP2 MSTORE PUSH1 0x20 ADD SWAP1 DUP2 MSTORE PUSH1 0x20 ADD PUSH0 KECCAK256 SLOAD SWAP1 POP PUSH0 DUP2 SUB PUSH2 0x1108 JUMPI PUSH1 0x40 MLOAD PUSH32 0x8C379A000000000000000000000000000000000000000000000000000000000 DUP2 MSTORE PUSH1 0x4 ADD PUSH2 0x10FF SWAP1 PUSH2 0x37B5 JUMP JUMPDEST PUSH1 0x40 MLOAD DUP1 SWAP2 SUB SWAP1 REVERT JUMPDEST PUSH3 0x2A300 DUP2 PUSH2 0x1117 SWAP2 SWAP1 PUSH2 0x3800 JUMP JUMPDEST TIMESTAMP LT ISZERO PUSH2 0x1159 JUMPI PUSH1 0x40 MLOAD PUSH32 0x8C379A000000000000000000000000000000000000000000000000000000000 DUP2 MSTORE PUSH1 0x4 ADD PUSH2 0x1150 SWAP1 PUSH2 0x387D JUMP JUMPDEST PUSH1 0x40 MLOAD DUP1 SWAP2 SUB SWAP1 REVERT JUMPDEST PUSH1 0x12 PUSH0 DUP4 DUP2 MSTORE PUSH1 0x20 ADD SWAP1 DUP2 MSTORE PUSH1 0x20 ADD PUSH0 KECCAK256 PUSH0 SWAP1 SSTORE DUP3 PUSH1 0xE PUSH0 DUP7 PUSH20 0xFFFFFFFFFFFFFFFFFFFFFFFFFFFFFFFFFFFFFFFF AND PUSH20 0xFFFFFFFFFFFFFFFFFFFFFFFFFFFFFFFFFFFFFFFF AND DUP2 MSTORE PUSH1 0x20 ADD SWAP1 DUP2 MSTORE PUSH1 0x20 ADD PUSH0 KECCAK256 PUSH0 PUSH2 0x100 EXP DUP2 SLOAD DUP2 PUSH1 0xFF MUL NOT AND SWAP1 DUP4 ISZERO ISZERO MUL OR SWAP1 SSTORE POP DUP4 PUSH20 0xFFFFFFFFFFFFFFFFFFFFFFFFFFFFFFFFFFFFFFFF AND PUSH32 0x74392251B09500CC108C71712E5E7E0392BE9075A74A24F1494551CFA8E06870 DUP5 PUSH1 0x40 MLOAD PUSH2 0x1207 SWAP2 SWAP1 PUSH2 0x3436 JUMP JUMPDEST PUSH1 0x40 MLOAD DUP1 SWAP2 SUB SWAP1 LOG2 DUP2 PUSH32 0x9B5A634CE9DBCC1CC28DBCE24CD5B30136689FF28F9AE433837BD68895D7D5E0 PUSH1 0x40 MLOAD PUSH1 0x40 MLOAD DUP1 SWAP2 SUB SWAP1 LOG2 POP POP POP POP JUMP JUMPDEST PUSH2 0x124A PUSH2 0x24AD JUMP JUMPDEST PUSH2 0x1254 DUP3 DUP3 PUSH2 0x1F5A JUMP JUMPDEST PUSH0 PUSH1 0x12 PUSH0 DUP4 DUP2 MSTORE PUSH1 0x20 ADD SWAP1 DUP2 MSTORE PUSH1 0x20 ADD PUSH0 KECCAK256 SLOAD SWAP1 POP PUSH0 DUP2 SUB PUSH2 0x12AB JUMPI PUSH1 0x40 MLOAD PUSH32 0x8C379A000000000000000000000000000000000000000000000000000000000 DUP2 MSTORE PUSH1 0x4 ADD PUSH2 0x12A2 SWAP1 PUSH2 0x37B5 JUMP JUMPDEST PUSH1 0x40 MLOAD DUP1 SWAP2 SUB SWAP1 REVERT JUMPDEST PUSH3 0x2A300 DUP2 PUSH2 0x12BA SWAP2 SWAP1 PUSH2 0x3800 JUMP JUMPDEST TIMESTAMP LT ISZERO PUSH2 0x12FC JUMPI PUSH1 0x40 MLOAD PUSH32 0x8C379A000000000000000000000000000000000000000000000000000000000 DUP2 MSTORE PUSH1 0x4 ADD PUSH2 0x12F3 SWAP1 PUSH2 0x387D JUMP JUMPDEST PUSH1 0x40 MLOAD DUP1 SWAP2 SUB SWAP1 REVERT JUMPDEST PUSH1 0x12 PUSH0 DUP4 DUP2 MSTORE PUSH1 0x20 ADD SWAP1 DUP2 MSTORE PUSH1 0x20 ADD PUSH0 KECCAK256 PUSH0 SWAP1 SSTORE PUSH12 0x33B2E3C9FD0803CE8000000 DUP4 PUSH2 0x1326 PUSH2 0x100C JUMP JUMPDEST PUSH2 0x1330 SWAP2 SWAP1 PUSH2 0x3800 JUMP JUMPDEST GT ISZERO PUSH2 0x1371 JUMPI PUSH1 0x40 MLOAD PUSH32 0x8C379A000000000000000000000000000000000000000000000000000000000 DUP2 MSTORE PUSH1 0x4 ADD PUSH2 0x1368 SWAP1 PUSH2 0x3AE4 JUMP JUMPDEST PUSH1 0x40 MLOAD DUP1 SWAP2 SUB SWAP1 REVERT JUMPDEST PUSH2 0x137B DUP5 DUP5 PUSH2 0x26B7 JUMP JUMPDEST DUP2 PUSH32 0x9B5A634CE9DBCC1CC28DBCE24CD5B30136689FF28F9AE433837BD68895D7D5E0 PUSH1 0x40 MLOAD PUSH1 0x40 MLOAD DUP1 SWAP2 SUB SWAP1 LOG2 POP POP POP POP JUMP JUMPDEST PUSH2 0x13B6 PUSH2 0x24AD JUMP JUMPDEST PUSH2 0x13BF DUP2 PUSH2 0x158B JUMP JUMPDEST PUSH0 PUSH1 0x12 PUSH0 DUP4 DUP2 MSTORE PUSH1 0x20 ADD SWAP1 DUP2 MSTORE PUSH1 0x20 ADD PUSH0 KECCAK256 SLOAD SWAP1 POP PUSH0 DUP2 SUB PUSH2 0x1416 JUMPI PUSH1 0x40 MLOAD PUSH32 0x8C379A000000000000000000000000000000000000000000000000000000000 DUP2 MSTORE PUSH1 0x4 ADD PUSH2 0x140D SWAP1 PUSH2 0x37B5 JUMP JUMPDEST PUSH1 0x40 MLOAD DUP1 SWAP2 SUB SWAP1 REVERT JUMPDEST PUSH3 0x2A300 DUP2 PUSH2 0x1425 SWAP2 SWAP1 PUSH2 0x3800 JUMP JUMPDEST TIMESTAMP LT ISZERO PUSH2 0x1467 JUMPI PUSH1 0x40 MLOAD PUSH32 0x8C379A000000000000000000000000000000000000000000000000000000000 DUP2 MSTORE PUSH1 0x4 ADD PUSH2 0x145E SWAP1 PUSH2 0x387D JUMP JUMPDEST PUSH1 0x40 MLOAD DUP1 SWAP2 SUB SWAP1 REVERT JUMPDEST PUSH1 0x12 PUSH0 DUP4 DUP2 MSTORE PUSH1 0x20 ADD SWAP1 DUP2 MSTORE PUSH1 0x20 ADD PUSH0 KECCAK256 PUSH0 SWAP1 SSTORE DUP3 PUSH1 0xD PUSH0 PUSH2 0x100 EXP DUP2 SLOAD DUP2 PUSH1 0xFF MUL NOT AND SWAP1 DUP4 ISZERO ISZERO MUL OR SWAP1 SSTORE POP PUSH32 0x30B4D3DC1BFF9F2A7BF6EB4D8EFF6ADD7B7B1116F695EF27BBD80CEAB8D187E1 DUP4 PUSH1 0x40 MLOAD PUSH2 0x14C3 SWAP2 SWAP1 PUSH2 0x3436 JUMP JUMPDEST PUSH1 0x40 MLOAD DUP1 SWAP2 SUB SWAP1 LOG1 DUP2 PUSH32 0x9B5A634CE9DBCC1CC28DBCE24CD5B30136689FF28F9AE433837BD68895D7D5E0 PUSH1 0x40 MLOAD PUSH1 0x40 MLOAD DUP1 SWAP2 SUB SWAP1 LOG2 POP POP POP JUMP JUMPDEST PUSH2 0x150E PUSH2 0x1508 PUSH2 0x2494 JUMP JUMPDEST DUP3 PUSH2 0x2736 JUMP JUMPDEST POP JUMP JUMPDEST PUSH0 DUP3 DUP3 PUSH1 0x40 MLOAD PUSH1 0x20 ADD PUSH2 0x1525 SWAP3 SWAP2 SWAP1 PUSH2 0x3B4C JUMP JUMPDEST PUSH1 0x40 MLOAD PUSH1 0x20 DUP2 DUP4 SUB SUB DUP2 MSTORE SWAP1 PUSH1 0x40 MSTORE DUP1 MLOAD SWAP1 PUSH1 0x20 ADD KECCAK256 SWAP1 POP SWAP3 SWAP2 POP POP JUMP JUMPDEST PUSH2 0x3E8 DUP2 JUMP JUMPDEST PUSH1 0x8 PUSH0 SWAP1 SLOAD SWAP1 PUSH2 0x100 EXP SWAP1 DIV PUSH20 0xFFFFFFFFFFFFFFFFFFFFFFFFFFFFFFFFFFFFFFFF AND DUP2 JUMP JUMPDEST PUSH1 0xA PUSH1 0x20 MSTORE DUP1 PUSH0 MSTORE PUSH1 0x40 PUSH0 KECCAK256 PUSH0 SWAP2 POP SLOAD SWAP1 PUSH2 0x100 EXP SWAP1 DIV PUSH1 0xFF AND DUP2 JUMP JUMPDEST PUSH0 DUP2 PUSH1 0x40 MLOAD PUSH1 0x20 ADD PUSH2 0x159D SWAP2 SWAP1 PUSH2 0x3BD0 JUMP JUMPDEST PUSH1 0x40 MLOAD PUSH1 0x20 DUP2 DUP4 SUB SUB DUP2 MSTORE SWAP1 PUSH1 0x40 MSTORE DUP1 MLOAD SWAP1 PUSH1 0x20 ADD KECCAK256 SWAP1 POP SWAP2 SWAP1 POP JUMP JUMPDEST PUSH3 0x2A300 DUP2 JUMP JUMPDEST PUSH1 0xE PUSH1 0x20 MSTORE DUP1 PUSH0 MSTORE PUSH1 0x40 PUSH0 KECCAK256 PUSH0 SWAP2 POP SLOAD SWAP1 PUSH2 0x100 EXP SWAP1 DIV PUSH1 0xFF AND DUP2 JUMP JUMPDEST PUSH1 0x11 PUSH1 0x20 MSTORE DUP1 PUSH0 MSTORE PUSH1 0x40 PUSH0 KECCAK256 PUSH0 SWAP2 POP SLOAD SWAP1 PUSH2 0x100 EXP SWAP1 DIV PUSH1 0xFF AND DUP2 JUMP JUMPDEST PUSH2 0x1603 PUSH2 0x24AD JUMP JUMPDEST PUSH2 0x160C DUP2 PUSH2 0x2216 JUMP JUMPDEST PUSH0 PUSH1 0x12 PUSH0 DUP4 DUP2 MSTORE PUSH1 0x20 ADD SWAP1 DUP2 MSTORE PUSH1 0x20 ADD PUSH0 KECCAK256 SLOAD SWAP1 POP PUSH0 DUP2 SUB PUSH2 0x1663 JUMPI PUSH1 0x40 MLOAD PUSH32 0x8C379A000000000000000000000000000000000000000000000000000000000 DUP2 MSTORE PUSH1 0x4 ADD PUSH2 0x165A SWAP1 PUSH2 0x37B5 JUMP JUMPDEST PUSH1 0x40 MLOAD DUP1 SWAP2 SUB SWAP1 REVERT JUMPDEST PUSH3 0x2A300 DUP2 PUSH2 0x1672 SWAP2 SWAP1 PUSH2 0x3800 JUMP JUMPDEST TIMESTAMP LT ISZERO PUSH2 0x16B4 JUMPI PUSH1 0x40 MLOAD PUSH32 0x8C379A000000000000000000000000000000000000000000000000000000000 DUP2 MSTORE PUSH1 0x4 ADD PUSH2 0x16AB SWAP1 PUSH2 0x387D JUMP JUMPDEST PUSH1 0x40 MLOAD DUP1 SWAP2 SUB SWAP1 REVERT JUMPDEST PUSH1 0x12 PUSH0 DUP4 DUP2 MSTORE PUSH1 0x20 ADD SWAP1 DUP2 MSTORE PUSH1 0x20 ADD PUSH0 KECCAK256 PUSH0 SWAP1 SSTORE DUP3 PUSH1 0xF PUSH0 PUSH2 0x100 EXP DUP2 SLOAD DUP2 PUSH1 0xFF MUL NOT AND SWAP1 DUP4 ISZERO ISZERO MUL OR SWAP1 SSTORE POP PUSH32 0x4BFDFE3B0DF4FD4B6C2561042C364D2523D6AA3617F605F19E3FA28247D9220C DUP4 PUSH1 0x40 MLOAD PUSH2 0x1710 SWAP2 SWAP1 PUSH2 0x3436 JUMP JUMPDEST PUSH1 0x40 MLOAD DUP1 SWAP2 SUB SWAP1 LOG1 DUP2 PUSH32 0x9B5A634CE9DBCC1CC28DBCE24CD5B30136689FF28F9AE433837BD68895D7D5E0 PUSH1 0x40 MLOAD PUSH1 0x40 MLOAD DUP1 SWAP2 SUB SWAP1 LOG2 POP POP POP JUMP JUMPDEST PUSH0 DUP3 DUP3 PUSH1 0x40 MLOAD PUSH1 0x20 ADD PUSH2 0x175E SWAP3 SWAP2 SWAP1 PUSH2 0x3C46 JUMP JUMPDEST PUSH1 0x40 MLOAD PUSH1 0x20 DUP2 DUP4 SUB SUB DUP2 MSTORE SWAP1 PUSH1 0x40 MSTORE DUP1 MLOAD SWAP1 PUSH1 0x20 ADD KECCAK256 SWAP1 POP SWAP3 SWAP2 POP POP JUMP JUMPDEST PUSH2 0x1784 PUSH2 0x24AD JUMP JUMPDEST PUSH2 0x178E DUP3 DUP3 PUSH2 0x1FA1 JUMP JUMPDEST PUSH0 PUSH1 0x12 PUSH0 DUP4 DUP2 MSTORE PUSH1 0x20 ADD SWAP1 DUP2 MSTORE PUSH1 0x20 ADD PUSH0 KECCAK256 SLOAD SWAP1 POP PUSH0 DUP2 SUB PUSH2 0x17E5 JUMPI PUSH1 0x40 MLOAD PUSH32 0x8C379A000000000000000000000000000000000000000000000000000000000 DUP2 MSTORE PUSH1 0x4 ADD PUSH2 0x17DC SWAP1 PUSH2 0x37B5 JUMP JUMPDEST PUSH1 0x40 MLOAD DUP1 SWAP2 SUB SWAP1 REVERT JUMPDEST PUSH3 0x2A300 DUP2 PUSH2 0x17F4 SWAP2 SWAP1 PUSH2 0x3800 JUMP JUMPDEST TIMESTAMP LT ISZERO PUSH2 0x1836 JUMPI PUSH1 0x40 MLOAD PUSH32 0x8C379A000000000000000000000000000000000000000000000000000000000 DUP2 MSTORE PUSH1 0x4 ADD PUSH2 0x182D SWAP1 PUSH2 0x387D JUMP JUMPDEST PUSH1 0x40 MLOAD DUP1 SWAP2 SUB SWAP1 REVERT JUMPDEST PUSH1 0x12 PUSH0 DUP4 DUP2 MSTORE PUSH1 0x20 ADD SWAP1 DUP2 MSTORE PUSH1 0x20 ADD PUSH0 KECCAK256 PUSH0 SWAP1 SSTORE DUP3 PUSH1 0xA PUSH0 DUP7 PUSH20 0xFFFFFFFFFFFFFFFFFFFFFFFFFFFFFFFFFFFFFFFF AND PUSH20 0xFFFFFFFFFFFFFFFFFFFFFFFFFFFFFFFFFFFFFFFF AND DUP2 MSTORE PUSH1 0x20 ADD SWAP1 DUP2 MSTORE PUSH1 0x20 ADD PUSH0 KECCAK256 PUSH0 PUSH2 0x100 EXP DUP2 SLOAD DUP2 PUSH1 0xFF MUL NOT AND SWAP1 DUP4 ISZERO ISZERO MUL OR SWAP1 SSTORE POP DUP4 PUSH20 0xFFFFFFFFFFFFFFFFFFFFFFFFFFFFFFFFFFFFFFFF AND PUSH32 0x2D43ABD87B27CEE7B0AA8C6F7E0B4A3247B683262A83CBC2318B0DF398A49AA9 DUP5 PUSH1 0x40 MLOAD PUSH2 0x18E4 SWAP2 SWAP1 PUSH2 0x3436 JUMP JUMPDEST PUSH1 0x40 MLOAD DUP1 SWAP2 SUB SWAP1 LOG2 DUP2 PUSH32 0x9B5A634CE9DBCC1CC28DBCE24CD5B30136689FF28F9AE433837BD68895D7D5E0 PUSH1 0x40 MLOAD PUSH1 0x40 MLOAD DUP1 SWAP2 SUB SWAP1 LOG2 POP POP POP POP JUMP JUMPDEST PUSH0 DUP2 PUSH1 0x40 MLOAD PUSH1 0x20 ADD PUSH2 0x1931 SWAP2 SWAP1 PUSH2 0x3CCA JUMP JUMPDEST PUSH1 0x40 MLOAD PUSH1 0x20 DUP2 DUP4 SUB SUB DUP2 MSTORE SWAP1 PUSH1 0x40 MSTORE DUP1 MLOAD SWAP1 PUSH1 0x20 ADD KECCAK256 SWAP1 POP SWAP2 SWAP1 POP JUMP JUMPDEST PUSH0 PUSH0 PUSH0 DUP4 PUSH20 0xFFFFFFFFFFFFFFFFFFFFFFFFFFFFFFFFFFFFFFFF AND PUSH20 0xFFFFFFFFFFFFFFFFFFFFFFFFFFFFFFFFFFFFFFFF AND DUP2 MSTORE PUSH1 0x20 ADD SWAP1 DUP2 MSTORE PUSH1 0x20 ADD PUSH0 KECCAK256 SLOAD SWAP1 POP SWAP2 SWAP1 POP JUMP JUMPDEST PUSH2 0x199B PUSH2 0x24AD JUMP JUMPDEST PUSH2 0x19A4 PUSH0 PUSH2 0x27B5 JUMP JUMPDEST JUMP JUMPDEST PUSH1 0x10 PUSH1 0x20 MSTORE DUP1 PUSH0 MSTORE PUSH1 0x40 PUSH0 KECCAK256 PUSH0 SWAP2 POP SWAP1 POP SLOAD DUP2 JUMP JUMPDEST PUSH2 0x19C3 PUSH2 0x24AD JUMP JUMPDEST PUSH0 PUSH1 0x12 PUSH0 DUP4 DUP2 MSTORE PUSH1 0x20 ADD SWAP1 DUP2 MSTORE PUSH1 0x20 ADD PUSH0 KECCAK256 SLOAD SUB PUSH2 0x1A16 JUMPI PUSH1 0x40 MLOAD PUSH32 0x8C379A000000000000000000000000000000000000000000000000000000000 DUP2 MSTORE PUSH1 0x4 ADD PUSH2 0x1A0D SWAP1 PUSH2 0x3D40 JUMP JUMPDEST PUSH1 0x40 MLOAD DUP1 SWAP2 SUB SWAP1 REVERT JUMPDEST PUSH1 0x12 PUSH0 DUP3 DUP2 MSTORE PUSH1 0x20 ADD SWAP1 DUP2 MSTORE PUSH1 0x20 ADD PUSH0 KECCAK256 PUSH0 SWAP1 SSTORE DUP1 PUSH32 0x123ABABB6F85AA48B13DE8F5BD2ACB5393E4980D969791661DC9873310070395 PUSH1 0x40 MLOAD PUSH1 0x40 MLOAD DUP1 SWAP2 SUB SWAP1 LOG2 POP JUMP JUMPDEST PUSH2 0x1A6C DUP3 PUSH2 0x1A66 PUSH2 0x2494 JUMP JUMPDEST DUP4 PUSH2 0x2534 JUMP JUMPDEST PUSH2 0x1A76 DUP3 DUP3 PUSH2 0x2736 JUMP JUMPDEST POP POP JUMP JUMPDEST PUSH1 0xF PUSH0 SWAP1 SLOAD SWAP1 PUSH2 0x100 EXP SWAP1 DIV PUSH1 0xFF AND DUP2 JUMP JUMPDEST PUSH1 0xB SLOAD DUP2 JUMP JUMPDEST PUSH0 PUSH1 0x5 PUSH0 SWAP1 SLOAD SWAP1 PUSH2 0x100 EXP SWAP1 DIV PUSH20 0xFFFFFFFFFFFFFFFFFFFFFFFFFFFFFFFFFFFFFFFF AND SWAP1 POP SWAP1 JUMP JUMPDEST PUSH1 0x9 PUSH1 0x20 MSTORE DUP1 PUSH0 MSTORE PUSH1 0x40 PUSH0 KECCAK256 PUSH0 SWAP2 POP SLOAD SWAP1 PUSH2 0x100 EXP SWAP1 DIV PUSH1 0xFF AND DUP2 JUMP JUMPDEST PUSH1 0x60 PUSH1 0x4 DUP1 SLOAD PUSH2 0x1AE6 SWAP1 PUSH2 0x373B JUMP JUMPDEST DUP1 PUSH1 0x1F ADD PUSH1 0x20 DUP1 SWAP2 DIV MUL PUSH1 0x20 ADD PUSH1 0x40 MLOAD SWAP1 DUP2 ADD PUSH1 0x40 MSTORE DUP1 SWAP3 SWAP2 SWAP1 DUP2 DUP2 MSTORE PUSH1 0x20 ADD DUP3 DUP1 SLOAD PUSH2 0x1B12 SWAP1 PUSH2 0x373B JUMP JUMPDEST DUP1 ISZERO PUSH2 0x1B5D JUMPI DUP1 PUSH1 0x1F LT PUSH2 0x1B34 JUMPI PUSH2 0x100 DUP1 DUP4 SLOAD DIV MUL DUP4 MSTORE SWAP2 PUSH1 0x20 ADD SWAP2 PUSH2 0x1B5D JUMP JUMPDEST DUP3 ADD SWAP2 SWAP1 PUSH0 MSTORE PUSH1 0x20 PUSH0 KECCAK256 SWAP1 JUMPDEST DUP2 SLOAD DUP2 MSTORE SWAP1 PUSH1 0x1 ADD SWAP1 PUSH1 0x20 ADD DUP1 DUP4 GT PUSH2 0x1B40 JUMPI DUP3 SWAP1 SUB PUSH1 0x1F AND DUP3 ADD SWAP2 JUMPDEST POP POP POP POP POP SWAP1 POP SWAP1 JUMP JUMPDEST PUSH2 0x1B6F PUSH2 0x24AD JUMP JUMPDEST PUSH2 0x1B79 DUP3 DUP3 PUSH2 0x1043 JUMP JUMPDEST PUSH0 PUSH1 0x12 PUSH0 DUP4 DUP2 MSTORE PUSH1 0x20 ADD SWAP1 DUP2 MSTORE PUSH1 0x20 ADD PUSH0 KECCAK256 SLOAD SWAP1 POP PUSH0 DUP2 SUB PUSH2 0x1BD0 JUMPI PUSH1 0x40 MLOAD PUSH32 0x8C379A000000000000000000000000000000000000000000000000000000000 DUP2 MSTORE PUSH1 0x4 ADD PUSH2 0x1BC7 SWAP1 PUSH2 0x37B5 JUMP JUMPDEST PUSH1 0x40 MLOAD DUP1 SWAP2 SUB SWAP1 REVERT JUMPDEST PUSH3 0x2A300 DUP2 PUSH2 0x1BDF SWAP2 SWAP1 PUSH2 0x3800 JUMP JUMPDEST TIMESTAMP LT ISZERO PUSH2 0x1C21 JUMPI PUSH1 0x40 MLOAD PUSH32 0x8C379A000000000000000000000000000000000000000000000000000000000 DUP2 MSTORE PUSH1 0x4 ADD PUSH2 0x1C18 SWAP1 PUSH2 0x387D JUMP JUMPDEST PUSH1 0x40 MLOAD DUP1 SWAP2 SUB SWAP1 REVERT JUMPDEST PUSH1 0x12 PUSH0 DUP4 DUP2 MSTORE PUSH1 0x20 ADD SWAP1 DUP2 MSTORE PUSH1 0x20 ADD PUSH0 KECCAK256 PUSH0 SWAP1 SSTORE DUP3 PUSH1 0x11 PUSH0 DUP7 PUSH20 0xFFFFFFFFFFFFFFFFFFFFFFFFFFFFFFFFFFFFFFFF AND PUSH20 0xFFFFFFFFFFFFFFFFFFFFFFFFFFFFFFFFFFFFFFFF AND DUP2 MSTORE PUSH1 0x20 ADD SWAP1 DUP2 MSTORE PUSH1 0x20 ADD PUSH0 KECCAK256 PUSH0 PUSH2 0x100 EXP DUP2 SLOAD DUP2 PUSH1 0xFF MUL NOT AND SWAP1 DUP4 ISZERO ISZERO MUL OR SWAP1 SSTORE POP DUP4 PUSH20 0xFFFFFFFFFFFFFFFFFFFFFFFFFFFFFFFFFFFFFFFF AND PUSH32 0xE7439FB2FEA1C5B46EA1E6F50748B4CE40E40D7BB8E75BB0756F382C47CFC434 DUP5 PUSH1 0x40 MLOAD PUSH2 0x1CCF SWAP2 SWAP1 PUSH2 0x3436 JUMP JUMPDEST PUSH1 0x40 MLOAD DUP1 SWAP2 SUB SWAP1 LOG2 DUP2 PUSH32 0x9B5A634CE9DBCC1CC28DBCE24CD5B30136689FF28F9AE433837BD68895D7D5E0 PUSH1 0x40 MLOAD PUSH1 0x40 MLOAD DUP1 SWAP2 SUB SWAP1 LOG2 POP POP POP POP JUMP JUMPDEST PUSH1 0x6 SLOAD DUP2 JUMP JUMPDEST PUSH0 DUP3 DUP3 PUSH1 0x40 MLOAD PUSH1 0x20 ADD PUSH2 0x1D24 SWAP3 SWAP2 SWAP1 PUSH2 0x3DA8 JUMP JUMPDEST PUSH1 0x40 MLOAD PUSH1 0x20 DUP2 DUP4 SUB SUB DUP2 MSTORE SWAP1 PUSH1 0x40 MSTORE DUP1 MLOAD SWAP1 PUSH1 0x20 ADD KECCAK256 SWAP1 POP SWAP3 SWAP2 POP POP JUMP JUMPDEST PUSH2 0x1D4A PUSH2 0x24AD JUMP JUMPDEST PUSH2 0x1D53 DUP2 PUSH2 0x191F JUMP JUMPDEST PUSH0 PUSH1 0x12 PUSH0 DUP4 DUP2 MSTORE PUSH1 0x20 ADD SWAP1 DUP2 MSTORE PUSH1 0x20 ADD PUSH0 KECCAK256 SLOAD SWAP1 POP PUSH0 DUP2 SUB PUSH2 0x1DAA JUMPI PUSH1 0x40 MLOAD PUSH32 0x8C379A000000000000000000000000000000000000000000000000000000000 DUP2 MSTORE PUSH1 0x4 ADD PUSH2 0x1DA1 SWAP1 PUSH2 0x37B5 JUMP JUMPDEST PUSH1 0x40 MLOAD DUP1 SWAP2 SUB SWAP1 REVERT JUMPDEST PUSH3 0x2A300 DUP2 PUSH2 0x1DB9 SWAP2 SWAP1 PUSH2 0x3800 JUMP JUMPDEST TIMESTAMP LT ISZERO PUSH2 0x1DFB JUMPI PUSH1 0x40 MLOAD PUSH32 0x8C379A000000000000000000000000000000000000000000000000000000000 DUP2 MSTORE PUSH1 0x4 ADD PUSH2 0x1DF2 SWAP1 PUSH2 0x387D JUMP JUMPDEST PUSH1 0x40 MLOAD DUP1 SWAP2 SUB SWAP1 REVERT JUMPDEST PUSH1 0x12 PUSH0 DUP4 DUP2 MSTORE PUSH1 0x20 ADD SWAP1 DUP2 MSTORE PUSH1 0x20 ADD PUSH0 KECCAK256 PUSH0 SWAP1 SSTORE PUSH0 PUSH20 0xFFFFFFFFFFFFFFFFFFFFFFFFFFFFFFFFFFFFFFFF AND DUP4 PUSH20 0xFFFFFFFFFFFFFFFFFFFFFFFFFFFFFFFFFFFFFFFF AND SUB PUSH2 0x1E7D JUMPI PUSH1 0x40 MLOAD PUSH32 0x8C379A000000000000000000000000000000000000000000000000000000000 DUP2 MSTORE PUSH1 0x4 ADD PUSH2 0x1E74 SWAP1 PUSH2 0x3E2C JUMP JUMPDEST PUSH1 0x40 MLOAD DUP1 SWAP2 SUB SWAP1 REVERT JUMPDEST DUP3 PUSH1 0x8 PUSH0 PUSH2 0x100 EXP DUP2 SLOAD DUP2 PUSH20 0xFFFFFFFFFFFFFFFFFFFFFFFFFFFFFFFFFFFFFFFF MUL NOT AND SWAP1 DUP4 PUSH20 0xFFFFFFFFFFFFFFFFFFFFFFFFFFFFFFFFFFFFFFFF AND MUL OR SWAP1 SSTORE POP DUP3 PUSH20 0xFFFFFFFFFFFFFFFFFFFFFFFFFFFFFFFFFFFFFFFF AND PUSH32 0x97C79B3848E51F57983AC89E4403452655C8D83CEBA8199011DE63A74F60D1A7 PUSH1 0x40 MLOAD PUSH1 0x40 MLOAD DUP1 SWAP2 SUB SWAP1 LOG2 DUP2 PUSH32 0x9B5A634CE9DBCC1CC28DBCE24CD5B30136689FF28F9AE433837BD68895D7D5E0 PUSH1 0x40 MLOAD PUSH1 0x40 MLOAD DUP1 SWAP2 SUB SWAP1 LOG2 POP POP POP JUMP JUMPDEST PUSH0 PUSH0 PUSH2 0x1F3C PUSH2 0x2494 JUMP JUMPDEST SWAP1 POP PUSH2 0x1F49 DUP2 DUP6 DUP6 PUSH2 0x25C7 JUMP JUMPDEST PUSH1 0x1 SWAP2 POP POP SWAP3 SWAP2 POP POP JUMP JUMPDEST PUSH1 0xC SLOAD DUP2 JUMP JUMPDEST PUSH0 DUP3 DUP3 PUSH1 0x40 MLOAD PUSH1 0x20 ADD PUSH2 0x1F6E SWAP3 SWAP2 SWAP1 PUSH2 0x3E94 JUMP JUMPDEST PUSH1 0x40 MLOAD PUSH1 0x20 DUP2 DUP4 SUB SUB DUP2 MSTORE SWAP1 PUSH1 0x40 MSTORE DUP1 MLOAD SWAP1 PUSH1 0x20 ADD KECCAK256 SWAP1 POP SWAP3 SWAP2 POP POP JUMP JUMPDEST PUSH1 0x12 PUSH1 0x20 MSTORE DUP1 PUSH0 MSTORE PUSH1 0x40 PUSH0 KECCAK256 PUSH0 SWAP2 POP SWAP1 POP SLOAD DUP2 JUMP JUMPDEST PUSH0 DUP3 DUP3 PUSH1 0x40 MLOAD PUSH1 0x20 ADD PUSH2 0x1FB5 SWAP3 SWAP2 SWAP1 PUSH2 0x3F18 JUMP JUMPDEST PUSH1 0x40 MLOAD PUSH1 0x20 DUP2 DUP4 SUB SUB DUP2 MSTORE SWAP1 PUSH1 0x40 MSTORE DUP1 MLOAD SWAP1 PUSH1 0x20 ADD KECCAK256 SWAP1 POP SWAP3 SWAP2 POP POP JUMP JUMPDEST PUSH0 DUP2 PUSH1 0x40 MLOAD PUSH1 0x20 ADD PUSH2 0x1FE5 SWAP2 SWAP1 PUSH2 0x3F9C JUMP JUMPDEST PUSH1 0x40 MLOAD PUSH1 0x20 DUP2 DUP4 SUB SUB DUP2 MSTORE SWAP1 PUSH1 0x40 MSTORE DUP1 MLOAD SWAP1 PUSH1 0x20 ADD KECCAK256 SWAP1 POP SWAP2 SWAP1 POP JUMP JUMPDEST PUSH2 0x200A PUSH2 0x24AD JUMP JUMPDEST PUSH2 0x2014 DUP3 DUP3 PUSH2 0x1D10 JUMP JUMPDEST PUSH0 PUSH1 0x12 PUSH0 DUP4 DUP2 MSTORE PUSH1 0x20 ADD SWAP1 DUP2 MSTORE PUSH1 0x20 ADD PUSH0 KECCAK256 SLOAD SWAP1 POP PUSH0 DUP2 SUB PUSH2 0x206B JUMPI PUSH1 0x40 MLOAD PUSH32 0x8C379A000000000000000000000000000000000000000000000000000000000 DUP2 MSTORE PUSH1 0x4 ADD PUSH2 0x2062 SWAP1 PUSH2 0x37B5 JUMP JUMPDEST PUSH1 0x40 MLOAD DUP1 SWAP2 SUB SWAP1 REVERT JUMPDEST PUSH3 0x2A300 DUP2 PUSH2 0x207A SWAP2 SWAP1 PUSH2 0x3800 JUMP JUMPDEST TIMESTAMP LT ISZERO PUSH2 0x20BC JUMPI PUSH1 0x40 MLOAD PUSH32 0x8C379A000000000000000000000000000000000000000000000000000000000 DUP2 MSTORE PUSH1 0x4 ADD PUSH2 0x20B3 SWAP1 PUSH2 0x387D JUMP JUMPDEST PUSH1 0x40 MLOAD DUP1 SWAP2 SUB SWAP1 REVERT JUMPDEST PUSH1 0x12 PUSH0 DUP4 DUP2 MSTORE PUSH1 0x20 ADD SWAP1 DUP2 MSTORE PUSH1 0x20 ADD PUSH0 KECCAK256 PUSH0 SWAP1 SSTORE PUSH0 PUSH2 0x2710 PUSH1 0x32 PUSH12 0x33B2E3C9FD0803CE8000000 PUSH2 0x20ED SWAP2 SWAP1 PUSH2 0x3FC8 JUMP JUMPDEST PUSH2 0x20F7 SWAP2 SWAP1 PUSH2 0x4036 JUMP JUMPDEST SWAP1 POP DUP1 DUP6 LT ISZERO PUSH2 0x213C JUMPI PUSH1 0x40 MLOAD PUSH32 0x8C379A000000000000000000000000000000000000000000000000000000000 DUP2 MSTORE PUSH1 0x4 ADD PUSH2 0x2133 SWAP1 PUSH2 0x40B0 JUMP JUMPDEST PUSH1 0x40 MLOAD DUP1 SWAP2 SUB SWAP1 REVERT JUMPDEST DUP1 DUP5 LT ISZERO PUSH2 0x217F JUMPI PUSH1 0x40 MLOAD PUSH32 0x8C379A000000000000000000000000000000000000000000000000000000000 DUP2 MSTORE PUSH1 0x4 ADD PUSH2 0x2176 SWAP1 PUSH2 0x4118 JUMP JUMPDEST PUSH1 0x40 MLOAD DUP1 SWAP2 SUB SWAP1 REVERT JUMPDEST DUP5 PUSH1 0xB DUP2 SWAP1 SSTORE POP DUP4 PUSH1 0xC DUP2 SWAP1 SSTORE POP PUSH32 0x4D4981437D0211F9E6843EB024D9ADA1FA3A99514D4343D4AECE106DD11524BB DUP6 DUP6 PUSH1 0x40 MLOAD PUSH2 0x21BE SWAP3 SWAP2 SWAP1 PUSH2 0x396B JUMP JUMPDEST PUSH1 0x40 MLOAD DUP1 SWAP2 SUB SWAP1 LOG1 POP DUP2 PUSH32 0x9B5A634CE9DBCC1CC28DBCE24CD5B30136689FF28F9AE433837BD68895D7D5E0 PUSH1 0x40 MLOAD PUSH1 0x40 MLOAD DUP1 SWAP2 SUB SWAP1 LOG2 POP POP POP POP JUMP JUMPDEST PUSH1 0x2 PUSH12 0x33B2E3C9FD0803CE8000000 PUSH2 0x2213 SWAP2 SWAP1 PUSH2 0x4036 JUMP JUMPDEST DUP2 JUMP JUMPDEST PUSH0 DUP2 PUSH1 0x40 MLOAD PUSH1 0x20 ADD PUSH2 0x2228 SWAP2 SWAP1 PUSH2 0x4180 JUMP JUMPDEST PUSH1 0x40 MLOAD PUSH1 0x20 DUP2 DUP4 SUB SUB DUP2 MSTORE SWAP1 PUSH1 0x40 MSTORE DUP1 MLOAD SWAP1 PUSH1 0x20 ADD KECCAK256 SWAP1 POP SWAP2 SWAP1 POP JUMP JUMPDEST PUSH0 PUSH1 0x1 PUSH0 DUP5 PUSH20 0xFFFFFFFFFFFFFFFFFFFFFFFFFFFFFFFFFFFFFFFF AND PUSH20 0xFFFFFFFFFFFFFFFFFFFFFFFFFFFFFFFFFFFFFFFF AND DUP2 MSTORE PUSH1 0x20 ADD SWAP1 DUP2 MSTORE PUSH1 0x20 ADD PUSH0 KECCAK256 PUSH0 DUP4 PUSH20 0xFFFFFFFFFFFFFFFFFFFFFFFFFFFFFFFFFFFFFFFF AND PUSH20 0xFFFFFFFFFFFFFFFFFFFFFFFFFFFFFFFFFFFFFFFF AND DUP2 MSTORE PUSH1 0x20 ADD SWAP1 DUP2 MSTORE PUSH1 0x20 ADD PUSH0 KECCAK256 SLOAD SWAP1 POP SWAP3 SWAP2 POP POP JUMP JUMPDEST PUSH1 0x7 SLOAD DUP2 JUMP JUMPDEST PUSH1 0x32 DUP2 JUMP JUMPDEST PUSH2 0x22DA PUSH2 0x24AD JUMP JUMPDEST PUSH2 0x22E3 DUP2 PUSH2 0x1FD3 JUMP JUMPDEST PUSH0 PUSH1 0x12 PUSH0 DUP4 DUP2 MSTORE PUSH1 0x20 ADD SWAP1 DUP2 MSTORE PUSH1 0x20 ADD PUSH0 KECCAK256 SLOAD SWAP1 POP PUSH0 DUP2 SUB PUSH2 0x233A JUMPI PUSH1 0x40 MLOAD PUSH32 0x8C379A000000000000000000000000000000000000000000000000000000000 DUP2 MSTORE PUSH1 0x4 ADD PUSH2 0x2331 SWAP1 PUSH2 0x37B5 JUMP JUMPDEST PUSH1 0x40 MLOAD DUP1 SWAP2 SUB SWAP1 REVERT JUMPDEST PUSH3 0x2A300 DUP2 PUSH2 0x2349 SWAP2 SWAP1 PUSH2 0x3800 JUMP JUMPDEST TIMESTAMP LT ISZERO PUSH2 0x238B JUMPI PUSH1 0x40 MLOAD PUSH32 0x8C379A000000000000000000000000000000000000000000000000000000000 DUP2 MSTORE PUSH1 0x4 ADD PUSH2 0x2382 SWAP1 PUSH2 0x387D JUMP JUMPDEST PUSH1 0x40 MLOAD DUP1 SWAP2 SUB SWAP1 REVERT JUMPDEST PUSH1 0x12 PUSH0 DUP4 DUP2 MSTORE PUSH1 0x20 ADD SWAP1 DUP2 MSTORE PUSH1 0x20 ADD PUSH0 KECCAK256 PUSH0 SWAP1 SSTORE PUSH2 0x23A8 DUP4 PUSH2 0x27B5 JUMP JUMPDEST DUP2 PUSH32 0x9B5A634CE9DBCC1CC28DBCE24CD5B30136689FF28F9AE433837BD68895D7D5E0 PUSH1 0x40 MLOAD PUSH1 0x40 MLOAD DUP1 SWAP2 SUB SWAP1 LOG2 POP POP POP JUMP JUMPDEST PUSH2 0x23E2 PUSH2 0x24AD JUMP JUMPDEST PUSH0 PUSH1 0x12 PUSH0 DUP4 DUP2 MSTORE PUSH1 0x20 ADD SWAP1 DUP2 MSTORE PUSH1 0x20 ADD PUSH0 KECCAK256 SLOAD EQ PUSH2 0x2435 JUMPI PUSH1 0x40 MLOAD PUSH32 0x8C379A000000000000000000000000000000000000000000000000000000000 DUP2 MSTORE PUSH1 0x4 ADD PUSH2 0x242C SWAP1 PUSH2 0x41F6 JUMP JUMPDEST PUSH1 0x40 MLOAD DUP1 SWAP2 SUB SWAP1 REVERT JUMPDEST TIMESTAMP PUSH1 0x12 PUSH0 DUP4 DUP2 MSTORE PUSH1 0x20 ADD SWAP1 DUP2 MSTORE PUSH1 0x20 ADD PUSH0 KECCAK256 DUP2 SWAP1 SSTORE POP DUP1 PUSH32 0xCED743ED91999D6937D1E4F38F3F95262C40A9E042556E690DA08A91F7EC8E17 PUSH3 0x2A300 TIMESTAMP PUSH2 0x247C SWAP2 SWAP1 PUSH2 0x3800 JUMP JUMPDEST PUSH1 0x40 MLOAD PUSH2 0x2489 SWAP2 SWAP1 PUSH2 0x3535 JUMP JUMPDEST PUSH1 0x40 MLOAD DUP1 SWAP2 SUB SWAP1 LOG2 POP JUMP JUMPDEST PUSH0 CALLER SWAP1 POP SWAP1 JUMP JUMPDEST PUSH2 0x24A8 DUP4 DUP4 DUP4 PUSH1 0x1 PUSH2 0x2878 JUMP JUMPDEST POP POP POP JUMP JUMPDEST PUSH2 0x24B5 PUSH2 0x2494 JUMP JUMPDEST PUSH20 0xFFFFFFFFFFFFFFFFFFFFFFFFFFFFFFFFFFFFFFFF AND PUSH2 0x24D3 PUSH2 0x1A92 JUMP JUMPDEST PUSH20 0xFFFFFFFFFFFFFFFFFFFFFFFFFFFFFFFFFFFFFFFF AND EQ PUSH2 0x2532 JUMPI PUSH2 0x24F6 PUSH2 0x2494 JUMP JUMPDEST PUSH1 0x40 MLOAD PUSH32 0x118CDAA700000000000000000000000000000000000000000000000000000000 DUP2 MSTORE PUSH1 0x4 ADD PUSH2 0x2529 SWAP2 SWAP1 PUSH2 0x3637 JUMP JUMPDEST PUSH1 0x40 MLOAD DUP1 SWAP2 SUB SWAP1 REVERT JUMPDEST JUMP JUMPDEST PUSH0 PUSH2 0x253F DUP5 DUP5 PUSH2 0x2245 JUMP JUMPDEST SWAP1 POP PUSH32 0xFFFFFFFFFFFFFFFFFFFFFFFFFFFFFFFFFFFFFFFFFFFFFFFFFFFFFFFFFFFFFFFF DUP2 LT ISZERO PUSH2 0x25C1 JUMPI DUP2 DUP2 LT ISZERO PUSH2 0x25B2 JUMPI DUP3 DUP2 DUP4 PUSH1 0x40 MLOAD PUSH32 0xFB8F41B200000000000000000000000000000000000000000000000000000000 DUP2 MSTORE PUSH1 0x4 ADD PUSH2 0x25A9 SWAP4 SWAP3 SWAP2 SWAP1 PUSH2 0x4214 JUMP JUMPDEST PUSH1 0x40 MLOAD DUP1 SWAP2 SUB SWAP1 REVERT JUMPDEST PUSH2 0x25C0 DUP5 DUP5 DUP5 DUP5 SUB PUSH0 PUSH2 0x2878 JUMP JUMPDEST JUMPDEST POP POP POP POP JUMP JUMPDEST PUSH0 PUSH20 0xFFFFFFFFFFFFFFFFFFFFFFFFFFFFFFFFFFFFFFFF AND DUP4 PUSH20 0xFFFFFFFFFFFFFFFFFFFFFFFFFFFFFFFFFFFFFFFF AND SUB PUSH2 0x2637 JUMPI PUSH0 PUSH1 0x40 MLOAD PUSH32 0x96C6FD1E00000000000000000000000000000000000000000000000000000000 DUP2 MSTORE PUSH1 0x4 ADD PUSH2 0x262E SWAP2 SWAP1 PUSH2 0x3637 JUMP JUMPDEST PUSH1 0x40 MLOAD DUP1 SWAP2 SUB SWAP1 REVERT JUMPDEST PUSH0 PUSH20 0xFFFFFFFFFFFFFFFFFFFFFFFFFFFFFFFFFFFFFFFF AND DUP3 PUSH20 0xFFFFFFFFFFFFFFFFFFFFFFFFFFFFFFFFFFFFFFFF AND SUB PUSH2 0x26A7 JUMPI PUSH0 PUSH1 0x40 MLOAD PUSH32 0xEC442F0500000000000000000000000000000000000000000000000000000000 DUP2 MSTORE PUSH1 0x4 ADD PUSH2 0x269E SWAP2 SWAP1 PUSH2 0x3637 JUMP JUMPDEST PUSH1 0x40 MLOAD DUP1 SWAP2 SUB SWAP1 REVERT JUMPDEST PUSH2 0x26B2 DUP4 DUP4 DUP4 PUSH2 0x2A47 JUMP JUMPDEST POP POP POP JUMP JUMPDEST PUSH0 PUSH20 0xFFFFFFFFFFFFFFFFFFFFFFFFFFFFFFFFFFFFFFFF AND DUP3 PUSH20 0xFFFFFFFFFFFFFFFFFFFFFFFFFFFFFFFFFFFFFFFF AND SUB PUSH2 0x2727 JUMPI PUSH0 PUSH1 0x40 MLOAD PUSH32 0xEC442F0500000000000000000000000000000000000000000000000000000000 DUP2 MSTORE PUSH1 0x4 ADD PUSH2 0x271E SWAP2 SWAP1 PUSH2 0x3637 JUMP JUMPDEST PUSH1 0x40 MLOAD DUP1 SWAP2 SUB SWAP1 REVERT JUMPDEST PUSH2 0x2732 PUSH0 DUP4 DUP4 PUSH2 0x2A47 JUMP JUMPDEST POP POP JUMP JUMPDEST PUSH0 PUSH20 0xFFFFFFFFFFFFFFFFFFFFFFFFFFFFFFFFFFFFFFFF AND DUP3 PUSH20 0xFFFFFFFFFFFFFFFFFFFFFFFFFFFFFFFFFFFFFFFF AND SUB PUSH2 0x27A6 JUMPI PUSH0 PUSH1 0x40 MLOAD PUSH32 0x96C6FD1E00000000000000000000000000000000000000000000000000000000 DUP2 MSTORE PUSH1 0x4 ADD PUSH2 0x279D SWAP2 SWAP1 PUSH2 0x3637 JUMP JUMPDEST PUSH1 0x40 MLOAD DUP1 SWAP2 SUB SWAP1 REVERT JUMPDEST PUSH2 0x27B1 DUP3 PUSH0 DUP4 PUSH2 0x2A47 JUMP JUMPDEST POP POP JUMP JUMPDEST PUSH0 PUSH1 0x5 PUSH0 SWAP1 SLOAD SWAP1 PUSH2 0x100 EXP SWAP1 DIV PUSH20 0xFFFFFFFFFFFFFFFFFFFFFFFFFFFFFFFFFFFFFFFF AND SWAP1 POP DUP2 PUSH1 0x5 PUSH0 PUSH2 0x100 EXP DUP2 SLOAD DUP2 PUSH20 0xFFFFFFFFFFFFFFFFFFFFFFFFFFFFFFFFFFFFFFFF MUL NOT AND SWAP1 DUP4 PUSH20 0xFFFFFFFFFFFFFFFFFFFFFFFFFFFFFFFFFFFFFFFF AND MUL OR SWAP1 SSTORE POP DUP2 PUSH20 0xFFFFFFFFFFFFFFFFFFFFFFFFFFFFFFFFFFFFFFFF AND DUP2 PUSH20 0xFFFFFFFFFFFFFFFFFFFFFFFFFFFFFFFFFFFFFFFF AND PUSH32 0x8BE0079C531659141344CD1FD0A4F28419497F9722A3DAAFE3B4186F6B6457E0 PUSH1 0x40 MLOAD PUSH1 0x40 MLOAD DUP1 SWAP2 SUB SWAP1 LOG3 POP POP JUMP JUMPDEST PUSH0 PUSH20 0xFFFFFFFFFFFFFFFFFFFFFFFFFFFFFFFFFFFFFFFF AND DUP5 PUSH20 0xFFFFFFFFFFFFFFFFFFFFFFFFFFFFFFFFFFFFFFFF AND SUB PUSH2 0x28E8 JUMPI PUSH0 PUSH1 0x40 MLOAD PUSH32 0xE602DF0500000000000000000000000000000000000000000000000000000000 DUP2 MSTORE PUSH1 0x4 ADD PUSH2 0x28DF SWAP2 SWAP1 PUSH2 0x3637 JUMP JUMPDEST PUSH1 0x40 MLOAD DUP1 SWAP2 SUB SWAP1 REVERT JUMPDEST PUSH0 PUSH20 0xFFFFFFFFFFFFFFFFFFFFFFFFFFFFFFFFFFFFFFFF AND DUP4 PUSH20 0xFFFFFFFFFFFFFFFFFFFFFFFFFFFFFFFFFFFFFFFF AND SUB PUSH2 0x2958 JUMPI PUSH0 PUSH1 0x40 MLOAD PUSH32 0x94280D6200000000000000000000000000000000000000000000000000000000 DUP2 MSTORE PUSH1 0x4 ADD PUSH2 0x294F SWAP2 SWAP1 PUSH2 0x3637 JUMP JUMPDEST PUSH1 0x40 MLOAD DUP1 SWAP2 SUB SWAP1 REVERT JUMPDEST DUP2 PUSH1 0x1 PUSH0 DUP7 PUSH20 0xFFFFFFFFFFFFFFFFFFFFFFFFFFFFFFFFFFFFFFFF AND PUSH20 0xFFFFFFFFFFFFFFFFFFFFFFFFFFFFFFFFFFFFFFFF AND DUP2 MSTORE PUSH1 0x20 ADD SWAP1 DUP2 MSTORE PUSH1 0x20 ADD PUSH0 KECCAK256 PUSH0 DUP6 PUSH20 0xFFFFFFFFFFFFFFFFFFFFFFFFFFFFFFFFFFFFFFFF AND PUSH20 0xFFFFFFFFFFFFFFFFFFFFFFFFFFFFFFFFFFFFFFFF AND DUP2 MSTORE PUSH1 0x20 ADD SWAP1 DUP2 MSTORE PUSH1 0x20 ADD PUSH0 KECCAK256 DUP2 SWAP1 SSTORE POP DUP1 ISZERO PUSH2 0x2A41 JUMPI DUP3 PUSH20 0xFFFFFFFFFFFFFFFFFFFFFFFFFFFFFFFFFFFFFFFF AND DUP5 PUSH20 0xFFFFFFFFFFFFFFFFFFFFFFFFFFFFFFFFFFFFFFFF AND PUSH32 0x8C5BE1E5EBEC7D5BD14F71427D1E84F3DD0314C0F7B2291E5B200AC8C7C3B925 DUP5 PUSH1 0x40 MLOAD PUSH2 0x2A38 SWAP2 SWAP1 PUSH2 0x3535 JUMP JUMPDEST PUSH1 0x40 MLOAD DUP1 SWAP2 SUB SWAP1 LOG3 JUMPDEST POP POP POP POP JUMP JUMPDEST PUSH0 PUSH0 PUSH20 0xFFFFFFFFFFFFFFFFFFFFFFFFFFFFFFFFFFFFFFFF AND DUP5 PUSH20 0xFFFFFFFFFFFFFFFFFFFFFFFFFFFFFFFFFFFFFFFF AND EQ DUP1 PUSH2 0x2AAD JUMPI POP PUSH0 PUSH20 0xFFFFFFFFFFFFFFFFFFFFFFFFFFFFFFFFFFFFFFFF AND DUP4 PUSH20 0xFFFFFFFFFFFFFFFFFFFFFFFFFFFFFFFFFFFFFFFF AND EQ JUMPDEST SWAP1 POP PUSH1 0xD PUSH0 SWAP1 SLOAD SWAP1 PUSH2 0x100 EXP SWAP1 DIV PUSH1 0xFF AND DUP1 ISZERO PUSH2 0x2AC8 JUMPI POP DUP1 ISZERO JUMPDEST ISZERO PUSH2 0x2C5E JUMPI PUSH1 0xE PUSH0 DUP6 PUSH20 0xFFFFFFFFFFFFFFFFFFFFFFFFFFFFFFFFFFFFFFFF AND PUSH20 0xFFFFFFFFFFFFFFFFFFFFFFFFFFFFFFFFFFFFFFFF AND DUP2 MSTORE PUSH1 0x20 ADD SWAP1 DUP2 MSTORE PUSH1 0x20 ADD PUSH0 KECCAK256 PUSH0 SWAP1 SLOAD SWAP1 PUSH2 0x100 EXP SWAP1 DIV PUSH1 0xFF AND ISZERO DUP1 ISZERO PUSH2 0x2B6B JUMPI POP PUSH1 0xE PUSH0 DUP5 PUSH20 0xFFFFFFFFFFFFFFFFFFFFFFFFFFFFFFFFFFFFFFFF AND PUSH20 0xFFFFFFFFFFFFFFFFFFFFFFFFFFFFFFFFFFFFFFFF AND DUP2 MSTORE PUSH1 0x20 ADD SWAP1 DUP2 MSTORE PUSH1 0x20 ADD PUSH0 KECCAK256 PUSH0 SWAP1 SLOAD SWAP1 PUSH2 0x100 EXP SWAP1 DIV PUSH1 0xFF AND ISZERO JUMPDEST ISZERO PUSH2 0x2BB6 JUMPI PUSH1 0xB SLOAD DUP3 GT ISZERO PUSH2 0x2BB5 JUMPI PUSH1 0x40 MLOAD PUSH32 0x8C379A000000000000000000000000000000000000000000000000000000000 DUP2 MSTORE PUSH1 0x4 ADD PUSH2 0x2BAC SWAP1 PUSH2 0x4293 JUMP JUMPDEST PUSH1 0x40 MLOAD DUP1 SWAP2 SUB SWAP1 REVERT JUMPDEST JUMPDEST PUSH1 0xE PUSH0 DUP5 PUSH20 0xFFFFFFFFFFFFFFFFFFFFFFFFFFFFFFFFFFFFFFFF AND PUSH20 0xFFFFFFFFFFFFFFFFFFFFFFFFFFFFFFFFFFFFFFFF AND DUP2 MSTORE PUSH1 0x20 ADD SWAP1 DUP2 MSTORE PUSH1 0x20 ADD PUSH0 KECCAK256 PUSH0 SWAP1 SLOAD SWAP1 PUSH2 0x100 EXP SWAP1 DIV PUSH1 0xFF AND PUSH2 0x2C5D JUMPI PUSH1 0xC SLOAD DUP3 PUSH2 0x2C11 DUP6 PUSH2 0x194E JUMP JUMPDEST PUSH2 0x2C1B SWAP2 SWAP1 PUSH2 0x3800 JUMP JUMPDEST GT ISZERO PUSH2 0x2C5C JUMPI PUSH1 0x40 MLOAD PUSH32 0x8C379A000000000000000000000000000000000000000000000000000000000 DUP2 MSTORE PUSH1 0x4 ADD PUSH2 0x2C53 SWAP1 PUSH2 0x42FB JUMP JUMPDEST PUSH1 0x40 MLOAD DUP1 SWAP2 SUB SWAP1 REVERT JUMPDEST JUMPDEST JUMPDEST PUSH0 DUP2 ISZERO DUP1 ISZERO PUSH2 0x2D04 JUMPI POP PUSH1 0x9 PUSH0 DUP7 PUSH20 0xFFFFFFFFFFFFFFFFFFFFFFFFFFFFFFFFFFFFFFFF AND PUSH20 0xFFFFFFFFFFFFFFFFFFFFFFFFFFFFFFFFFFFFFFFF AND DUP2 MSTORE PUSH1 0x20 ADD SWAP1 DUP2 MSTORE PUSH1 0x20 ADD PUSH0 KECCAK256 PUSH0 SWAP1 SLOAD SWAP1 PUSH2 0x100 EXP SWAP1 DIV PUSH1 0xFF AND DUP1 PUSH2 0x2D03 JUMPI POP PUSH1 0x9 PUSH0 DUP6 PUSH20 0xFFFFFFFFFFFFFFFFFFFFFFFFFFFFFFFFFFFFFFFF AND PUSH20 0xFFFFFFFFFFFFFFFFFFFFFFFFFFFFFFFFFFFFFFFF AND DUP2 MSTORE PUSH1 0x20 ADD SWAP1 DUP2 MSTORE PUSH1 0x20 ADD PUSH0 KECCAK256 PUSH0 SWAP1 SLOAD SWAP1 PUSH2 0x100 EXP SWAP1 DIV PUSH1 0xFF AND JUMPDEST JUMPDEST DUP1 ISZERO PUSH2 0x2D57 JUMPI POP PUSH1 0xA PUSH0 DUP7 PUSH20 0xFFFFFFFFFFFFFFFFFFFFFFFFFFFFFFFFFFFFFFFF AND PUSH20 0xFFFFFFFFFFFFFFFFFFFFFFFFFFFFFFFFFFFFFFFF AND DUP2 MSTORE PUSH1 0x20 ADD SWAP1 DUP2 MSTORE PUSH1 0x20 ADD PUSH0 KECCAK256 PUSH0 SWAP1 SLOAD SWAP1 PUSH2 0x100 EXP SWAP1 DIV PUSH1 0xFF AND ISZERO JUMPDEST DUP1 ISZERO PUSH2 0x2DAA JUMPI POP PUSH1 0xA PUSH0 DUP6 PUSH20 0xFFFFFFFFFFFFFFFFFFFFFFFFFFFFFFFFFFFFFFFF AND PUSH20 0xFFFFFFFFFFFFFFFFFFFFFFFFFFFFFFFFFFFFFFFF AND DUP2 MSTORE PUSH1 0x20 ADD SWAP1 DUP2 MSTORE PUSH1 0x20 ADD PUSH0 KECCAK256 PUSH0 SWAP1 SLOAD SWAP1 PUSH2 0x100 EXP SWAP1 DIV PUSH1 0xFF AND ISZERO JUMPDEST SWAP1 POP PUSH1 0xF PUSH0 SWAP1 SLOAD SWAP1 PUSH2 0x100 EXP SWAP1 DIV PUSH1 0xFF AND DUP1 ISZERO PUSH2 0x2DC5 JUMPI POP DUP2 ISZERO JUMPDEST DUP1 ISZERO PUSH2 0x2E68 JUMPI POP PUSH1 0x9 PUSH0 DUP7 PUSH20 0xFFFFFFFFFFFFFFFFFFFFFFFFFFFFFFFFFFFFFFFF AND PUSH20 0xFFFFFFFFFFFFFFFFFFFFFFFFFFFFFFFFFFFFFFFF AND DUP2 MSTORE PUSH1 0x20 ADD SWAP1 DUP2 MSTORE PUSH1 0x20 ADD PUSH0 KECCAK256 PUSH0 SWAP1 SLOAD SWAP1 PUSH2 0x100 EXP SWAP1 DIV PUSH1 0xFF AND DUP1 PUSH2 0x2E67 JUMPI POP PUSH1 0x9 PUSH0 DUP6 PUSH20 0xFFFFFFFFFFFFFFFFFFFFFFFFFFFFFFFFFFFFFFFF AND PUSH20 0xFFFFFFFFFFFFFFFFFFFFFFFFFFFFFFFFFFFFFFFF AND DUP2 MSTORE PUSH1 0x20 ADD SWAP1 DUP2 MSTORE PUSH1 0x20 ADD PUSH0 KECCAK256 PUSH0 SWAP1 SLOAD SWAP1 PUSH2 0x100 EXP SWAP1 DIV PUSH1 0xFF AND JUMPDEST JUMPDEST ISZERO PUSH2 0x2FD8 JUMPI PUSH0 PUSH1 0x9 PUSH0 DUP8 PUSH20 0xFFFFFFFFFFFFFFFFFFFFFFFFFFFFFFFFFFFFFFFF AND PUSH20 0xFFFFFFFFFFFFFFFFFFFFFFFFFFFFFFFFFFFFFFFF AND DUP2 MSTORE PUSH1 0x20 ADD SWAP1 DUP2 MSTORE PUSH1 0x20 ADD PUSH0 KECCAK256 PUSH0 SWAP1 SLOAD SWAP1 PUSH2 0x100 EXP SWAP1 DIV PUSH1 0xFF AND PUSH2 0x2EC2 JUMPI DUP6 PUSH2 0x2EC4 JUMP JUMPDEST DUP5 JUMPDEST SWAP1 POP PUSH1 0x11 PUSH0 DUP3 PUSH20 0xFFFFFFFFFFFFFFFFFFFFFFFFFFFFFFFFFFFFFFFF AND PUSH20 0xFFFFFFFFFFFFFFFFFFFFFFFFFFFFFFFFFFFFFFFF AND DUP2 MSTORE PUSH1 0x20 ADD SWAP1 DUP2 MSTORE PUSH1 0x20 ADD PUSH0 KECCAK256 PUSH0 SWAP1 SLOAD SWAP1 PUSH2 0x100 EXP SWAP1 DIV PUSH1 0xFF AND PUSH2 0x2FD6 JUMPI NUMBER PUSH1 0x10 PUSH0 DUP4 PUSH20 0xFFFFFFFFFFFFFFFFFFFFFFFFFFFFFFFFFFFFFFFF AND PUSH20 0xFFFFFFFFFFFFFFFFFFFFFFFFFFFFFFFFFFFFFFFF AND DUP2 MSTORE PUSH1 0x20 ADD SWAP1 DUP2 MSTORE PUSH1 0x20 ADD PUSH0 KECCAK256 SLOAD SUB PUSH2 0x2F93 JUMPI PUSH1 0x40 MLOAD PUSH32 0x8C379A000000000000000000000000000000000000000000000000000000000 DUP2 MSTORE PUSH1 0x4 ADD PUSH2 0x2F8A SWAP1 PUSH2 0x4363 JUMP JUMPDEST PUSH1 0x40 MLOAD DUP1 SWAP2 SUB SWAP1 REVERT JUMPDEST NUMBER PUSH1 0x10 PUSH0 DUP4 PUSH20 0xFFFFFFFFFFFFFFFFFFFFFFFFFFFFFFFFFFFFFFFF AND PUSH20 0xFFFFFFFFFFFFFFFFFFFFFFFFFFFFFFFFFFFFFFFF AND DUP2 MSTORE PUSH1 0x20 ADD SWAP1 DUP2 MSTORE PUSH1 0x20 ADD PUSH0 KECCAK256 DUP2 SWAP1 SSTORE POP JUMPDEST POP JUMPDEST DUP1 PUSH2 0x2FEF JUMPI PUSH2 0x2FE8 DUP6 DUP6 DUP6 PUSH2 0x30A4 JUMP JUMPDEST POP POP PUSH2 0x309F JUMP JUMPDEST PUSH0 PUSH2 0x2710 PUSH1 0x6 SLOAD DUP6 PUSH2 0x3001 SWAP2 SWAP1 PUSH2 0x3FC8 JUMP JUMPDEST PUSH2 0x300B SWAP2 SWAP1 PUSH2 0x4036 JUMP JUMPDEST SWAP1 POP PUSH0 PUSH2 0x2710 PUSH1 0x7 SLOAD DUP7 PUSH2 0x301F SWAP2 SWAP1 PUSH2 0x3FC8 JUMP JUMPDEST PUSH2 0x3029 SWAP2 SWAP1 PUSH2 0x4036 JUMP JUMPDEST SWAP1 POP PUSH0 DUP2 DUP4 DUP8 PUSH2 0x3039 SWAP2 SWAP1 PUSH2 0x4381 JUMP JUMPDEST PUSH2 0x3043 SWAP2 SWAP1 PUSH2 0x4381 JUMP JUMPDEST SWAP1 POP PUSH0 DUP4 GT ISZERO PUSH2 0x3059 JUMPI PUSH2 0x3058 DUP9 PUSH0 DUP6 PUSH2 0x30A4 JUMP JUMPDEST JUMPDEST PUSH0 DUP3 GT ISZERO PUSH2 0x308E JUMPI PUSH2 0x308D DUP9 PUSH1 0x8 PUSH0 SWAP1 SLOAD SWAP1 PUSH2 0x100 EXP SWAP1 DIV PUSH20 0xFFFFFFFFFFFFFFFFFFFFFFFFFFFFFFFFFFFFFFFF AND DUP5 PUSH2 0x30A4 JUMP JUMPDEST JUMPDEST PUSH2 0x3099 DUP9 DUP9 DUP4 PUSH2 0x30A4 JUMP JUMPDEST POP POP POP POP POP JUMPDEST POP POP POP JUMP JUMPDEST PUSH0 PUSH20 0xFFFFFFFFFFFFFFFFFFFFFFFFFFFFFFFFFFFFFFFF AND DUP4 PUSH20 0xFFFFFFFFFFFFFFFFFFFFFFFFFFFFFFFFFFFFFFFF AND SUB PUSH2 0x30F4 JUMPI DUP1 PUSH1 0x2 PUSH0 DUP3 DUP3 SLOAD PUSH2 0x30E8 SWAP2 SWAP1 PUSH2 0x3800 JUMP JUMPDEST SWAP3 POP POP DUP2 SWAP1 SSTORE POP PUSH2 0x31C2 JUMP JUMPDEST PUSH0 PUSH0 PUSH0 DUP6 PUSH20 0xFFFFFFFFFFFFFFFFFFFFFFFFFFFFFFFFFFFFFFFF AND PUSH20 0xFFFFFFFFFFFFFFFFFFFFFFFFFFFFFFFFFFFFFFFF AND DUP2 MSTORE PUSH1 0x20 ADD SWAP1 DUP2 MSTORE PUSH1 0x20 ADD PUSH0 KECCAK256 SLOAD SWAP1 POP DUP2 DUP2 LT ISZERO PUSH2 0x317D JUMPI DUP4 DUP2 DUP4 PUSH1 0x40 MLOAD PUSH32 0xE450D38C00000000000000000000000000000000000000000000000000000000 DUP2 MSTORE PUSH1 0x4 ADD PUSH2 0x3174 SWAP4 SWAP3 SWAP2 SWAP1 PUSH2 0x4214 JUMP JUMPDEST PUSH1 0x40 MLOAD DUP1 SWAP2 SUB SWAP1 REVERT JUMPDEST DUP2 DUP2 SUB PUSH0 PUSH0 DUP7 PUSH20 0xFFFFFFFFFFFFFFFFFFFFFFFFFFFFFFFFFFFFFFFF AND PUSH20 0xFFFFFFFFFFFFFFFFFFFFFFFFFFFFFFFFFFFFFFFF AND DUP2 MSTORE PUSH1 0x20 ADD SWAP1 DUP2 MSTORE PUSH1 0x20 ADD PUSH0 KECCAK256 DUP2 SWAP1 SSTORE POP POP JUMPDEST PUSH0 PUSH20 0xFFFFFFFFFFFFFFFFFFFFFFFFFFFFFFFFFFFFFFFF AND DUP3 PUSH20 0xFFFFFFFFFFFFFFFFFFFFFFFFFFFFFFFFFFFFFFFF AND SUB PUSH2 0x3209 JUMPI DUP1 PUSH1 0x2 PUSH0 DUP3 DUP3 SLOAD SUB SWAP3 POP POP DUP2 SWAP1 SSTORE POP PUSH2 0x3253 JUMP JUMPDEST DUP1 PUSH0 PUSH0 DUP5 PUSH20 0xFFFFFFFFFFFFFFFFFFFFFFFFFFFFFFFFFFFFFFFF AND PUSH20 0xFFFFFFFFFFFFFFFFFFFFFFFFFFFFFFFFFFFFFFFF AND DUP2 MSTORE PUSH1 0x20 ADD SWAP1 DUP2 MSTORE PUSH1 0x20 ADD PUSH0 KECCAK256 PUSH0 DUP3 DUP3 SLOAD ADD SWAP3 POP POP DUP2 SWAP1 SSTORE POP JUMPDEST DUP2 PUSH20 0xFFFFFFFFFFFFFFFFFFFFFFFFFFFFFFFFFFFFFFFF AND DUP4 PUSH20 0xFFFFFFFFFFFFFFFFFFFFFFFFFFFFFFFFFFFFFFFF AND PUSH32 0xDDF252AD1BE2C89B69C2B068FC378DAA952BA7F163C4A11628F55A4DF523B3EF DUP4 PUSH1 0x40 MLOAD PUSH2 0x32B0 SWAP2 SWAP1 PUSH2 0x3535 JUMP JUMPDEST PUSH1 0x40 MLOAD DUP1 SWAP2 SUB SWAP1 LOG3 POP POP POP JUMP JUMPDEST PUSH0 DUP2 MLOAD SWAP1 POP SWAP2 SWAP1 POP JUMP JUMPDEST PUSH0 DUP3 DUP3 MSTORE PUSH1 0x20 DUP3 ADD SWAP1 POP SWAP3 SWAP2 POP POP JUMP JUMPDEST DUP3 DUP2 DUP4 MCOPY PUSH0 DUP4 DUP4 ADD MSTORE POP POP POP JUMP JUMPDEST PUSH0 PUSH1 0x1F NOT PUSH1 0x1F DUP4 ADD AND SWAP1 POP SWAP2 SWAP1 POP JUMP JUMPDEST PUSH0 PUSH2 0x32FF DUP3 PUSH2 0x32BD JUMP JUMPDEST PUSH2 0x3309 DUP2 DUP6 PUSH2 0x32C7 JUMP JUMPDEST SWAP4 POP PUSH2 0x3319 DUP2 DUP6 PUSH1 0x20 DUP7 ADD PUSH2 0x32D7 JUMP JUMPDEST PUSH2 0x3322 DUP2 PUSH2 0x32E5 JUMP JUMPDEST DUP5 ADD SWAP2 POP POP SWAP3 SWAP2 POP POP JUMP JUMPDEST PUSH0 PUSH1 0x20 DUP3 ADD SWAP1 POP DUP2 DUP2 SUB PUSH0 DUP4 ADD MSTORE PUSH2 0x3345 DUP2 DUP5 PUSH2 0x32F5 JUMP JUMPDEST SWAP1 POP SWAP3 SWAP2 POP POP JUMP JUMPDEST PUSH0 PUSH0 REVERT JUMPDEST PUSH0 PUSH20 0xFFFFFFFFFFFFFFFFFFFFFFFFFFFFFFFFFFFFFFFF DUP3 AND SWAP1 POP SWAP2 SWAP1 POP JUMP JUMPDEST PUSH0 PUSH2 0x337A DUP3 PUSH2 0x3351 JUMP JUMPDEST SWAP1 POP SWAP2 SWAP1 POP JUMP JUMPDEST PUSH2 0x338A DUP2 PUSH2 0x3370 JUMP JUMPDEST DUP2 EQ PUSH2 0x3394 JUMPI PUSH0 PUSH0 REVERT JUMPDEST POP JUMP JUMPDEST PUSH0 DUP2 CALLDATALOAD SWAP1 POP PUSH2 0x33A5 DUP2 PUSH2 0x3381 JUMP JUMPDEST SWAP3 SWAP2 POP POP JUMP JUMPDEST PUSH0 DUP2 SWAP1 POP SWAP2 SWAP1 POP JUMP JUMPDEST PUSH2 0x33BD DUP2 PUSH2 0x33AB JUMP JUMPDEST DUP2 EQ PUSH2 0x33C7 JUMPI PUSH0 PUSH0 REVERT JUMPDEST POP JUMP JUMPDEST PUSH0 DUP2 CALLDATALOAD SWAP1 POP PUSH2 0x33D8 DUP2 PUSH2 0x33B4 JUMP JUMPDEST SWAP3 SWAP2 POP POP JUMP JUMPDEST PUSH0 PUSH0 PUSH1 0x40 DUP4 DUP6 SUB SLT ISZERO PUSH2 0x33F4 JUMPI PUSH2 0x33F3 PUSH2 0x334D JUMP JUMPDEST JUMPDEST PUSH0 PUSH2 0x3401 DUP6 DUP3 DUP7 ADD PUSH2 0x3397 JUMP JUMPDEST SWAP3 POP POP PUSH1 0x20 PUSH2 0x3412 DUP6 DUP3 DUP7 ADD PUSH2 0x33CA JUMP JUMPDEST SWAP2 POP POP SWAP3 POP SWAP3 SWAP1 POP JUMP JUMPDEST PUSH0 DUP2 ISZERO ISZERO SWAP1 POP SWAP2 SWAP1 POP JUMP JUMPDEST PUSH2 0x3430 DUP2 PUSH2 0x341C JUMP JUMPDEST DUP3 MSTORE POP POP JUMP JUMPDEST PUSH0 PUSH1 0x20 DUP3 ADD SWAP1 POP PUSH2 0x3449 PUSH0 DUP4 ADD DUP5 PUSH2 0x3427 JUMP JUMPDEST SWAP3 SWAP2 POP POP JUMP JUMPDEST PUSH2 0x3458 DUP2 PUSH2 0x341C JUMP JUMPDEST DUP2 EQ PUSH2 0x3462 JUMPI PUSH0 PUSH0 REVERT JUMPDEST POP JUMP JUMPDEST PUSH0 DUP2 CALLDATALOAD SWAP1 POP PUSH2 0x3473 DUP2 PUSH2 0x344F JUMP JUMPDEST SWAP3 SWAP2 POP POP JUMP JUMPDEST PUSH0 PUSH0 PUSH1 0x40 DUP4 DUP6 SUB SLT ISZERO PUSH2 0x348F JUMPI PUSH2 0x348E PUSH2 0x334D JUMP JUMPDEST JUMPDEST PUSH0 PUSH2 0x349C DUP6 DUP3 DUP7 ADD PUSH2 0x3397 JUMP JUMPDEST SWAP3 POP POP PUSH1 0x20 PUSH2 0x34AD DUP6 DUP3 DUP7 ADD PUSH2 0x3465 JUMP JUMPDEST SWAP2 POP POP SWAP3 POP SWAP3 SWAP1 POP JUMP JUMPDEST PUSH0 PUSH0 PUSH1 0x40 DUP4 DUP6 SUB SLT ISZERO PUSH2 0x34CD JUMPI PUSH2 0x34CC PUSH2 0x334D JUMP JUMPDEST JUMPDEST PUSH0 PUSH2 0x34DA DUP6 DUP3 DUP7 ADD PUSH2 0x33CA JUMP JUMPDEST SWAP3 POP POP PUSH1 0x20 PUSH2 0x34EB DUP6 DUP3 DUP7 ADD PUSH2 0x33CA JUMP JUMPDEST SWAP2 POP POP SWAP3 POP SWAP3 SWAP1 POP JUMP JUMPDEST PUSH0 DUP2 SWAP1 POP SWAP2 SWAP1 POP JUMP JUMPDEST PUSH2 0x3507 DUP2 PUSH2 0x34F5 JUMP JUMPDEST DUP3 MSTORE POP POP JUMP JUMPDEST PUSH0 PUSH1 0x20 DUP3 ADD SWAP1 POP PUSH2 0x3520 PUSH0 DUP4 ADD DUP5 PUSH2 0x34FE JUMP JUMPDEST SWAP3 SWAP2 POP POP JUMP JUMPDEST PUSH2 0x352F DUP2 PUSH2 0x33AB JUMP JUMPDEST DUP3 MSTORE POP POP JUMP JUMPDEST PUSH0 PUSH1 0x20 DUP3 ADD SWAP1 POP PUSH2 0x3548 PUSH0 DUP4 ADD DUP5 PUSH2 0x3526 JUMP JUMPDEST SWAP3 SWAP2 POP POP JUMP JUMPDEST PUSH0 PUSH0 PUSH0 PUSH1 0x60 DUP5 DUP7 SUB SLT ISZERO PUSH2 0x3565 JUMPI PUSH2 0x3564 PUSH2 0x334D JUMP JUMPDEST JUMPDEST PUSH0 PUSH2 0x3572 DUP7 DUP3 DUP8 ADD PUSH2 0x3397 JUMP JUMPDEST SWAP4 POP POP PUSH1 0x20 PUSH2 0x3583 DUP7 DUP3 DUP8 ADD PUSH2 0x3397 JUMP JUMPDEST SWAP3 POP POP PUSH1 0x40 PUSH2 0x3594 DUP7 DUP3 DUP8 ADD PUSH2 0x33CA JUMP JUMPDEST SWAP2 POP POP SWAP3 POP SWAP3 POP SWAP3 JUMP JUMPDEST PUSH0 PUSH1 0xFF DUP3 AND SWAP1 POP SWAP2 SWAP1 POP JUMP JUMPDEST PUSH2 0x35B3 DUP2 PUSH2 0x359E JUMP JUMPDEST DUP3 MSTORE POP POP JUMP JUMPDEST PUSH0 PUSH1 0x20 DUP3 ADD SWAP1 POP PUSH2 0x35CC PUSH0 DUP4 ADD DUP5 PUSH2 0x35AA JUMP JUMPDEST SWAP3 SWAP2 POP POP JUMP JUMPDEST PUSH0 PUSH1 0x20 DUP3 DUP5 SUB SLT ISZERO PUSH2 0x35E7 JUMPI PUSH2 0x35E6 PUSH2 0x334D JUMP JUMPDEST JUMPDEST PUSH0 PUSH2 0x35F4 DUP5 DUP3 DUP6 ADD PUSH2 0x3465 JUMP JUMPDEST SWAP2 POP POP SWAP3 SWAP2 POP POP JUMP JUMPDEST PUSH0 PUSH1 0x20 DUP3 DUP5 SUB SLT ISZERO PUSH2 0x3612 JUMPI PUSH2 0x3611 PUSH2 0x334D JUMP JUMPDEST JUMPDEST PUSH0 PUSH2 0x361F DUP5 DUP3 DUP6 ADD PUSH2 0x33CA JUMP JUMPDEST SWAP2 POP POP SWAP3 SWAP2 POP POP JUMP JUMPDEST PUSH2 0x3631 DUP2 PUSH2 0x3370 JUMP JUMPDEST DUP3 MSTORE POP POP JUMP JUMPDEST PUSH0 PUSH1 0x20 DUP3 ADD SWAP1 POP PUSH2 0x364A PUSH0 DUP4 ADD DUP5 PUSH2 0x3628 JUMP JUMPDEST SWAP3 SWAP2 POP POP JUMP JUMPDEST PUSH0 PUSH1 0x20 DUP3 DUP5 SUB SLT ISZERO PUSH2 0x3665 JUMPI PUSH2 0x3664 PUSH2 0x334D JUMP JUMPDEST JUMPDEST PUSH0 PUSH2 0x3672 DUP5 DUP3 DUP6 ADD PUSH2 0x3397 JUMP JUMPDEST SWAP2 POP POP SWAP3 SWAP2 POP POP JUMP JUMPDEST PUSH2 0x3684 DUP2 PUSH2 0x34F5 JUMP JUMPDEST DUP2 EQ PUSH2 0x368E JUMPI PUSH0 PUSH0 REVERT JUMPDEST POP JUMP JUMPDEST PUSH0 DUP2 CALLDATALOAD SWAP1 POP PUSH2 0x369F DUP2 PUSH2 0x367B JUMP JUMPDEST SWAP3 SWAP2 POP POP JUMP JUMPDEST PUSH0 PUSH1 0x20 DUP3 DUP5 SUB SLT ISZERO PUSH2 0x36BA JUMPI PUSH2 0x36B9 PUSH2 0x334D JUMP JUMPDEST JUMPDEST PUSH0 PUSH2 0x36C7 DUP5 DUP3 DUP6 ADD PUSH2 0x3691 JUMP JUMPDEST SWAP2 POP POP SWAP3 SWAP2 POP POP JUMP JUMPDEST PUSH0 PUSH0 PUSH1 0x40 DUP4 DUP6 SUB SLT ISZERO PUSH2 0x36E6 JUMPI PUSH2 0x36E5 PUSH2 0x334D JUMP JUMPDEST JUMPDEST PUSH0 PUSH2 0x36F3 DUP6 DUP3 DUP7 ADD PUSH2 0x3397 JUMP JUMPDEST SWAP3 POP POP PUSH1 0x20 PUSH2 0x3704 DUP6 DUP3 DUP7 ADD PUSH2 0x3397 JUMP JUMPDEST SWAP2 POP POP SWAP3 POP SWAP3 SWAP1 POP JUMP JUMPDEST PUSH32 0x4E487B7100000000000000000000000000000000000000000000000000000000 PUSH0 MSTORE PUSH1 0x22 PUSH1 0x4 MSTORE PUSH1 0x24 PUSH0 REVERT JUMPDEST PUSH0 PUSH1 0x2 DUP3 DIV SWAP1 POP PUSH1 0x1 DUP3 AND DUP1 PUSH2 0x3752 JUMPI PUSH1 0x7F DUP3 AND SWAP2 POP JUMPDEST PUSH1 0x20 DUP3 LT DUP2 SUB PUSH2 0x3765 JUMPI PUSH2 0x3764 PUSH2 0x370E JUMP JUMPDEST JUMPDEST POP SWAP2 SWAP1 POP JUMP JUMPDEST PUSH32 0x616374696F6E206E6F7420717565756564000000000000000000000000000000 PUSH0 DUP3 ADD MSTORE POP JUMP JUMPDEST PUSH0 PUSH2 0x379F PUSH1 0x11 DUP4 PUSH2 0x32C7 JUMP JUMPDEST SWAP2 POP PUSH2 0x37AA DUP3 PUSH2 0x376B JUMP JUMPDEST PUSH1 0x20 DUP3 ADD SWAP1 POP SWAP2 SWAP1 POP JUMP JUMPDEST PUSH0 PUSH1 0x20 DUP3 ADD SWAP1 POP DUP2 DUP2 SUB PUSH0 DUP4 ADD MSTORE PUSH2 0x37CC DUP2 PUSH2 0x3793 JUMP JUMPDEST SWAP1 POP SWAP2 SWAP1 POP JUMP JUMPDEST PUSH32 0x4E487B7100000000000000000000000000000000000000000000000000000000 PUSH0 MSTORE PUSH1 0x11 PUSH1 0x4 MSTORE PUSH1 0x24 PUSH0 REVERT JUMPDEST PUSH0 PUSH2 0x380A DUP3 PUSH2 0x33AB JUMP JUMPDEST SWAP2 POP PUSH2 0x3815 DUP4 PUSH2 0x33AB JUMP JUMPDEST SWAP3 POP DUP3 DUP3 ADD SWAP1 POP DUP1 DUP3 GT ISZERO PUSH2 0x382D JUMPI PUSH2 0x382C PUSH2 0x37D3 JUMP JUMPDEST JUMPDEST SWAP3 SWAP2 POP POP JUMP JUMPDEST PUSH32 0x74696D656C6F636B206E6F742065787069726564000000000000000000000000 PUSH0 DUP3 ADD MSTORE POP JUMP JUMPDEST PUSH0 PUSH2 0x3867 PUSH1 0x14 DUP4 PUSH2 0x32C7 JUMP JUMPDEST SWAP2 POP PUSH2 0x3872 DUP3 PUSH2 0x3833 JUMP JUMPDEST PUSH1 0x20 DUP3 ADD SWAP1 POP SWAP2 SWAP1 POP JUMP JUMPDEST PUSH0 PUSH1 0x20 DUP3 ADD SWAP1 POP DUP2 DUP2 SUB PUSH0 DUP4 ADD MSTORE PUSH2 0x3894 DUP2 PUSH2 0x385B JUMP JUMPDEST SWAP1 POP SWAP2 SWAP1 POP JUMP JUMPDEST PUSH32 0x706169722063616E6E6F74206265207A65726F20616464726573730000000000 PUSH0 DUP3 ADD MSTORE POP JUMP JUMPDEST PUSH0 PUSH2 0x38CF PUSH1 0x1B DUP4 PUSH2 0x32C7 JUMP JUMPDEST SWAP2 POP PUSH2 0x38DA DUP3 PUSH2 0x389B JUMP JUMPDEST PUSH1 0x20 DUP3 ADD SWAP1 POP SWAP2 SWAP1 POP JUMP JUMPDEST PUSH0 PUSH1 0x20 DUP3 ADD SWAP1 POP DUP2 DUP2 SUB PUSH0 DUP4 ADD MSTORE PUSH2 0x38FC DUP2 PUSH2 0x38C3 JUMP JUMPDEST SWAP1 POP SWAP2 SWAP1 POP JUMP JUMPDEST PUSH32 0x746F74616C2066656520746F6F20686967680000000000000000000000000000 PUSH0 DUP3 ADD MSTORE POP JUMP JUMPDEST PUSH0 PUSH2 0x3937 PUSH1 0x12 DUP4 PUSH2 0x32C7 JUMP JUMPDEST SWAP2 POP PUSH2 0x3942 DUP3 PUSH2 0x3903 JUMP JUMPDEST PUSH1 0x20 DUP3 ADD SWAP1 POP SWAP2 SWAP1 POP JUMP JUMPDEST PUSH0 PUSH1 0x20 DUP3 ADD SWAP1 POP DUP2 DUP2 SUB PUSH0 DUP4 ADD MSTORE PUSH2 0x3964 DUP2 PUSH2 0x392B JUMP JUMPDEST SWAP1 POP SWAP2 SWAP1 POP JUMP JUMPDEST PUSH0 PUSH1 0x40 DUP3 ADD SWAP1 POP PUSH2 0x397E PUSH0 DUP4 ADD DUP6 PUSH2 0x3526 JUMP JUMPDEST PUSH2 0x398B PUSH1 0x20 DUP4 ADD DUP5 PUSH2 0x3526 JUMP JUMPDEST SWAP4 SWAP3 POP POP POP JUMP JUMPDEST PUSH32 0x7365744665657300000000000000000000000000000000000000000000000000 PUSH0 DUP3 ADD MSTORE POP JUMP JUMPDEST PUSH0 PUSH2 0x39C6 PUSH1 0x7 DUP4 PUSH2 0x32C7 JUMP JUMPDEST SWAP2 POP PUSH2 0x39D1 DUP3 PUSH2 0x3992 JUMP JUMPDEST PUSH1 0x20 DUP3 ADD SWAP1 POP SWAP2 SWAP1 POP JUMP JUMPDEST PUSH0 PUSH1 0x60 DUP3 ADD SWAP1 POP DUP2 DUP2 SUB PUSH0 DUP4 ADD MSTORE PUSH2 0x39F3 DUP2 PUSH2 0x39BA JUMP JUMPDEST SWAP1 POP PUSH2 0x3A02 PUSH1 0x20 DUP4 ADD DUP6 PUSH2 0x3526 JUMP JUMPDEST PUSH2 0x3A0F PUSH1 0x40 DUP4 ADD DUP5 PUSH2 0x3526 JUMP JUMPDEST SWAP4 SWAP3 POP POP POP JUMP JUMPDEST PUSH32 0x7365744578636C7564656446726F6D416E7469426F7400000000000000000000 PUSH0 DUP3 ADD MSTORE POP JUMP JUMPDEST PUSH0 PUSH2 0x3A4A PUSH1 0x16 DUP4 PUSH2 0x32C7 JUMP JUMPDEST SWAP2 POP PUSH2 0x3A55 DUP3 PUSH2 0x3A16 JUMP JUMPDEST PUSH1 0x20 DUP3 ADD SWAP1 POP SWAP2 SWAP1 POP JUMP JUMPDEST PUSH0 PUSH1 0x60 DUP3 ADD SWAP1 POP DUP2 DUP2 SUB PUSH0 DUP4 ADD MSTORE PUSH2 0x3A77 DUP2 PUSH2 0x3A3E JUMP JUMPDEST SWAP1 POP PUSH2 0x3A86 PUSH1 0x20 DUP4 ADD DUP6 PUSH2 0x3628 JUMP JUMPDEST PUSH2 0x3A93 PUSH1 0x40 DUP4 ADD DUP5 PUSH2 0x3427 JUMP JUMPDEST SWAP4 SWAP3 POP POP POP JUMP JUMPDEST PUSH32 0x65786365656473204D41585F535550504C590000000000000000000000000000 PUSH0 DUP3 ADD MSTORE POP JUMP JUMPDEST PUSH0 PUSH2 0x3ACE PUSH1 0x12 DUP4 PUSH2 0x32C7 JUMP JUMPDEST SWAP2 POP PUSH2 0x3AD9 DUP3 PUSH2 0x3A9A JUMP JUMPDEST PUSH1 0x20 DUP3 ADD SWAP1 POP SWAP2 SWAP1 POP JUMP JUMPDEST PUSH0 PUSH1 0x20 DUP3 ADD SWAP1 POP DUP2 DUP2 SUB PUSH0 DUP4 ADD MSTORE PUSH2 0x3AFB DUP2 PUSH2 0x3AC2 JUMP JUMPDEST SWAP1 POP SWAP2 SWAP1 POP JUMP JUMPDEST PUSH32 0x736574416D6D5061697200000000000000000000000000000000000000000000 PUSH0 DUP3 ADD MSTORE POP JUMP JUMPDEST PUSH0 PUSH2 0x3B36 PUSH1 0xA DUP4 PUSH2 0x32C7 JUMP JUMPDEST SWAP2 POP PUSH2 0x3B41 DUP3 PUSH2 0x3B02 JUMP JUMPDEST PUSH1 0x20 DUP3 ADD SWAP1 POP SWAP2 SWAP1 POP JUMP JUMPDEST PUSH0 PUSH1 0x60 DUP3 ADD SWAP1 POP DUP2 DUP2 SUB PUSH0 DUP4 ADD MSTORE PUSH2 0x3B63 DUP2 PUSH2 0x3B2A JUMP JUMPDEST SWAP1 POP PUSH2 0x3B72 PUSH1 0x20 DUP4 ADD DUP6 PUSH2 0x3628 JUMP JUMPDEST PUSH2 0x3B7F PUSH1 0x40 DUP4 ADD DUP5 PUSH2 0x3427 JUMP JUMPDEST SWAP4 SWAP3 POP POP POP JUMP JUMPDEST PUSH32 0x7365744C696D697473456E61626C656400000000000000000000000000000000 PUSH0 DUP3 ADD MSTORE POP JUMP JUMPDEST PUSH0 PUSH2 0x3BBA PUSH1 0x10 DUP4 PUSH2 0x32C7 JUMP JUMPDEST SWAP2 POP PUSH2 0x3BC5 DUP3 PUSH2 0x3B86 JUMP JUMPDEST PUSH1 0x20 DUP3 ADD SWAP1 POP SWAP2 SWAP1 POP JUMP JUMPDEST PUSH0 PUSH1 0x40 DUP3 ADD SWAP1 POP DUP2 DUP2 SUB PUSH0 DUP4 ADD MSTORE PUSH2 0x3BE7 DUP2 PUSH2 0x3BAE JUMP JUMPDEST SWAP1 POP PUSH2 0x3BF6 PUSH1 0x20 DUP4 ADD DUP5 PUSH2 0x3427 JUMP JUMPDEST SWAP3 SWAP2 POP POP JUMP JUMPDEST PUSH32 0x7365744578636C7564656446726F6D4C696D6974730000000000000000000000 PUSH0 DUP3 ADD MSTORE POP JUMP JUMPDEST PUSH0 PUSH2 0x3C30 PUSH1 0x15 DUP4 PUSH2 0x32C7 JUMP JUMPDEST SWAP2 POP PUSH2 0x3C3B DUP3 PUSH2 0x3BFC JUMP JUMPDEST PUSH1 0x20 DUP3 ADD SWAP1 POP SWAP2 SWAP1 POP JUMP JUMPDEST PUSH0 PUSH1 0x60 DUP3 ADD SWAP1 POP DUP2 DUP2 SUB PUSH0 DUP4 ADD MSTORE PUSH2 0x3C5D DUP2 PUSH2 0x3C24 JUMP JUMPDEST SWAP1 POP PUSH2 0x3C6C PUSH1 0x20 DUP4 ADD DUP6 PUSH2 0x3628 JUMP JUMPDEST PUSH2 0x3C79 PUSH1 0x40 DUP4 ADD DUP5 PUSH2 0x3427 JUMP JUMPDEST SWAP4 SWAP3 POP POP POP JUMP JUMPDEST PUSH32 0x736574547265617375727957616C6C6574000000000000000000000000000000 PUSH0 DUP3 ADD MSTORE POP JUMP JUMPDEST PUSH0 PUSH2 0x3CB4 PUSH1 0x11 DUP4 PUSH2 0x32C7 JUMP JUMPDEST SWAP2 POP PUSH2 0x3CBF DUP3 PUSH2 0x3C80 JUMP JUMPDEST PUSH1 0x20 DUP3 ADD SWAP1 POP SWAP2 SWAP1 POP JUMP JUMPDEST PUSH0 PUSH1 0x40 DUP3 ADD SWAP1 POP DUP2 DUP2 SUB PUSH0 DUP4 ADD MSTORE PUSH2 0x3CE1 DUP2 PUSH2 0x3CA8 JUMP JUMPDEST SWAP1 POP PUSH2 0x3CF0 PUSH1 0x20 DUP4 ADD DUP5 PUSH2 0x3628 JUMP JUMPDEST SWAP3 SWAP2 POP POP JUMP JUMPDEST PUSH32 0x6E6F742071756575656400000000000000000000000000000000000000000000 PUSH0 DUP3 ADD MSTORE POP JUMP JUMPDEST PUSH0 PUSH2 0x3D2A PUSH1 0xA DUP4 PUSH2 0x32C7 JUMP JUMPDEST SWAP2 POP PUSH2 0x3D35 DUP3 PUSH2 0x3CF6 JUMP JUMPDEST PUSH1 0x20 DUP3 ADD SWAP1 POP SWAP2 SWAP1 POP JUMP JUMPDEST PUSH0 PUSH1 0x20 DUP3 ADD SWAP1 POP DUP2 DUP2 SUB PUSH0 DUP4 ADD MSTORE PUSH2 0x3D57 DUP2 PUSH2 0x3D1E JUMP JUMPDEST SWAP1 POP SWAP2 SWAP1 POP JUMP JUMPDEST PUSH32 0x7365744C696D6974730000000000000000000000000000000000000000000000 PUSH0 DUP3 ADD MSTORE POP JUMP JUMPDEST PUSH0 PUSH2 0x3D92 PUSH1 0x9 DUP4 PUSH2 0x32C7 JUMP JUMPDEST SWAP2 POP PUSH2 0x3D9D DUP3 PUSH2 0x3D5E JUMP JUMPDEST PUSH1 0x20 DUP3 ADD SWAP1 POP SWAP2 SWAP1 POP JUMP JUMPDEST PUSH0 PUSH1 0x60 DUP3 ADD SWAP1 POP DUP2 DUP2 SUB PUSH0 DUP4 ADD MSTORE PUSH2 0x3DBF DUP2 PUSH2 0x3D86 JUMP JUMPDEST SWAP1 POP PUSH2 0x3DCE PUSH1 0x20 DUP4 ADD DUP6 PUSH2 0x3526 JUMP JUMPDEST PUSH2 0x3DDB PUSH1 0x40 DUP4 ADD DUP5 PUSH2 0x3526 JUMP JUMPDEST SWAP4 SWAP3 POP POP POP JUMP JUMPDEST PUSH32 0x74726561737572792063616E6E6F74206265207A65726F206164647265737300 PUSH0 DUP3 ADD MSTORE POP JUMP JUMPDEST PUSH0 PUSH2 0x3E16 PUSH1 0x1F DUP4 PUSH2 0x32C7 JUMP JUMPDEST SWAP2 POP PUSH2 0x3E21 DUP3 PUSH2 0x3DE2 JUMP JUMPDEST PUSH1 0x20 DUP3 ADD SWAP1 POP SWAP2 SWAP1 POP JUMP JUMPDEST PUSH0 PUSH1 0x20 DUP3 ADD SWAP1 POP DUP2 DUP2 SUB PUSH0 DUP4 ADD MSTORE PUSH2 0x3E43 DUP2 PUSH2 0x3E0A JUMP JUMPDEST SWAP1 POP SWAP2 SWAP1 POP JUMP JUMPDEST PUSH32 0x6D696E7400000000000000000000000000000000000000000000000000000000 PUSH0 DUP3 ADD MSTORE POP JUMP JUMPDEST PUSH0 PUSH2 0x3E7E PUSH1 0x4 DUP4 PUSH2 0x32C7 JUMP JUMPDEST SWAP2 POP PUSH2 0x3E89 DUP3 PUSH2 0x3E4A JUMP JUMPDEST PUSH1 0x20 DUP3 ADD SWAP1 POP SWAP2 SWAP1 POP JUMP JUMPDEST PUSH0 PUSH1 0x60 DUP3 ADD SWAP1 POP DUP2 DUP2 SUB PUSH0 DUP4 ADD MSTORE PUSH2 0x3EAB DUP2 PUSH2 0x3E72 JUMP JUMPDEST SWAP1 POP PUSH2 0x3EBA PUSH1 0x20 DUP4 ADD DUP6 PUSH2 0x3628 JUMP JUMPDEST PUSH2 0x3EC7 PUSH1 0x40 DUP4 ADD DUP5 PUSH2 0x3526 JUMP JUMPDEST SWAP4 SWAP3 POP POP POP JUMP JUMPDEST PUSH32 0x7365744578636C7564656446726F6D4665650000000000000000000000000000 PUSH0 DUP3 ADD MSTORE POP JUMP JUMPDEST PUSH0 PUSH2 0x3F02 PUSH1 0x12 DUP4 PUSH2 0x32C7 JUMP JUMPDEST SWAP2 POP PUSH2 0x3F0D DUP3 PUSH2 0x3ECE JUMP JUMPDEST PUSH1 0x20 DUP3 ADD SWAP1 POP SWAP2 SWAP1 POP JUMP JUMPDEST PUSH0 PUSH1 0x60 DUP3 ADD SWAP1 POP DUP2 DUP2 SUB PUSH0 DUP4 ADD MSTORE PUSH2 0x3F2F DUP2 PUSH2 0x3EF6 JUMP JUMPDEST SWAP1 POP PUSH2 0x3F3E PUSH1 0x20 DUP4 ADD DUP6 PUSH2 0x3628 JUMP JUMPDEST PUSH2 0x3F4B PUSH1 0x40 DUP4 ADD DUP5 PUSH2 0x3427 JUMP JUMPDEST SWAP4 SWAP3 POP POP POP JUMP JUMPDEST PUSH32 0x7472616E736665724F776E657273686970000000000000000000000000000000 PUSH0 DUP3 ADD MSTORE POP JUMP JUMPDEST PUSH0 PUSH2 0x3F86 PUSH1 0x11 DUP4 PUSH2 0x32C7 JUMP JUMPDEST SWAP2 POP PUSH2 0x3F91 DUP3 PUSH2 0x3F52 JUMP JUMPDEST PUSH1 0x20 DUP3 ADD SWAP1 POP SWAP2 SWAP1 POP JUMP JUMPDEST PUSH0 PUSH1 0x40 DUP3 ADD SWAP1 POP DUP2 DUP2 SUB PUSH0 DUP4 ADD MSTORE PUSH2 0x3FB3 DUP2 PUSH2 0x3F7A JUMP JUMPDEST SWAP1 POP PUSH2 0x3FC2 PUSH1 0x20 DUP4 ADD DUP5 PUSH2 0x3628 JUMP JUMPDEST SWAP3 SWAP2 POP POP JUMP JUMPDEST PUSH0 PUSH2 0x3FD2 DUP3 PUSH2 0x33AB JUMP JUMPDEST SWAP2 POP PUSH2 0x3FDD DUP4 PUSH2 0x33AB JUMP JUMPDEST SWAP3 POP DUP3 DUP3 MUL PUSH2 0x3FEB DUP2 PUSH2 0x33AB JUMP JUMPDEST SWAP2 POP DUP3 DUP3 DIV DUP5 EQ DUP4 ISZERO OR PUSH2 0x4002 JUMPI PUSH2 0x4001 PUSH2 0x37D3 JUMP JUMPDEST JUMPDEST POP SWAP3 SWAP2 POP POP JUMP JUMPDEST PUSH32 0x4E487B7100000000000000000000000000000000000000000000000000000000 PUSH0 MSTORE PUSH1 0x12 PUSH1 0x4 MSTORE PUSH1 0x24 PUSH0 REVERT JUMPDEST PUSH0 PUSH2 0x4040 DUP3 PUSH2 0x33AB JUMP JUMPDEST SWAP2 POP PUSH2 0x404B DUP4 PUSH2 0x33AB JUMP JUMPDEST SWAP3 POP DUP3 PUSH2 0x405B JUMPI PUSH2 0x405A PUSH2 0x4009 JUMP JUMPDEST JUMPDEST DUP3 DUP3 DIV SWAP1 POP SWAP3 SWAP2 POP POP JUMP JUMPDEST PUSH32 0x6D617854782062656C6F7720666C6F6F72000000000000000000000000000000 PUSH0 DUP3 ADD MSTORE POP JUMP JUMPDEST PUSH0 PUSH2 0x409A PUSH1 0x11 DUP4 PUSH2 0x32C7 JUMP JUMPDEST SWAP2 POP PUSH2 0x40A5 DUP3 PUSH2 0x4066 JUMP JUMPDEST PUSH1 0x20 DUP3 ADD SWAP1 POP SWAP2 SWAP1 POP JUMP JUMPDEST PUSH0 PUSH1 0x20 DUP3 ADD SWAP1 POP DUP2 DUP2 SUB PUSH0 DUP4 ADD MSTORE PUSH2 0x40C7 DUP2 PUSH2 0x408E JUMP JUMPDEST SWAP1 POP SWAP2 SWAP1 POP JUMP JUMPDEST PUSH32 0x6D617857616C6C65742062656C6F7720666C6F6F720000000000000000000000 PUSH0 DUP3 ADD MSTORE POP JUMP JUMPDEST PUSH0 PUSH2 0x4102 PUSH1 0x15 DUP4 PUSH2 0x32C7 JUMP JUMPDEST SWAP2 POP PUSH2 0x410D DUP3 PUSH2 0x40CE JUMP JUMPDEST PUSH1 0x20 DUP3 ADD SWAP1 POP SWAP2 SWAP1 POP JUMP JUMPDEST PUSH0 PUSH1 0x20 DUP3 ADD SWAP1 POP DUP2 DUP2 SUB PUSH0 DUP4 ADD MSTORE PUSH2 0x412F DUP2 PUSH2 0x40F6 JUMP JUMPDEST SWAP1 POP SWAP2 SWAP1 POP JUMP JUMPDEST PUSH32 0x73657453616D65426C6F636B4775617264456E61626C65640000000000000000 PUSH0 DUP3 ADD MSTORE POP JUMP JUMPDEST PUSH0 PUSH2 0x416A PUSH1 0x18 DUP4 PUSH2 0x32C7 JUMP JUMPDEST SWAP2 POP PUSH2 0x4175 DUP3 PUSH2 0x4136 JUMP JUMPDEST PUSH1 0x20 DUP3 ADD SWAP1 POP SWAP2 SWAP1 POP JUMP JUMPDEST PUSH0 PUSH1 0x40 DUP3 ADD SWAP1 POP DUP2 DUP2 SUB PUSH0 DUP4 ADD MSTORE PUSH2 0x4197 DUP2 PUSH2 0x415E JUMP JUMPDEST SWAP1 POP PUSH2 0x41A6 PUSH1 0x20 DUP4 ADD DUP5 PUSH2 0x3427 JUMP JUMPDEST SWAP3 SWAP2 POP POP JUMP JUMPDEST PUSH32 0x616C726561647920717565756564000000000000000000000000000000000000 PUSH0 DUP3 ADD MSTORE POP JUMP JUMPDEST PUSH0 PUSH2 0x41E0 PUSH1 0xE DUP4 PUSH2 0x32C7 JUMP JUMPDEST SWAP2 POP PUSH2 0x41EB DUP3 PUSH2 0x41AC JUMP JUMPDEST PUSH1 0x20 DUP3 ADD SWAP1 POP SWAP2 SWAP1 POP JUMP JUMPDEST PUSH0 PUSH1 0x20 DUP3 ADD SWAP1 POP DUP2 DUP2 SUB PUSH0 DUP4 ADD MSTORE PUSH2 0x420D DUP2 PUSH2 0x41D4 JUMP JUMPDEST SWAP1 POP SWAP2 SWAP1 POP JUMP JUMPDEST PUSH0 PUSH1 0x60 DUP3 ADD SWAP1 POP PUSH2 0x4227 PUSH0 DUP4 ADD DUP7 PUSH2 0x3628 JUMP JUMPDEST PUSH2 0x4234 PUSH1 0x20 DUP4 ADD DUP6 PUSH2 0x3526 JUMP JUMPDEST PUSH2 0x4241 PUSH1 0x40 DUP4 ADD DUP5 PUSH2 0x3526 JUMP JUMPDEST SWAP5 SWAP4 POP POP POP POP JUMP JUMPDEST PUSH32 0x7472616E736665722065786365656473206D61785478416D6F756E7400000000 PUSH0 DUP3 ADD MSTORE POP JUMP JUMPDEST PUSH0 PUSH2 0x427D PUSH1 0x1C DUP4 PUSH2 0x32C7 JUMP JUMPDEST SWAP2 POP PUSH2 0x4288 DUP3 PUSH2 0x4249 JUMP JUMPDEST PUSH1 0x20 DUP3 ADD SWAP1 POP SWAP2 SWAP1 POP JUMP JUMPDEST PUSH0 PUSH1 0x20 DUP3 ADD SWAP1 POP DUP2 DUP2 SUB PUSH0 DUP4 ADD MSTORE PUSH2 0x42AA DUP2 PUSH2 0x4271 JUMP JUMPDEST SWAP1 POP SWAP2 SWAP1 POP JUMP JUMPDEST PUSH32 0x7472616E736665722065786365656473206D617857616C6C6574416D6F756E74 PUSH0 DUP3 ADD MSTORE POP JUMP JUMPDEST PUSH0 PUSH2 0x42E5 PUSH1 0x20 DUP4 PUSH2 0x32C7 JUMP JUMPDEST SWAP2 POP PUSH2 0x42F0 DUP3 PUSH2 0x42B1 JUMP JUMPDEST PUSH1 0x20 DUP3 ADD SWAP1 POP SWAP2 SWAP1 POP JUMP JUMPDEST PUSH0 PUSH1 0x20 DUP3 ADD SWAP1 POP DUP2 DUP2 SUB PUSH0 DUP4 ADD MSTORE PUSH2 0x4312 DUP2 PUSH2 0x42D9 JUMP JUMPDEST SWAP1 POP SWAP2 SWAP1 POP JUMP JUMPDEST PUSH32 0x6F6E652074726164652070657220626C6F636B00000000000000000000000000 PUSH0 DUP3 ADD MSTORE POP JUMP JUMPDEST PUSH0 PUSH2 0x434D PUSH1 0x13 DUP4 PUSH2 0x32C7 JUMP JUMPDEST SWAP2 POP PUSH2 0x4358 DUP3 PUSH2 0x4319 JUMP JUMPDEST PUSH1 0x20 DUP3 ADD SWAP1 POP SWAP2 SWAP1 POP JUMP JUMPDEST PUSH0 PUSH1 0x20 DUP3 ADD SWAP1 POP DUP2 DUP2 SUB PUSH0 DUP4 ADD MSTORE PUSH2 0x437A DUP2 PUSH2 0x4341 JUMP JUMPDEST SWAP1 POP SWAP2 SWAP1 POP JUMP JUMPDEST PUSH0 PUSH2 0x438B DUP3 PUSH2 0x33AB JUMP JUMPDEST SWAP2 POP PUSH2 0x4396 DUP4 PUSH2 0x33AB JUMP JUMPDEST SWAP3 POP DUP3 DUP3 SUB SWAP1 POP DUP2 DUP2 GT ISZERO PUSH2 0x43AE JUMPI PUSH2 0x43AD PUSH2 0x37D3 JUMP JUMPDEST JUMPDEST SWAP3 SWAP2 POP POP JUMP INVALID LOG2 PUSH5 0x6970667358 0x22 SLT KECCAK256 0xD2 EQ CODESIZE 0xF6 INVALID PUSH23 0xAED23DDA78B32420FEBF69CDB98B2AA1D073DF26B57736 LOG1 SIGNEXTEND SUB PUSH5 0x736F6C6343 STOP ADDMOD 0x22 STOP CALLER "
		},
		"gasEstimates": {
			"creation": {
				"codeDepositCost": "3477200",
				"executionCost": "infinite",
				"totalCost": "infinite"
			},
			"external": {
				"INITIAL_MINT()": "infinite",
				"MAX_SUPPLY()": "393",
				"MAX_TOTAL_FEE_BPS()": "393",
				"MIN_LIMIT_BPS()": "413",
				"TIMELOCK_DELAY()": "393",
				"allowance(address,address)": "infinite",
				"approve(address,uint256)": "infinite",
				"balanceOf(address)": "2897",
				"burn(uint256)": "infinite",
				"burnFeeBps()": "2514",
				"burnFrom(address,uint256)": "infinite",
				"cancelAction(bytes32)": "infinite",
				"decimals()": "451",
				"isAmmPair(address)": "2923",
				"isExcludedFromAntiBot(address)": "2945",
				"isExcludedFromFee(address)": "2945",
				"isExcludedFromLimits(address)": "2923",
				"lastTradeBlock(address)": "2915",
				"limitsEnabled()": "2556",
				"maxTxAmount()": "2559",
				"maxWalletAmount()": "2515",
				"mint(address,uint256)": "infinite",
				"mintActionId(address,uint256)": "infinite",
				"name()": "infinite",
				"owner()": "2583",
				"queueAction(bytes32)": "infinite",
				"queuedAt(bytes32)": "2821",
				"renounceOwnership()": "infinite",
				"sameBlockGuardEnabled()": "2578",
				"setAmmPair(address,bool)": "infinite",
				"setAmmPairActionId(address,bool)": "infinite",
				"setExcludedFromAntiBot(address,bool)": "infinite",
				"setExcludedFromAntiBotActionId(address,bool)": "infinite",
				"setExcludedFromFee(address,bool)": "infinite",
				"setExcludedFromFeeActionId(address,bool)": "infinite",
				"setExcludedFromLimits(address,bool)": "infinite",
				"setExcludedFromLimitsActionId(address,bool)": "infinite",
				"setFees(uint256,uint256)": "infinite",
				"setFeesActionId(uint256,uint256)": "infinite",
				"setLimits(uint256,uint256)": "infinite",
				"setLimitsActionId(uint256,uint256)": "infinite",
				"setLimitsEnabled(bool)": "infinite",
				"setLimitsEnabledActionId(bool)": "infinite",
				"setSameBlockGuardEnabled(bool)": "infinite",
				"setSameBlockGuardEnabledActionId(bool)": "infinite",
				"setTreasuryWallet(address)": "infinite",
				"setTreasuryWalletActionId(address)": "infinite",
				"symbol()": "infinite",
				"totalSupply()": "2589",
				"transfer(address,uint256)": "infinite",
				"transferFrom(address,address,uint256)": "infinite",
				"transferOwnership(address)": "infinite",
				"transferOwnershipActionId(address)": "infinite",
				"treasuryFeeBps()": "2491",
				"treasuryWallet()": "2598"
			},
			"internal": {
				"_update(address,address,uint256)": "infinite"
			}
		},
		"methodIdentifiers": {
			"INITIAL_MINT()": "ca7df92c",
			"MAX_SUPPLY()": "32cb6b0c",
			"MAX_TOTAL_FEE_BPS()": "431a9caa",
			"MIN_LIMIT_BPS()": "ec632104",
			"TIMELOCK_DELAY()": "5ba1c1a9",
			"allowance(address,address)": "dd62ed3e",
			"approve(address,uint256)": "095ea7b3",
			"balanceOf(address)": "70a08231",
			"burn(uint256)": "42966c68",
			"burnFeeBps()": "a5189810",
			"burnFrom(address,uint256)": "79cc6790",
			"cancelAction(bytes32)": "781cc3d3",
			"decimals()": "313ce567",
			"isAmmPair(address)": "9191a9c7",
			"isExcludedFromAntiBot(address)": "5d5b29c1",
			"isExcludedFromFee(address)": "5342acb4",
			"isExcludedFromLimits(address)": "5cce86cd",
			"lastTradeBlock(address)": "74db9d11",
			"limitsEnabled()": "3582ad23",
			"maxTxAmount()": "8c0b5e22",
			"maxWalletAmount()": "aa4bde28",
			"mint(address,uint256)": "40c10f19",
			"mintActionId(address,uint256)": "b0d993ac",
			"name()": "06fdde03",
			"owner()": "8da5cb5b",
			"queueAction(bytes32)": "f9c703f4",
			"queuedAt(bytes32)": "b912de5d",
			"renounceOwnership()": "715018a6",
			"sameBlockGuardEnabled()": "89567779",
			"setAmmPair(address,bool)": "0a656923",
			"setAmmPairActionId(address,bool)": "430e2477",
			"setExcludedFromAntiBot(address,bool)": "9c9bcea2",
			"setExcludedFromAntiBotActionId(address,bool)": "2e8328e6",
			"setExcludedFromFee(address,bool)": "6612e66f",
			"setExcludedFromFeeActionId(address,bool)": "b9890adc",
			"setExcludedFromLimits(address,bool)": "36fddb04",
			"setExcludedFromLimitsActionId(address,bool)": "622f0447",
			"setFees(uint256,uint256)": "0b78f9c0",
			"setFeesActionId(uint256,uint256)": "16e09769",
			"setLimits(uint256,uint256)": "c4590d3f",
			"setLimitsActionId(uint256,uint256)": "a65796dc",
			"setLimitsEnabled(bool)": "41aea9de",
			"setLimitsEnabledActionId(bool)": "55ab3406",
			"setSameBlockGuardEnabled(bool)": "61464a2f",
			"setSameBlockGuardEnabledActionId(bool)": "cd2b9202",
			"setTreasuryWallet(address)": "a8602fea",
			"setTreasuryWalletActionId(address)": "67e7f1c3",
			"symbol()": "95d89b41",
			"totalSupply()": "18160ddd",
			"transfer(address,uint256)": "a9059cbb",
			"transferFrom(address,address,uint256)": "23b872dd",
			"transferOwnership(address)": "f2fde38b",
			"transferOwnershipActionId(address)": "bf57331f",
			"treasuryFeeBps()": "e80cfa5e",
			"treasuryWallet()": "4626402b"
		}
	},
	"abi": [
		{
			"inputs": [
				{
					"internalType": "address",
					"name": "_treasuryWallet",
					"type": "address"
				},
				{
					"internalType": "address",
					"name": "_initialOwner",
					"type": "address"
				}
			],
			"stateMutability": "nonpayable",
			"type": "constructor"
		},
		{
			"inputs": [
				{
					"internalType": "address",
					"name": "spender",
					"type": "address"
				},
				{
					"internalType": "uint256",
					"name": "allowance",
					"type": "uint256"
				},
				{
					"internalType": "uint256",
					"name": "needed",
					"type": "uint256"
				}
			],
			"name": "ERC20InsufficientAllowance",
			"type": "error"
		},
		{
			"inputs": [
				{
					"internalType": "address",
					"name": "sender",
					"type": "address"
				},
				{
					"internalType": "uint256",
					"name": "balance",
					"type": "uint256"
				},
				{
					"internalType": "uint256",
					"name": "needed",
					"type": "uint256"
				}
			],
			"name": "ERC20InsufficientBalance",
			"type": "error"
		},
		{
			"inputs": [
				{
					"internalType": "address",
					"name": "approver",
					"type": "address"
				}
			],
			"name": "ERC20InvalidApprover",
			"type": "error"
		},
		{
			"inputs": [
				{
					"internalType": "address",
					"name": "receiver",
					"type": "address"
				}
			],
			"name": "ERC20InvalidReceiver",
			"type": "error"
		},
		{
			"inputs": [
				{
					"internalType": "address",
					"name": "sender",
					"type": "address"
				}
			],
			"name": "ERC20InvalidSender",
			"type": "error"
		},
		{
			"inputs": [
				{
					"internalType": "address",
					"name": "spender",
					"type": "address"
				}
			],
			"name": "ERC20InvalidSpender",
			"type": "error"
		},
		{
			"inputs": [
				{
					"internalType": "address",
					"name": "owner",
					"type": "address"
				}
			],
			"name": "OwnableInvalidOwner",
			"type": "error"
		},
		{
			"inputs": [
				{
					"internalType": "address",
					"name": "account",
					"type": "address"
				}
			],
			"name": "OwnableUnauthorizedAccount",
			"type": "error"
		},
		{
			"anonymous": false,
			"inputs": [
				{
					"indexed": true,
					"internalType": "bytes32",
					"name": "actionId",
					"type": "bytes32"
				}
			],
			"name": "ActionCancelled",
			"type": "event"
		},
		{
			"anonymous": false,
			"inputs": [
				{
					"indexed": true,
					"internalType": "bytes32",
					"name": "actionId",
					"type": "bytes32"
				}
			],
			"name": "ActionExecuted",
			"type": "event"
		},
		{
			"anonymous": false,
			"inputs": [
				{
					"indexed": true,
					"internalType": "bytes32",
					"name": "actionId",
					"type": "bytes32"
				},
				{
					"indexed": false,
					"internalType": "uint256",
					"name": "executeAfter",
					"type": "uint256"
				}
			],
			"name": "ActionQueued",
			"type": "event"
		},
		{
			"anonymous": false,
			"inputs": [
				{
					"indexed": true,
					"internalType": "address",
					"name": "pair",
					"type": "address"
				},
				{
					"indexed": false,
					"internalType": "bool",
					"name": "isPair",
					"type": "bool"
				}
			],
			"name": "AmmPairUpdated",
			"type": "event"
		},
		{
			"anonymous": false,
			"inputs": [
				{
					"indexed": true,
					"internalType": "address",
					"name": "owner",
					"type": "address"
				},
				{
					"indexed": true,
					"internalType": "address",
					"name": "spender",
					"type": "address"
				},
				{
					"indexed": false,
					"internalType": "uint256",
					"name": "value",
					"type": "uint256"
				}
			],
			"name": "Approval",
			"type": "event"
		},
		{
			"anonymous": false,
			"inputs": [
				{
					"indexed": true,
					"internalType": "address",
					"name": "account",
					"type": "address"
				},
				{
					"indexed": false,
					"internalType": "bool",
					"name": "excluded",
					"type": "bool"
				}
			],
			"name": "ExcludedFromAntiBot",
			"type": "event"
		},
		{
			"anonymous": false,
			"inputs": [
				{
					"indexed": true,
					"internalType": "address",
					"name": "account",
					"type": "address"
				},
				{
					"indexed": false,
					"internalType": "bool",
					"name": "excluded",
					"type": "bool"
				}
			],
			"name": "ExcludedFromFee",
			"type": "event"
		},
		{
			"anonymous": false,
			"inputs": [
				{
					"indexed": true,
					"internalType": "address",
					"name": "account",
					"type": "address"
				},
				{
					"indexed": false,
					"internalType": "bool",
					"name": "excluded",
					"type": "bool"
				}
			],
			"name": "ExcludedFromLimits",
			"type": "event"
		},
		{
			"anonymous": false,
			"inputs": [
				{
					"indexed": false,
					"internalType": "uint256",
					"name": "burnFeeBps",
					"type": "uint256"
				},
				{
					"indexed": false,
					"internalType": "uint256",
					"name": "treasuryFeeBps",
					"type": "uint256"
				}
			],
			"name": "FeesUpdated",
			"type": "event"
		},
		{
			"anonymous": false,
			"inputs": [
				{
					"indexed": false,
					"internalType": "bool",
					"name": "enabled",
					"type": "bool"
				}
			],
			"name": "LimitsEnabledUpdated",
			"type": "event"
		},
		{
			"anonymous": false,
			"inputs": [
				{
					"indexed": false,
					"internalType": "uint256",
					"name": "maxTxAmount",
					"type": "uint256"
				},
				{
					"indexed": false,
					"internalType": "uint256",
					"name": "maxWalletAmount",
					"type": "uint256"
				}
			],
			"name": "LimitsUpdated",
			"type": "event"
		},
		{
			"anonymous": false,
			"inputs": [
				{
					"indexed": true,
					"internalType": "address",
					"name": "previousOwner",
					"type": "address"
				},
				{
					"indexed": true,
					"internalType": "address",
					"name": "newOwner",
					"type": "address"
				}
			],
			"name": "OwnershipTransferred",
			"type": "event"
		},
		{
			"anonymous": false,
			"inputs": [
				{
					"indexed": false,
					"internalType": "bool",
					"name": "enabled",
					"type": "bool"
				}
			],
			"name": "SameBlockGuardUpdated",
			"type": "event"
		},
		{
			"anonymous": false,
			"inputs": [
				{
					"indexed": true,
					"internalType": "address",
					"name": "from",
					"type": "address"
				},
				{
					"indexed": true,
					"internalType": "address",
					"name": "to",
					"type": "address"
				},
				{
					"indexed": false,
					"internalType": "uint256",
					"name": "value",
					"type": "uint256"
				}
			],
			"name": "Transfer",
			"type": "event"
		},
		{
			"anonymous": false,
			"inputs": [
				{
					"indexed": true,
					"internalType": "address",
					"name": "newTreasury",
					"type": "address"
				}
			],
			"name": "TreasuryWalletUpdated",
			"type": "event"
		},
		{
			"inputs": [],
			"name": "INITIAL_MINT",
			"outputs": [
				{
					"internalType": "uint256",
					"name": "",
					"type": "uint256"
				}
			],
			"stateMutability": "view",
			"type": "function"
		},
		{
			"inputs": [],
			"name": "MAX_SUPPLY",
			"outputs": [
				{
					"internalType": "uint256",
					"name": "",
					"type": "uint256"
				}
			],
			"stateMutability": "view",
			"type": "function"
		},
		{
			"inputs": [],
			"name": "MAX_TOTAL_FEE_BPS",
			"outputs": [
				{
					"internalType": "uint256",
					"name": "",
					"type": "uint256"
				}
			],
			"stateMutability": "view",
			"type": "function"
		},
		{
			"inputs": [],
			"name": "MIN_LIMIT_BPS",
			"outputs": [
				{
					"internalType": "uint256",
					"name": "",
					"type": "uint256"
				}
			],
			"stateMutability": "view",
			"type": "function"
		},
		{
			"inputs": [],
			"name": "TIMELOCK_DELAY",
			"outputs": [
				{
					"internalType": "uint256",
					"name": "",
					"type": "uint256"
				}
			],
			"stateMutability": "view",
			"type": "function"
		},
		{
			"inputs": [
				{
					"internalType": "address",
					"name": "owner",
					"type": "address"
				},
				{
					"internalType": "address",
					"name": "spender",
					"type": "address"
				}
			],
			"name": "allowance",
			"outputs": [
				{
					"internalType": "uint256",
					"name": "",
					"type": "uint256"
				}
			],
			"stateMutability": "view",
			"type": "function"
		},
		{
			"inputs": [
				{
					"internalType": "address",
					"name": "spender",
					"type": "address"
				},
				{
					"internalType": "uint256",
					"name": "value",
					"type": "uint256"
				}
			],
			"name": "approve",
			"outputs": [
				{
					"internalType": "bool",
					"name": "",
					"type": "bool"
				}
			],
			"stateMutability": "nonpayable",
			"type": "function"
		},
		{
			"inputs": [
				{
					"internalType": "address",
					"name": "account",
					"type": "address"
				}
			],
			"name": "balanceOf",
			"outputs": [
				{
					"internalType": "uint256",
					"name": "",
					"type": "uint256"
				}
			],
			"stateMutability": "view",
			"type": "function"
		},
		{
			"inputs": [
				{
					"internalType": "uint256",
					"name": "value",
					"type": "uint256"
				}
			],
			"name": "burn",
			"outputs": [],
			"stateMutability": "nonpayable",
			"type": "function"
		},
		{
			"inputs": [],
			"name": "burnFeeBps",
			"outputs": [
				{
					"internalType": "uint256",
					"name": "",
					"type": "uint256"
				}
			],
			"stateMutability": "view",
			"type": "function"
		},
		{
			"inputs": [
				{
					"internalType": "address",
					"name": "account",
					"type": "address"
				},
				{
					"internalType": "uint256",
					"name": "value",
					"type": "uint256"
				}
			],
			"name": "burnFrom",
			"outputs": [],
			"stateMutability": "nonpayable",
			"type": "function"
		},
		{
			"inputs": [
				{
					"internalType": "bytes32",
					"name": "actionId",
					"type": "bytes32"
				}
			],
			"name": "cancelAction",
			"outputs": [],
			"stateMutability": "nonpayable",
			"type": "function"
		},
		{
			"inputs": [],
			"name": "decimals",
			"outputs": [
				{
					"internalType": "uint8",
					"name": "",
					"type": "uint8"
				}
			],
			"stateMutability": "view",
			"type": "function"
		},
		{
			"inputs": [
				{
					"internalType": "address",
					"name": "",
					"type": "address"
				}
			],
			"name": "isAmmPair",
			"outputs": [
				{
					"internalType": "bool",
					"name": "",
					"type": "bool"
				}
			],
			"stateMutability": "view",
			"type": "function"
		},
		{
			"inputs": [
				{
					"internalType": "address",
					"name": "",
					"type": "address"
				}
			],
			"name": "isExcludedFromAntiBot",
			"outputs": [
				{
					"internalType": "bool",
					"name": "",
					"type": "bool"
				}
			],
			"stateMutability": "view",
			"type": "function"
		},
		{
			"inputs": [
				{
					"internalType": "address",
					"name": "",
					"type": "address"
				}
			],
			"name": "isExcludedFromFee",
			"outputs": [
				{
					"internalType": "bool",
					"name": "",
					"type": "bool"
				}
			],
			"stateMutability": "view",
			"type": "function"
		},
		{
			"inputs": [
				{
					"internalType": "address",
					"name": "",
					"type": "address"
				}
			],
			"name": "isExcludedFromLimits",
			"outputs": [
				{
					"internalType": "bool",
					"name": "",
					"type": "bool"
				}
			],
			"stateMutability": "view",
			"type": "function"
		},
		{
			"inputs": [
				{
					"internalType": "address",
					"name": "",
					"type": "address"
				}
			],
			"name": "lastTradeBlock",
			"outputs": [
				{
					"internalType": "uint256",
					"name": "",
					"type": "uint256"
				}
			],
			"stateMutability": "view",
			"type": "function"
		},
		{
			"inputs": [],
			"name": "limitsEnabled",
			"outputs": [
				{
					"internalType": "bool",
					"name": "",
					"type": "bool"
				}
			],
			"stateMutability": "view",
			"type": "function"
		},
		{
			"inputs": [],
			"name": "maxTxAmount",
			"outputs": [
				{
					"internalType": "uint256",
					"name": "",
					"type": "uint256"
				}
			],
			"stateMutability": "view",
			"type": "function"
		},
		{
			"inputs": [],
			"name": "maxWalletAmount",
			"outputs": [
				{
					"internalType": "uint256",
					"name": "",
					"type": "uint256"
				}
			],
			"stateMutability": "view",
			"type": "function"
		},
		{
			"inputs": [
				{
					"internalType": "address",
					"name": "to",
					"type": "address"
				},
				{
					"internalType": "uint256",
					"name": "amount",
					"type": "uint256"
				}
			],
			"name": "mint",
			"outputs": [],
			"stateMutability": "nonpayable",
			"type": "function"
		},
		{
			"inputs": [
				{
					"internalType": "address",
					"name": "to",
					"type": "address"
				},
				{
					"internalType": "uint256",
					"name": "amount",
					"type": "uint256"
				}
			],
			"name": "mintActionId",
			"outputs": [
				{
					"internalType": "bytes32",
					"name": "",
					"type": "bytes32"
				}
			],
			"stateMutability": "pure",
			"type": "function"
		},
		{
			"inputs": [],
			"name": "name",
			"outputs": [
				{
					"internalType": "string",
					"name": "",
					"type": "string"
				}
			],
			"stateMutability": "view",
			"type": "function"
		},
		{
			"inputs": [],
			"name": "owner",
			"outputs": [
				{
					"internalType": "address",
					"name": "",
					"type": "address"
				}
			],
			"stateMutability": "view",
			"type": "function"
		},
		{
			"inputs": [
				{
					"internalType": "bytes32",
					"name": "actionId",
					"type": "bytes32"
				}
			],
			"name": "queueAction",
			"outputs": [],
			"stateMutability": "nonpayable",
			"type": "function"
		},
		{
			"inputs": [
				{
					"internalType": "bytes32",
					"name": "",
					"type": "bytes32"
				}
			],
			"name": "queuedAt",
			"outputs": [
				{
					"internalType": "uint256",
					"name": "",
					"type": "uint256"
				}
			],
			"stateMutability": "view",
			"type": "function"
		},
		{
			"inputs": [],
			"name": "renounceOwnership",
			"outputs": [],
			"stateMutability": "nonpayable",
			"type": "function"
		},
		{
			"inputs": [],
			"name": "sameBlockGuardEnabled",
			"outputs": [
				{
					"internalType": "bool",
					"name": "",
					"type": "bool"
				}
			],
			"stateMutability": "view",
			"type": "function"
		},
		{
			"inputs": [
				{
					"internalType": "address",
					"name": "pair",
					"type": "address"
				},
				{
					"internalType": "bool",
					"name": "isPair",
					"type": "bool"
				}
			],
			"name": "setAmmPair",
			"outputs": [],
			"stateMutability": "nonpayable",
			"type": "function"
		},
		{
			"inputs": [
				{
					"internalType": "address",
					"name": "pair",
					"type": "address"
				},
				{
					"internalType": "bool",
					"name": "isPair",
					"type": "bool"
				}
			],
			"name": "setAmmPairActionId",
			"outputs": [
				{
					"internalType": "bytes32",
					"name": "",
					"type": "bytes32"
				}
			],
			"stateMutability": "pure",
			"type": "function"
		},
		{
			"inputs": [
				{
					"internalType": "address",
					"name": "account",
					"type": "address"
				},
				{
					"internalType": "bool",
					"name": "excluded",
					"type": "bool"
				}
			],
			"name": "setExcludedFromAntiBot",
			"outputs": [],
			"stateMutability": "nonpayable",
			"type": "function"
		},
		{
			"inputs": [
				{
					"internalType": "address",
					"name": "account",
					"type": "address"
				},
				{
					"internalType": "bool",
					"name": "excluded",
					"type": "bool"
				}
			],
			"name": "setExcludedFromAntiBotActionId",
			"outputs": [
				{
					"internalType": "bytes32",
					"name": "",
					"type": "bytes32"
				}
			],
			"stateMutability": "pure",
			"type": "function"
		},
		{
			"inputs": [
				{
					"internalType": "address",
					"name": "account",
					"type": "address"
				},
				{
					"internalType": "bool",
					"name": "excluded",
					"type": "bool"
				}
			],
			"name": "setExcludedFromFee",
			"outputs": [],
			"stateMutability": "nonpayable",
			"type": "function"
		},
		{
			"inputs": [
				{
					"internalType": "address",
					"name": "account",
					"type": "address"
				},
				{
					"internalType": "bool",
					"name": "excluded",
					"type": "bool"
				}
			],
			"name": "setExcludedFromFeeActionId",
			"outputs": [
				{
					"internalType": "bytes32",
					"name": "",
					"type": "bytes32"
				}
			],
			"stateMutability": "pure",
			"type": "function"
		},
		{
			"inputs": [
				{
					"internalType": "address",
					"name": "account",
					"type": "address"
				},
				{
					"internalType": "bool",
					"name": "excluded",
					"type": "bool"
				}
			],
			"name": "setExcludedFromLimits",
			"outputs": [],
			"stateMutability": "nonpayable",
			"type": "function"
		},
		{
			"inputs": [
				{
					"internalType": "address",
					"name": "account",
					"type": "address"
				},
				{
					"internalType": "bool",
					"name": "excluded",
					"type": "bool"
				}
			],
			"name": "setExcludedFromLimitsActionId",
			"outputs": [
				{
					"internalType": "bytes32",
					"name": "",
					"type": "bytes32"
				}
			],
			"stateMutability": "pure",
			"type": "function"
		},
		{
			"inputs": [
				{
					"internalType": "uint256",
					"name": "_burnFeeBps",
					"type": "uint256"
				},
				{
					"internalType": "uint256",
					"name": "_treasuryFeeBps",
					"type": "uint256"
				}
			],
			"name": "setFees",
			"outputs": [],
			"stateMutability": "nonpayable",
			"type": "function"
		},
		{
			"inputs": [
				{
					"internalType": "uint256",
					"name": "_burnFeeBps",
					"type": "uint256"
				},
				{
					"internalType": "uint256",
					"name": "_treasuryFeeBps",
					"type": "uint256"
				}
			],
			"name": "setFeesActionId",
			"outputs": [
				{
					"internalType": "bytes32",
					"name": "",
					"type": "bytes32"
				}
			],
			"stateMutability": "pure",
			"type": "function"
		},
		{
			"inputs": [
				{
					"internalType": "uint256",
					"name": "newMaxTx",
					"type": "uint256"
				},
				{
					"internalType": "uint256",
					"name": "newMaxWallet",
					"type": "uint256"
				}
			],
			"name": "setLimits",
			"outputs": [],
			"stateMutability": "nonpayable",
			"type": "function"
		},
		{
			"inputs": [
				{
					"internalType": "uint256",
					"name": "newMaxTx",
					"type": "uint256"
				},
				{
					"internalType": "uint256",
					"name": "newMaxWallet",
					"type": "uint256"
				}
			],
			"name": "setLimitsActionId",
			"outputs": [
				{
					"internalType": "bytes32",
					"name": "",
					"type": "bytes32"
				}
			],
			"stateMutability": "pure",
			"type": "function"
		},
		{
			"inputs": [
				{
					"internalType": "bool",
					"name": "enabled",
					"type": "bool"
				}
			],
			"name": "setLimitsEnabled",
			"outputs": [],
			"stateMutability": "nonpayable",
			"type": "function"
		},
		{
			"inputs": [
				{
					"internalType": "bool",
					"name": "enabled",
					"type": "bool"
				}
			],
			"name": "setLimitsEnabledActionId",
			"outputs": [
				{
					"internalType": "bytes32",
					"name": "",
					"type": "bytes32"
				}
			],
			"stateMutability": "pure",
			"type": "function"
		},
		{
			"inputs": [
				{
					"internalType": "bool",
					"name": "enabled",
					"type": "bool"
				}
			],
			"name": "setSameBlockGuardEnabled",
			"outputs": [],
			"stateMutability": "nonpayable",
			"type": "function"
		},
		{
			"inputs": [
				{
					"internalType": "bool",
					"name": "enabled",
					"type": "bool"
				}
			],
			"name": "setSameBlockGuardEnabledActionId",
			"outputs": [
				{
					"internalType": "bytes32",
					"name": "",
					"type": "bytes32"
				}
			],
			"stateMutability": "pure",
			"type": "function"
		},
		{
			"inputs": [
				{
					"internalType": "address",
					"name": "newTreasury",
					"type": "address"
				}
			],
			"name": "setTreasuryWallet",
			"outputs": [],
			"stateMutability": "nonpayable",
			"type": "function"
		},
		{
			"inputs": [
				{
					"internalType": "address",
					"name": "newTreasury",
					"type": "address"
				}
			],
			"name": "setTreasuryWalletActionId",
			"outputs": [
				{
					"internalType": "bytes32",
					"name": "",
					"type": "bytes32"
				}
			],
			"stateMutability": "pure",
			"type": "function"
		},
		{
			"inputs": [],
			"name": "symbol",
			"outputs": [
				{
					"internalType": "string",
					"name": "",
					"type": "string"
				}
			],
			"stateMutability": "view",
			"type": "function"
		},
		{
			"inputs": [],
			"name": "totalSupply",
			"outputs": [
				{
					"internalType": "uint256",
					"name": "",
					"type": "uint256"
				}
			],
			"stateMutability": "view",
			"type": "function"
		},
		{
			"inputs": [
				{
					"internalType": "address",
					"name": "to",
					"type": "address"
				},
				{
					"internalType": "uint256",
					"name": "value",
					"type": "uint256"
				}
			],
			"name": "transfer",
			"outputs": [
				{
					"internalType": "bool",
					"name": "",
					"type": "bool"
				}
			],
			"stateMutability": "nonpayable",
			"type": "function"
		},
		{
			"inputs": [
				{
					"internalType": "address",
					"name": "from",
					"type": "address"
				},
				{
					"internalType": "address",
					"name": "to",
					"type": "address"
				},
				{
					"internalType": "uint256",
					"name": "value",
					"type": "uint256"
				}
			],
			"name": "transferFrom",
			"outputs": [
				{
					"internalType": "bool",
					"name": "",
					"type": "bool"
				}
			],
			"stateMutability": "nonpayable",
			"type": "function"
		},
		{
			"inputs": [
				{
					"internalType": "address",
					"name": "newOwner",
					"type": "address"
				}
			],
			"name": "transferOwnership",
			"outputs": [],
			"stateMutability": "nonpayable",
			"type": "function"
		},
		{
			"inputs": [
				{
					"internalType": "address",
					"name": "newOwner",
					"type": "address"
				}
			],
			"name": "transferOwnershipActionId",
			"outputs": [
				{
					"internalType": "bytes32",
					"name": "",
					"type": "bytes32"
				}
			],
			"stateMutability": "pure",
			"type": "function"
		},
		{
			"inputs": [],
			"name": "treasuryFeeBps",
			"outputs": [
				{
					"internalType": "uint256",
					"name": "",
					"type": "uint256"
				}
			],
			"stateMutability": "view",
			"type": "function"
		},
		{
			"inputs": [],
			"name": "treasuryWallet",
			"outputs": [
				{
					"internalType": "address",
					"name": "",
					"type": "address"
				}
			],
			"stateMutability": "view",
			"type": "function"
		}
	]
}